{
	"contracts/pract1.sol": {
		"DefaultValues": {
			"abi": [
				{
					"inputs": [],
					"name": "getValues",
					"outputs": [
						{
							"internalType": "uint256",
							"name": "",
							"type": "uint256"
						},
						{
							"internalType": "bool",
							"name": "",
							"type": "bool"
						},
						{
							"internalType": "address",
							"name": "",
							"type": "address"
						}
					],
					"stateMutability": "view",
					"type": "function"
				},
				{
					"inputs": [],
					"name": "myAddress",
					"outputs": [
						{
							"internalType": "address",
							"name": "",
							"type": "address"
						}
					],
					"stateMutability": "view",
					"type": "function"
				},
				{
					"inputs": [],
					"name": "myBool",
					"outputs": [
						{
							"internalType": "bool",
							"name": "",
							"type": "bool"
						}
					],
					"stateMutability": "view",
					"type": "function"
				},
				{
					"inputs": [],
					"name": "myUint",
					"outputs": [
						{
							"internalType": "uint256",
							"name": "",
							"type": "uint256"
						}
					],
					"stateMutability": "view",
					"type": "function"
				}
			],
			"devdoc": {
				"kind": "dev",
				"methods": {},
				"version": 1
			},
			"evm": {
				"assembly": "    /* \"contracts/pract1.sol\":27:259  contract DefaultValues {... */\n  mstore(0x40, 0x80)\n  callvalue\n  dup1\n  iszero\n  tag_1\n  jumpi\n  revert(0x00, 0x00)\ntag_1:\n  pop\n  dataSize(sub_0)\n  dup1\n  dataOffset(sub_0)\n  0x00\n  codecopy\n  0x00\n  return\nstop\n\nsub_0: assembly {\n        /* \"contracts/pract1.sol\":27:259  contract DefaultValues {... */\n      mstore(0x40, 0x80)\n      callvalue\n      dup1\n      iszero\n      tag_1\n      jumpi\n      revert(0x00, 0x00)\n    tag_1:\n      pop\n      jumpi(tag_2, lt(calldatasize, 0x04))\n      shr(0xe0, calldataload(0x00))\n      dup1\n      0x06540f7e\n      eq\n      tag_3\n      jumpi\n      dup1\n      0x19eb4a90\n      eq\n      tag_4\n      jumpi\n      dup1\n      0x26b85ee1\n      eq\n      tag_5\n      jumpi\n      dup1\n      0x6deecdbe\n      eq\n      tag_6\n      jumpi\n    tag_2:\n      revert(0x00, 0x00)\n        /* \"contracts/pract1.sol\":57:75  uint public myUint */\n    tag_3:\n      tag_7\n      tag_8\n      jump\t// in\n    tag_7:\n      mload(0x40)\n      tag_9\n      swap2\n      swap1\n      tag_10\n      jump\t// in\n    tag_9:\n      mload(0x40)\n      dup1\n      swap2\n      sub\n      swap1\n      return\n        /* \"contracts/pract1.sol\":140:256  function getValues() public view returns (uint, bool, address) {... */\n    tag_4:\n      tag_11\n      tag_12\n      jump\t// in\n    tag_11:\n      mload(0x40)\n      tag_13\n      swap4\n      swap3\n      swap2\n      swap1\n      tag_14\n      jump\t// in\n    tag_13:\n      mload(0x40)\n      dup1\n      swap2\n      sub\n      swap1\n      return\n        /* \"contracts/pract1.sol\":107:131  address public myAddress */\n    tag_5:\n      tag_15\n      tag_16\n      jump\t// in\n    tag_15:\n      mload(0x40)\n      tag_17\n      swap2\n      swap1\n      tag_18\n      jump\t// in\n    tag_17:\n      mload(0x40)\n      dup1\n      swap2\n      sub\n      swap1\n      return\n        /* \"contracts/pract1.sol\":82:100  bool public myBool */\n    tag_6:\n      tag_19\n      tag_20\n      jump\t// in\n    tag_19:\n      mload(0x40)\n      tag_21\n      swap2\n      swap1\n      tag_22\n      jump\t// in\n    tag_21:\n      mload(0x40)\n      dup1\n      swap2\n      sub\n      swap1\n      return\n        /* \"contracts/pract1.sol\":57:75  uint public myUint */\n    tag_8:\n      sload(0x00)\n      dup2\n      jump\t// out\n        /* \"contracts/pract1.sol\":140:256  function getValues() public view returns (uint, bool, address) {... */\n    tag_12:\n        /* \"contracts/pract1.sol\":182:186  uint */\n      0x00\n        /* \"contracts/pract1.sol\":188:192  bool */\n      0x00\n        /* \"contracts/pract1.sol\":194:201  address */\n      0x00\n        /* \"contracts/pract1.sol\":222:228  myUint */\n      sload(0x00)\n        /* \"contracts/pract1.sol\":230:236  myBool */\n      0x01\n      0x00\n      swap1\n      sload\n      swap1\n      0x0100\n      exp\n      swap1\n      div\n      0xff\n      and\n        /* \"contracts/pract1.sol\":238:247  myAddress */\n      0x01\n      dup1\n      sload\n      swap1\n      0x0100\n      exp\n      swap1\n      div\n      0xffffffffffffffffffffffffffffffffffffffff\n      and\n        /* \"contracts/pract1.sol\":214:248  return (myUint, myBool, myAddress) */\n      swap3\n      pop\n      swap3\n      pop\n      swap3\n      pop\n        /* \"contracts/pract1.sol\":140:256  function getValues() public view returns (uint, bool, address) {... */\n      swap1\n      swap2\n      swap3\n      jump\t// out\n        /* \"contracts/pract1.sol\":107:131  address public myAddress */\n    tag_16:\n      0x01\n      dup1\n      sload\n      swap1\n      0x0100\n      exp\n      swap1\n      div\n      0xffffffffffffffffffffffffffffffffffffffff\n      and\n      dup2\n      jump\t// out\n        /* \"contracts/pract1.sol\":82:100  bool public myBool */\n    tag_20:\n      0x01\n      0x00\n      swap1\n      sload\n      swap1\n      0x0100\n      exp\n      swap1\n      div\n      0xff\n      and\n      dup2\n      jump\t// out\n        /* \"#utility.yul\":7:84   */\n    tag_24:\n        /* \"#utility.yul\":44:51   */\n      0x00\n        /* \"#utility.yul\":73:78   */\n      dup2\n        /* \"#utility.yul\":62:78   */\n      swap1\n      pop\n        /* \"#utility.yul\":7:84   */\n      swap2\n      swap1\n      pop\n      jump\t// out\n        /* \"#utility.yul\":90:208   */\n    tag_25:\n        /* \"#utility.yul\":177:201   */\n      tag_34\n        /* \"#utility.yul\":195:200   */\n      dup2\n        /* \"#utility.yul\":177:201   */\n      tag_24\n      jump\t// in\n    tag_34:\n        /* \"#utility.yul\":172:175   */\n      dup3\n        /* \"#utility.yul\":165:202   */\n      mstore\n        /* \"#utility.yul\":90:208   */\n      pop\n      pop\n      jump\t// out\n        /* \"#utility.yul\":214:436   */\n    tag_10:\n        /* \"#utility.yul\":307:311   */\n      0x00\n        /* \"#utility.yul\":345:347   */\n      0x20\n        /* \"#utility.yul\":334:343   */\n      dup3\n        /* \"#utility.yul\":330:348   */\n      add\n        /* \"#utility.yul\":322:348   */\n      swap1\n      pop\n        /* \"#utility.yul\":358:429   */\n      tag_36\n        /* \"#utility.yul\":426:427   */\n      0x00\n        /* \"#utility.yul\":415:424   */\n      dup4\n        /* \"#utility.yul\":411:428   */\n      add\n        /* \"#utility.yul\":402:408   */\n      dup5\n        /* \"#utility.yul\":358:429   */\n      tag_25\n      jump\t// in\n    tag_36:\n        /* \"#utility.yul\":214:436   */\n      swap3\n      swap2\n      pop\n      pop\n      jump\t// out\n        /* \"#utility.yul\":442:532   */\n    tag_26:\n        /* \"#utility.yul\":476:483   */\n      0x00\n        /* \"#utility.yul\":519:524   */\n      dup2\n        /* \"#utility.yul\":512:525   */\n      iszero\n        /* \"#utility.yul\":505:526   */\n      iszero\n        /* \"#utility.yul\":494:526   */\n      swap1\n      pop\n        /* \"#utility.yul\":442:532   */\n      swap2\n      swap1\n      pop\n      jump\t// out\n        /* \"#utility.yul\":538:647   */\n    tag_27:\n        /* \"#utility.yul\":619:640   */\n      tag_39\n        /* \"#utility.yul\":634:639   */\n      dup2\n        /* \"#utility.yul\":619:640   */\n      tag_26\n      jump\t// in\n    tag_39:\n        /* \"#utility.yul\":614:617   */\n      dup3\n        /* \"#utility.yul\":607:641   */\n      mstore\n        /* \"#utility.yul\":538:647   */\n      pop\n      pop\n      jump\t// out\n        /* \"#utility.yul\":653:779   */\n    tag_28:\n        /* \"#utility.yul\":690:697   */\n      0x00\n        /* \"#utility.yul\":730:772   */\n      0xffffffffffffffffffffffffffffffffffffffff\n        /* \"#utility.yul\":723:728   */\n      dup3\n        /* \"#utility.yul\":719:773   */\n      and\n        /* \"#utility.yul\":708:773   */\n      swap1\n      pop\n        /* \"#utility.yul\":653:779   */\n      swap2\n      swap1\n      pop\n      jump\t// out\n        /* \"#utility.yul\":785:881   */\n    tag_29:\n        /* \"#utility.yul\":822:829   */\n      0x00\n        /* \"#utility.yul\":851:875   */\n      tag_42\n        /* \"#utility.yul\":869:874   */\n      dup3\n        /* \"#utility.yul\":851:875   */\n      tag_28\n      jump\t// in\n    tag_42:\n        /* \"#utility.yul\":840:875   */\n      swap1\n      pop\n        /* \"#utility.yul\":785:881   */\n      swap2\n      swap1\n      pop\n      jump\t// out\n        /* \"#utility.yul\":887:1005   */\n    tag_30:\n        /* \"#utility.yul\":974:998   */\n      tag_44\n        /* \"#utility.yul\":992:997   */\n      dup2\n        /* \"#utility.yul\":974:998   */\n      tag_29\n      jump\t// in\n    tag_44:\n        /* \"#utility.yul\":969:972   */\n      dup3\n        /* \"#utility.yul\":962:999   */\n      mstore\n        /* \"#utility.yul\":887:1005   */\n      pop\n      pop\n      jump\t// out\n        /* \"#utility.yul\":1011:1441   */\n    tag_14:\n        /* \"#utility.yul\":1154:1158   */\n      0x00\n        /* \"#utility.yul\":1192:1194   */\n      0x60\n        /* \"#utility.yul\":1181:1190   */\n      dup3\n        /* \"#utility.yul\":1177:1195   */\n      add\n        /* \"#utility.yul\":1169:1195   */\n      swap1\n      pop\n        /* \"#utility.yul\":1205:1276   */\n      tag_46\n        /* \"#utility.yul\":1273:1274   */\n      0x00\n        /* \"#utility.yul\":1262:1271   */\n      dup4\n        /* \"#utility.yul\":1258:1275   */\n      add\n        /* \"#utility.yul\":1249:1255   */\n      dup7\n        /* \"#utility.yul\":1205:1276   */\n      tag_25\n      jump\t// in\n    tag_46:\n        /* \"#utility.yul\":1286:1352   */\n      tag_47\n        /* \"#utility.yul\":1348:1350   */\n      0x20\n        /* \"#utility.yul\":1337:1346   */\n      dup4\n        /* \"#utility.yul\":1333:1351   */\n      add\n        /* \"#utility.yul\":1324:1330   */\n      dup6\n        /* \"#utility.yul\":1286:1352   */\n      tag_27\n      jump\t// in\n    tag_47:\n        /* \"#utility.yul\":1362:1434   */\n      tag_48\n        /* \"#utility.yul\":1430:1432   */\n      0x40\n        /* \"#utility.yul\":1419:1428   */\n      dup4\n        /* \"#utility.yul\":1415:1433   */\n      add\n        /* \"#utility.yul\":1406:1412   */\n      dup5\n        /* \"#utility.yul\":1362:1434   */\n      tag_30\n      jump\t// in\n    tag_48:\n        /* \"#utility.yul\":1011:1441   */\n      swap5\n      swap4\n      pop\n      pop\n      pop\n      pop\n      jump\t// out\n        /* \"#utility.yul\":1447:1669   */\n    tag_18:\n        /* \"#utility.yul\":1540:1544   */\n      0x00\n        /* \"#utility.yul\":1578:1580   */\n      0x20\n        /* \"#utility.yul\":1567:1576   */\n      dup3\n        /* \"#utility.yul\":1563:1581   */\n      add\n        /* \"#utility.yul\":1555:1581   */\n      swap1\n      pop\n        /* \"#utility.yul\":1591:1662   */\n      tag_50\n        /* \"#utility.yul\":1659:1660   */\n      0x00\n        /* \"#utility.yul\":1648:1657   */\n      dup4\n        /* \"#utility.yul\":1644:1661   */\n      add\n        /* \"#utility.yul\":1635:1641   */\n      dup5\n        /* \"#utility.yul\":1591:1662   */\n      tag_30\n      jump\t// in\n    tag_50:\n        /* \"#utility.yul\":1447:1669   */\n      swap3\n      swap2\n      pop\n      pop\n      jump\t// out\n        /* \"#utility.yul\":1675:1885   */\n    tag_22:\n        /* \"#utility.yul\":1762:1766   */\n      0x00\n        /* \"#utility.yul\":1800:1802   */\n      0x20\n        /* \"#utility.yul\":1789:1798   */\n      dup3\n        /* \"#utility.yul\":1785:1803   */\n      add\n        /* \"#utility.yul\":1777:1803   */\n      swap1\n      pop\n        /* \"#utility.yul\":1813:1878   */\n      tag_52\n        /* \"#utility.yul\":1875:1876   */\n      0x00\n        /* \"#utility.yul\":1864:1873   */\n      dup4\n        /* \"#utility.yul\":1860:1877   */\n      add\n        /* \"#utility.yul\":1851:1857   */\n      dup5\n        /* \"#utility.yul\":1813:1878   */\n      tag_27\n      jump\t// in\n    tag_52:\n        /* \"#utility.yul\":1675:1885   */\n      swap3\n      swap2\n      pop\n      pop\n      jump\t// out\n\n    auxdata: 0xa26469706673582212206f6e47d24f07e6e0762059b1c6a5edb497272fc23c8f133b45ed45e2fba860ba64736f6c63430008220033\n}\n",
				"bytecode": {
					"linkReferences": {},
					"object": "6080604052348015600e575f5ffd5b5061026a8061001c5f395ff3fe608060405234801561000f575f5ffd5b506004361061004a575f3560e01c806306540f7e1461004e57806319eb4a901461006c57806326b85ee11461008c5780636deecdbe146100aa575b5f5ffd5b6100566100c8565b604051610063919061015b565b60405180910390f35b6100746100cd565b604051610083939291906101cd565b60405180910390f35b61009461010d565b6040516100a19190610202565b60405180910390f35b6100b2610131565b6040516100bf919061021b565b60405180910390f35b5f5481565b5f5f5f5f5460015f9054906101000a900460ff1660018054906101000a900473ffffffffffffffffffffffffffffffffffffffff16925092509250909192565b60018054906101000a900473ffffffffffffffffffffffffffffffffffffffff1681565b60015f9054906101000a900460ff1681565b5f819050919050565b61015581610143565b82525050565b5f60208201905061016e5f83018461014c565b92915050565b5f8115159050919050565b61018881610174565b82525050565b5f73ffffffffffffffffffffffffffffffffffffffff82169050919050565b5f6101b78261018e565b9050919050565b6101c7816101ad565b82525050565b5f6060820190506101e05f83018661014c565b6101ed602083018561017f565b6101fa60408301846101be565b949350505050565b5f6020820190506102155f8301846101be565b92915050565b5f60208201905061022e5f83018461017f565b9291505056fea26469706673582212206f6e47d24f07e6e0762059b1c6a5edb497272fc23c8f133b45ed45e2fba860ba64736f6c63430008220033",
					"opcodes": "PUSH1 0x80 PUSH1 0x40 MSTORE CALLVALUE DUP1 ISZERO PUSH1 0xE JUMPI PUSH0 PUSH0 REVERT JUMPDEST POP PUSH2 0x26A DUP1 PUSH2 0x1C PUSH0 CODECOPY PUSH0 RETURN INVALID PUSH1 0x80 PUSH1 0x40 MSTORE CALLVALUE DUP1 ISZERO PUSH2 0xF JUMPI PUSH0 PUSH0 REVERT JUMPDEST POP PUSH1 0x4 CALLDATASIZE LT PUSH2 0x4A JUMPI PUSH0 CALLDATALOAD PUSH1 0xE0 SHR DUP1 PUSH4 0x6540F7E EQ PUSH2 0x4E JUMPI DUP1 PUSH4 0x19EB4A90 EQ PUSH2 0x6C JUMPI DUP1 PUSH4 0x26B85EE1 EQ PUSH2 0x8C JUMPI DUP1 PUSH4 0x6DEECDBE EQ PUSH2 0xAA JUMPI JUMPDEST PUSH0 PUSH0 REVERT JUMPDEST PUSH2 0x56 PUSH2 0xC8 JUMP JUMPDEST PUSH1 0x40 MLOAD PUSH2 0x63 SWAP2 SWAP1 PUSH2 0x15B JUMP JUMPDEST PUSH1 0x40 MLOAD DUP1 SWAP2 SUB SWAP1 RETURN JUMPDEST PUSH2 0x74 PUSH2 0xCD JUMP JUMPDEST PUSH1 0x40 MLOAD PUSH2 0x83 SWAP4 SWAP3 SWAP2 SWAP1 PUSH2 0x1CD JUMP JUMPDEST PUSH1 0x40 MLOAD DUP1 SWAP2 SUB SWAP1 RETURN JUMPDEST PUSH2 0x94 PUSH2 0x10D JUMP JUMPDEST PUSH1 0x40 MLOAD PUSH2 0xA1 SWAP2 SWAP1 PUSH2 0x202 JUMP JUMPDEST PUSH1 0x40 MLOAD DUP1 SWAP2 SUB SWAP1 RETURN JUMPDEST PUSH2 0xB2 PUSH2 0x131 JUMP JUMPDEST PUSH1 0x40 MLOAD PUSH2 0xBF SWAP2 SWAP1 PUSH2 0x21B JUMP JUMPDEST PUSH1 0x40 MLOAD DUP1 SWAP2 SUB SWAP1 RETURN JUMPDEST PUSH0 SLOAD DUP2 JUMP JUMPDEST PUSH0 PUSH0 PUSH0 PUSH0 SLOAD PUSH1 0x1 PUSH0 SWAP1 SLOAD SWAP1 PUSH2 0x100 EXP SWAP1 DIV PUSH1 0xFF AND PUSH1 0x1 DUP1 SLOAD SWAP1 PUSH2 0x100 EXP SWAP1 DIV PUSH20 0xFFFFFFFFFFFFFFFFFFFFFFFFFFFFFFFFFFFFFFFF AND SWAP3 POP SWAP3 POP SWAP3 POP SWAP1 SWAP2 SWAP3 JUMP JUMPDEST PUSH1 0x1 DUP1 SLOAD SWAP1 PUSH2 0x100 EXP SWAP1 DIV PUSH20 0xFFFFFFFFFFFFFFFFFFFFFFFFFFFFFFFFFFFFFFFF AND DUP2 JUMP JUMPDEST PUSH1 0x1 PUSH0 SWAP1 SLOAD SWAP1 PUSH2 0x100 EXP SWAP1 DIV PUSH1 0xFF AND DUP2 JUMP JUMPDEST PUSH0 DUP2 SWAP1 POP SWAP2 SWAP1 POP JUMP JUMPDEST PUSH2 0x155 DUP2 PUSH2 0x143 JUMP JUMPDEST DUP3 MSTORE POP POP JUMP JUMPDEST PUSH0 PUSH1 0x20 DUP3 ADD SWAP1 POP PUSH2 0x16E PUSH0 DUP4 ADD DUP5 PUSH2 0x14C JUMP JUMPDEST SWAP3 SWAP2 POP POP JUMP JUMPDEST PUSH0 DUP2 ISZERO ISZERO SWAP1 POP SWAP2 SWAP1 POP JUMP JUMPDEST PUSH2 0x188 DUP2 PUSH2 0x174 JUMP JUMPDEST DUP3 MSTORE POP POP JUMP JUMPDEST PUSH0 PUSH20 0xFFFFFFFFFFFFFFFFFFFFFFFFFFFFFFFFFFFFFFFF DUP3 AND SWAP1 POP SWAP2 SWAP1 POP JUMP JUMPDEST PUSH0 PUSH2 0x1B7 DUP3 PUSH2 0x18E JUMP JUMPDEST SWAP1 POP SWAP2 SWAP1 POP JUMP JUMPDEST PUSH2 0x1C7 DUP2 PUSH2 0x1AD JUMP JUMPDEST DUP3 MSTORE POP POP JUMP JUMPDEST PUSH0 PUSH1 0x60 DUP3 ADD SWAP1 POP PUSH2 0x1E0 PUSH0 DUP4 ADD DUP7 PUSH2 0x14C JUMP JUMPDEST PUSH2 0x1ED PUSH1 0x20 DUP4 ADD DUP6 PUSH2 0x17F JUMP JUMPDEST PUSH2 0x1FA PUSH1 0x40 DUP4 ADD DUP5 PUSH2 0x1BE JUMP JUMPDEST SWAP5 SWAP4 POP POP POP POP JUMP JUMPDEST PUSH0 PUSH1 0x20 DUP3 ADD SWAP1 POP PUSH2 0x215 PUSH0 DUP4 ADD DUP5 PUSH2 0x1BE JUMP JUMPDEST SWAP3 SWAP2 POP POP JUMP JUMPDEST PUSH0 PUSH1 0x20 DUP3 ADD SWAP1 POP PUSH2 0x22E PUSH0 DUP4 ADD DUP5 PUSH2 0x17F JUMP JUMPDEST SWAP3 SWAP2 POP POP JUMP INVALID LOG2 PUSH5 0x6970667358 0x22 SLT KECCAK256 PUSH16 0x6E47D24F07E6E0762059B1C6A5EDB497 0x27 0x2F 0xC2 EXTCODECOPY DUP16 SGT EXTCODESIZE GASLIMIT 0xED GASLIMIT 0xE2 EXTSTATICCALL 0xA8 PUSH1 0xBA PUSH5 0x736F6C6343 STOP ADDMOD 0x22 STOP CALLER "
				},
				"gasEstimates": {
					"creation": {
						"codeDepositCost": "123600",
						"executionCost": "169",
						"totalCost": "123769"
					},
					"external": {
						"getValues()": "7027",
						"myAddress()": "2578",
						"myBool()": "2510",
						"myUint()": "2402"
					}
				},
				"methodIdentifiers": {
					"getValues()": "19eb4a90",
					"myAddress()": "26b85ee1",
					"myBool()": "6deecdbe",
					"myUint()": "06540f7e"
				}
			},
			"storageLayout": {
				"storage": [
					{
						"astId": 3,
						"contract": "contracts/pract1.sol:DefaultValues",
						"label": "myUint",
						"offset": 0,
						"slot": "0",
						"type": "t_uint256"
					},
					{
						"astId": 5,
						"contract": "contracts/pract1.sol:DefaultValues",
						"label": "myBool",
						"offset": 0,
						"slot": "1",
						"type": "t_bool"
					},
					{
						"astId": 7,
						"contract": "contracts/pract1.sol:DefaultValues",
						"label": "myAddress",
						"offset": 1,
						"slot": "1",
						"type": "t_address"
					}
				],
				"types": {
					"t_address": {
						"encoding": "inplace",
						"label": "address",
						"numberOfBytes": "20"
					},
					"t_bool": {
						"encoding": "inplace",
						"label": "bool",
						"numberOfBytes": "1"
					},
					"t_uint256": {
						"encoding": "inplace",
						"label": "uint256",
						"numberOfBytes": "32"
					}
				}
			},
			"userdoc": {
				"kind": "user",
				"methods": {},
				"version": 1
			}
		}
	}
}