{
	"contracts/staking.sol": {
		"SimpleStaking": {
			"abi": [
				{
					"inputs": [
						{
							"internalType": "address",
							"name": "_token",
							"type": "address"
						}
					],
					"stateMutability": "nonpayable",
					"type": "constructor"
				},
				{
					"inputs": [],
					"name": "lockTime",
					"outputs": [
						{
							"internalType": "uint256",
							"name": "",
							"type": "uint256"
						}
					],
					"stateMutability": "view",
					"type": "function"
				},
				{
					"inputs": [
						{
							"internalType": "uint256",
							"name": "_amount",
							"type": "uint256"
						}
					],
					"name": "stake",
					"outputs": [],
					"stateMutability": "nonpayable",
					"type": "function"
				},
				{
					"inputs": [
						{
							"internalType": "address",
							"name": "",
							"type": "address"
						}
					],
					"name": "stakes",
					"outputs": [
						{
							"internalType": "uint256",
							"name": "amount",
							"type": "uint256"
						},
						{
							"internalType": "uint256",
							"name": "timestamp",
							"type": "uint256"
						}
					],
					"stateMutability": "view",
					"type": "function"
				},
				{
					"inputs": [],
					"name": "token",
					"outputs": [
						{
							"internalType": "contract IERC20",
							"name": "",
							"type": "address"
						}
					],
					"stateMutability": "view",
					"type": "function"
				},
				{
					"inputs": [],
					"name": "withdraw",
					"outputs": [],
					"stateMutability": "nonpayable",
					"type": "function"
				}
			],
			"devdoc": {
				"kind": "dev",
				"methods": {},
				"version": 1
			},
			"evm": {
				"assembly": "    /* \"contracts/staking.sol\":271:1370  contract SimpleStaking {... */\n  mstore(0x40, 0x80)\n    /* \"contracts/staking.sol\":353:359  1 days */\n  0x015180\n    /* \"contracts/staking.sol\":327:359  uint256 public lockTime = 1 days */\n  0x01\n  sstore\n    /* \"contracts/staking.sol\":506:575  constructor(address _token) {... */\n  callvalue\n  dup1\n  iszero\n  tag_1\n  jumpi\n  0x00\n  dup1\n  revert\ntag_1:\n  pop\n  mload(0x40)\n  sub(codesize, bytecodeSize)\n  dup1\n  bytecodeSize\n  dup4\n  codecopy\n  dup2\n  dup2\n  add\n  0x40\n  mstore\n  dup2\n  add\n  swap1\n  tag_2\n  swap2\n  swap1\n  tag_3\n  jump\t// in\ntag_2:\n    /* \"contracts/staking.sol\":560:566  _token */\n  dup1\n    /* \"contracts/staking.sol\":545:550  token */\n  0x00\n  dup1\n    /* \"contracts/staking.sol\":545:567  token = IERC20(_token) */\n  0x0100\n  exp\n  dup2\n  sload\n  dup2\n  0xffffffffffffffffffffffffffffffffffffffff\n  mul\n  not\n  and\n  swap1\n  dup4\n  0xffffffffffffffffffffffffffffffffffffffff\n  and\n  mul\n  or\n  swap1\n  sstore\n  pop\n    /* \"contracts/staking.sol\":506:575  constructor(address _token) {... */\n  pop\n    /* \"contracts/staking.sol\":271:1370  contract SimpleStaking {... */\n  jump(tag_6)\n    /* \"#utility.yul\":88:205   */\ntag_8:\n    /* \"#utility.yul\":197:198   */\n  0x00\n    /* \"#utility.yul\":194:195   */\n  dup1\n    /* \"#utility.yul\":187:199   */\n  revert\n    /* \"#utility.yul\":334:460   */\ntag_10:\n    /* \"#utility.yul\":371:378   */\n  0x00\n    /* \"#utility.yul\":411:453   */\n  0xffffffffffffffffffffffffffffffffffffffff\n    /* \"#utility.yul\":404:409   */\n  dup3\n    /* \"#utility.yul\":400:454   */\n  and\n    /* \"#utility.yul\":389:454   */\n  swap1\n  pop\n    /* \"#utility.yul\":334:460   */\n  swap2\n  swap1\n  pop\n  jump\t// out\n    /* \"#utility.yul\":466:562   */\ntag_11:\n    /* \"#utility.yul\":503:510   */\n  0x00\n    /* \"#utility.yul\":532:556   */\n  tag_20\n    /* \"#utility.yul\":550:555   */\n  dup3\n    /* \"#utility.yul\":532:556   */\n  tag_10\n  jump\t// in\ntag_20:\n    /* \"#utility.yul\":521:556   */\n  swap1\n  pop\n    /* \"#utility.yul\":466:562   */\n  swap2\n  swap1\n  pop\n  jump\t// out\n    /* \"#utility.yul\":568:690   */\ntag_12:\n    /* \"#utility.yul\":641:665   */\n  tag_22\n    /* \"#utility.yul\":659:664   */\n  dup2\n    /* \"#utility.yul\":641:665   */\n  tag_11\n  jump\t// in\ntag_22:\n    /* \"#utility.yul\":634:639   */\n  dup2\n    /* \"#utility.yul\":631:666   */\n  eq\n    /* \"#utility.yul\":621:684   */\n  tag_23\n  jumpi\n    /* \"#utility.yul\":680:681   */\n  0x00\n    /* \"#utility.yul\":677:678   */\n  dup1\n    /* \"#utility.yul\":670:682   */\n  revert\n    /* \"#utility.yul\":621:684   */\ntag_23:\n    /* \"#utility.yul\":568:690   */\n  pop\n  jump\t// out\n    /* \"#utility.yul\":696:839   */\ntag_13:\n    /* \"#utility.yul\":753:758   */\n  0x00\n    /* \"#utility.yul\":784:790   */\n  dup2\n    /* \"#utility.yul\":778:791   */\n  mload\n    /* \"#utility.yul\":769:791   */\n  swap1\n  pop\n    /* \"#utility.yul\":800:833   */\n  tag_25\n    /* \"#utility.yul\":827:832   */\n  dup2\n    /* \"#utility.yul\":800:833   */\n  tag_12\n  jump\t// in\ntag_25:\n    /* \"#utility.yul\":696:839   */\n  swap3\n  swap2\n  pop\n  pop\n  jump\t// out\n    /* \"#utility.yul\":845:1196   */\ntag_3:\n    /* \"#utility.yul\":915:921   */\n  0x00\n    /* \"#utility.yul\":964:966   */\n  0x20\n    /* \"#utility.yul\":952:961   */\n  dup3\n    /* \"#utility.yul\":943:950   */\n  dup5\n    /* \"#utility.yul\":939:962   */\n  sub\n    /* \"#utility.yul\":935:967   */\n  slt\n    /* \"#utility.yul\":932:1051   */\n  iszero\n  tag_27\n  jumpi\n    /* \"#utility.yul\":970:1049   */\n  tag_28\n  tag_8\n  jump\t// in\ntag_28:\n    /* \"#utility.yul\":932:1051   */\ntag_27:\n    /* \"#utility.yul\":1090:1091   */\n  0x00\n    /* \"#utility.yul\":1115:1179   */\n  tag_29\n    /* \"#utility.yul\":1171:1178   */\n  dup5\n    /* \"#utility.yul\":1162:1168   */\n  dup3\n    /* \"#utility.yul\":1151:1160   */\n  dup6\n    /* \"#utility.yul\":1147:1169   */\n  add\n    /* \"#utility.yul\":1115:1179   */\n  tag_13\n  jump\t// in\ntag_29:\n    /* \"#utility.yul\":1105:1179   */\n  swap2\n  pop\n    /* \"#utility.yul\":1061:1189   */\n  pop\n    /* \"#utility.yul\":845:1196   */\n  swap3\n  swap2\n  pop\n  pop\n  jump\t// out\n    /* \"contracts/staking.sol\":271:1370  contract SimpleStaking {... */\ntag_6:\n  dataSize(sub_0)\n  dup1\n  dataOffset(sub_0)\n  0x00\n  codecopy\n  0x00\n  return\nstop\n\nsub_0: assembly {\n        /* \"contracts/staking.sol\":271:1370  contract SimpleStaking {... */\n      mstore(0x40, 0x80)\n      callvalue\n      dup1\n      iszero\n      tag_1\n      jumpi\n      0x00\n      dup1\n      revert\n    tag_1:\n      pop\n      jumpi(tag_2, lt(calldatasize, 0x04))\n      shr(0xe0, calldataload(0x00))\n      dup1\n      0x0d668087\n      eq\n      tag_3\n      jumpi\n      dup1\n      0x16934fc4\n      eq\n      tag_4\n      jumpi\n      dup1\n      0x3ccfd60b\n      eq\n      tag_5\n      jumpi\n      dup1\n      0xa694fc3a\n      eq\n      tag_6\n      jumpi\n      dup1\n      0xfc0c546a\n      eq\n      tag_7\n      jumpi\n    tag_2:\n      0x00\n      dup1\n      revert\n        /* \"contracts/staking.sol\":327:359  uint256 public lockTime = 1 days */\n    tag_3:\n      tag_8\n      tag_9\n      jump\t// in\n    tag_8:\n      mload(0x40)\n      tag_10\n      swap2\n      swap1\n      tag_11\n      jump\t// in\n    tag_10:\n      mload(0x40)\n      dup1\n      swap2\n      sub\n      swap1\n      return\n        /* \"contracts/staking.sol\":454:497  mapping(address => StakeInfo) public stakes */\n    tag_4:\n      tag_12\n      0x04\n      dup1\n      calldatasize\n      sub\n      dup2\n      add\n      swap1\n      tag_13\n      swap2\n      swap1\n      tag_14\n      jump\t// in\n    tag_13:\n      tag_15\n      jump\t// in\n    tag_12:\n      mload(0x40)\n      tag_16\n      swap3\n      swap2\n      swap1\n      tag_17\n      jump\t// in\n    tag_16:\n      mload(0x40)\n      dup1\n      swap2\n      sub\n      swap1\n      return\n        /* \"contracts/staking.sol\":955:1367  function withdraw() external {... */\n    tag_5:\n      tag_18\n      tag_19\n      jump\t// in\n    tag_18:\n      stop\n        /* \"contracts/staking.sol\":583:947  function stake(uint256 _amount) external {... */\n    tag_6:\n      tag_20\n      0x04\n      dup1\n      calldatasize\n      sub\n      dup2\n      add\n      swap1\n      tag_21\n      swap2\n      swap1\n      tag_22\n      jump\t// in\n    tag_21:\n      tag_23\n      jump\t// in\n    tag_20:\n      stop\n        /* \"contracts/staking.sol\":301:320  IERC20 public token */\n    tag_7:\n      tag_24\n      tag_25\n      jump\t// in\n    tag_24:\n      mload(0x40)\n      tag_26\n      swap2\n      swap1\n      tag_27\n      jump\t// in\n    tag_26:\n      mload(0x40)\n      dup1\n      swap2\n      sub\n      swap1\n      return\n        /* \"contracts/staking.sol\":327:359  uint256 public lockTime = 1 days */\n    tag_9:\n      sload(0x01)\n      dup2\n      jump\t// out\n        /* \"contracts/staking.sol\":454:497  mapping(address => StakeInfo) public stakes */\n    tag_15:\n      mstore(0x20, 0x02)\n      dup1\n      0x00\n      mstore\n      keccak256(0x00, 0x40)\n      0x00\n      swap2\n      pop\n      swap1\n      pop\n      dup1\n      0x00\n      add\n      sload\n      swap1\n      dup1\n      0x01\n      add\n      sload\n      swap1\n      pop\n      dup3\n      jump\t// out\n        /* \"contracts/staking.sol\":955:1367  function withdraw() external {... */\n    tag_19:\n        /* \"contracts/staking.sol\":995:1022  StakeInfo storage userStake */\n      0x00\n        /* \"contracts/staking.sol\":1025:1031  stakes */\n      0x02\n        /* \"contracts/staking.sol\":1025:1043  stakes[msg.sender] */\n      0x00\n        /* \"contracts/staking.sol\":1032:1042  msg.sender */\n      caller\n        /* \"contracts/staking.sol\":1025:1043  stakes[msg.sender] */\n      0xffffffffffffffffffffffffffffffffffffffff\n      and\n      0xffffffffffffffffffffffffffffffffffffffff\n      and\n      dup2\n      mstore\n      0x20\n      add\n      swap1\n      dup2\n      mstore\n      0x20\n      add\n      0x00\n      keccak256\n        /* \"contracts/staking.sol\":995:1043  StakeInfo storage userStake = stakes[msg.sender] */\n      swap1\n      pop\n        /* \"contracts/staking.sol\":1081:1082  0 */\n      0x00\n        /* \"contracts/staking.sol\":1062:1071  userStake */\n      dup2\n        /* \"contracts/staking.sol\":1062:1078  userStake.amount */\n      0x00\n      add\n      sload\n        /* \"contracts/staking.sol\":1062:1082  userStake.amount > 0 */\n      gt\n        /* \"contracts/staking.sol\":1054:1106  require(userStake.amount > 0, \"Nothing to withdraw\") */\n      tag_29\n      jumpi\n      mload(0x40)\n      0x08c379a000000000000000000000000000000000000000000000000000000000\n      dup2\n      mstore\n      0x04\n      add\n      tag_30\n      swap1\n      tag_31\n      jump\t// in\n    tag_30:\n      mload(0x40)\n      dup1\n      swap2\n      sub\n      swap1\n      revert\n    tag_29:\n        /* \"contracts/staking.sol\":1166:1174  lockTime */\n      sload(0x01)\n        /* \"contracts/staking.sol\":1144:1153  userStake */\n      dup2\n        /* \"contracts/staking.sol\":1144:1163  userStake.timestamp */\n      0x01\n      add\n      sload\n        /* \"contracts/staking.sol\":1144:1174  userStake.timestamp + lockTime */\n      tag_32\n      swap2\n      swap1\n      tag_33\n      jump\t// in\n    tag_32:\n        /* \"contracts/staking.sol\":1125:1140  block.timestamp */\n      timestamp\n        /* \"contracts/staking.sol\":1125:1174  block.timestamp >= userStake.timestamp + lockTime */\n      lt\n      iszero\n        /* \"contracts/staking.sol\":1117:1200  require(block.timestamp >= userStake.timestamp + lockTime, \"Stake is still locked\") */\n      tag_34\n      jumpi\n      mload(0x40)\n      0x08c379a000000000000000000000000000000000000000000000000000000000\n      dup2\n      mstore\n      0x04\n      add\n      tag_35\n      swap1\n      tag_36\n      jump\t// in\n    tag_35:\n      mload(0x40)\n      dup1\n      swap2\n      sub\n      swap1\n      revert\n    tag_34:\n        /* \"contracts/staking.sol\":1245:1259  uint256 amount */\n      0x00\n        /* \"contracts/staking.sol\":1262:1271  userStake */\n      dup2\n        /* \"contracts/staking.sol\":1262:1278  userStake.amount */\n      0x00\n      add\n      sload\n        /* \"contracts/staking.sol\":1245:1278  uint256 amount = userStake.amount */\n      swap1\n      pop\n        /* \"contracts/staking.sol\":1296:1302  stakes */\n      0x02\n        /* \"contracts/staking.sol\":1296:1314  stakes[msg.sender] */\n      0x00\n        /* \"contracts/staking.sol\":1303:1313  msg.sender */\n      caller\n        /* \"contracts/staking.sol\":1296:1314  stakes[msg.sender] */\n      0xffffffffffffffffffffffffffffffffffffffff\n      and\n      0xffffffffffffffffffffffffffffffffffffffff\n      and\n      dup2\n      mstore\n      0x20\n      add\n      swap1\n      dup2\n      mstore\n      0x20\n      add\n      0x00\n      keccak256\n      0x00\n        /* \"contracts/staking.sol\":1289:1314  delete stakes[msg.sender] */\n      dup1\n      dup3\n      add\n      0x00\n      swap1\n      sstore\n      0x01\n      dup3\n      add\n      0x00\n      swap1\n      sstore\n      pop\n      pop\n        /* \"contracts/staking.sol\":1325:1330  token */\n      0x00\n      dup1\n      sload\n      swap1\n      0x0100\n      exp\n      swap1\n      div\n      0xffffffffffffffffffffffffffffffffffffffff\n      and\n        /* \"contracts/staking.sol\":1325:1339  token.transfer */\n      0xffffffffffffffffffffffffffffffffffffffff\n      and\n      0xa9059cbb\n        /* \"contracts/staking.sol\":1340:1350  msg.sender */\n      caller\n        /* \"contracts/staking.sol\":1352:1358  amount */\n      dup4\n        /* \"contracts/staking.sol\":1325:1359  token.transfer(msg.sender, amount) */\n      mload(0x40)\n      dup4\n      0xffffffff\n      and\n      0xe0\n      shl\n      dup2\n      mstore\n      0x04\n      add\n      tag_37\n      swap3\n      swap2\n      swap1\n      tag_38\n      jump\t// in\n    tag_37:\n      0x20\n      mload(0x40)\n      dup1\n      dup4\n      sub\n      dup2\n      0x00\n      dup8\n      gas\n      call\n      iszero\n      dup1\n      iszero\n      tag_40\n      jumpi\n      returndatasize\n      0x00\n      dup1\n      returndatacopy\n      revert(0x00, returndatasize)\n    tag_40:\n      pop\n      pop\n      pop\n      pop\n      mload(0x40)\n      returndatasize\n      not(0x1f)\n      0x1f\n      dup3\n      add\n      and\n      dup3\n      add\n      dup1\n      0x40\n      mstore\n      pop\n      dup2\n      add\n      swap1\n      tag_41\n      swap2\n      swap1\n      tag_42\n      jump\t// in\n    tag_41:\n      pop\n        /* \"contracts/staking.sol\":984:1367  {... */\n      pop\n      pop\n        /* \"contracts/staking.sol\":955:1367  function withdraw() external {... */\n      jump\t// out\n        /* \"contracts/staking.sol\":583:947  function stake(uint256 _amount) external {... */\n    tag_23:\n        /* \"contracts/staking.sol\":653:654  0 */\n      0x00\n        /* \"contracts/staking.sol\":643:650  _amount */\n      dup2\n        /* \"contracts/staking.sol\":643:654  _amount > 0 */\n      gt\n        /* \"contracts/staking.sol\":635:677  require(_amount > 0, \"Amount must be > 0\") */\n      tag_44\n      jumpi\n      mload(0x40)\n      0x08c379a000000000000000000000000000000000000000000000000000000000\n      dup2\n      mstore\n      0x04\n      add\n      tag_45\n      swap1\n      tag_46\n      jump\t// in\n    tag_45:\n      mload(0x40)\n      dup1\n      swap2\n      sub\n      swap1\n      revert\n    tag_44:\n        /* \"contracts/staking.sol\":725:726  0 */\n      0x00\n        /* \"contracts/staking.sol\":696:702  stakes */\n      0x02\n        /* \"contracts/staking.sol\":696:714  stakes[msg.sender] */\n      0x00\n        /* \"contracts/staking.sol\":703:713  msg.sender */\n      caller\n        /* \"contracts/staking.sol\":696:714  stakes[msg.sender] */\n      0xffffffffffffffffffffffffffffffffffffffff\n      and\n      0xffffffffffffffffffffffffffffffffffffffff\n      and\n      dup2\n      mstore\n      0x20\n      add\n      swap1\n      dup2\n      mstore\n      0x20\n      add\n      0x00\n      keccak256\n        /* \"contracts/staking.sol\":696:721  stakes[msg.sender].amount */\n      0x00\n      add\n      sload\n        /* \"contracts/staking.sol\":696:726  stakes[msg.sender].amount == 0 */\n      eq\n        /* \"contracts/staking.sol\":688:745  require(stakes[msg.sender].amount == 0, \"Already staked\") */\n      tag_47\n      jumpi\n      mload(0x40)\n      0x08c379a000000000000000000000000000000000000000000000000000000000\n      dup2\n      mstore\n      0x04\n      add\n      tag_48\n      swap1\n      tag_49\n      jump\t// in\n    tag_48:\n      mload(0x40)\n      dup1\n      swap2\n      sub\n      swap1\n      revert\n    tag_47:\n        /* \"contracts/staking.sol\":758:763  token */\n      0x00\n      dup1\n      sload\n      swap1\n      0x0100\n      exp\n      swap1\n      div\n      0xffffffffffffffffffffffffffffffffffffffff\n      and\n        /* \"contracts/staking.sol\":758:776  token.transferFrom */\n      0xffffffffffffffffffffffffffffffffffffffff\n      and\n      0x23b872dd\n        /* \"contracts/staking.sol\":777:787  msg.sender */\n      caller\n        /* \"contracts/staking.sol\":797:801  this */\n      address\n        /* \"contracts/staking.sol\":804:811  _amount */\n      dup5\n        /* \"contracts/staking.sol\":758:812  token.transferFrom(msg.sender, address(this), _amount) */\n      mload(0x40)\n      dup5\n      0xffffffff\n      and\n      0xe0\n      shl\n      dup2\n      mstore\n      0x04\n      add\n      tag_50\n      swap4\n      swap3\n      swap2\n      swap1\n      tag_51\n      jump\t// in\n    tag_50:\n      0x20\n      mload(0x40)\n      dup1\n      dup4\n      sub\n      dup2\n      0x00\n      dup8\n      gas\n      call\n      iszero\n      dup1\n      iszero\n      tag_53\n      jumpi\n      returndatasize\n      0x00\n      dup1\n      returndatacopy\n      revert(0x00, returndatasize)\n    tag_53:\n      pop\n      pop\n      pop\n      pop\n      mload(0x40)\n      returndatasize\n      not(0x1f)\n      0x1f\n      dup3\n      add\n      and\n      dup3\n      add\n      dup1\n      0x40\n      mstore\n      pop\n      dup2\n      add\n      swap1\n      tag_54\n      swap2\n      swap1\n      tag_42\n      jump\t// in\n    tag_54:\n      pop\n        /* \"contracts/staking.sol\":846:939  StakeInfo({... */\n      mload(0x40)\n      dup1\n      0x40\n      add\n      0x40\n      mstore\n      dup1\n        /* \"contracts/staking.sol\":879:886  _amount */\n      dup3\n        /* \"contracts/staking.sol\":846:939  StakeInfo({... */\n      dup2\n      mstore\n      0x20\n      add\n        /* \"contracts/staking.sol\":912:927  block.timestamp */\n      timestamp\n        /* \"contracts/staking.sol\":846:939  StakeInfo({... */\n      dup2\n      mstore\n      pop\n        /* \"contracts/staking.sol\":825:831  stakes */\n      0x02\n        /* \"contracts/staking.sol\":825:843  stakes[msg.sender] */\n      0x00\n        /* \"contracts/staking.sol\":832:842  msg.sender */\n      caller\n        /* \"contracts/staking.sol\":825:843  stakes[msg.sender] */\n      0xffffffffffffffffffffffffffffffffffffffff\n      and\n      0xffffffffffffffffffffffffffffffffffffffff\n      and\n      dup2\n      mstore\n      0x20\n      add\n      swap1\n      dup2\n      mstore\n      0x20\n      add\n      0x00\n      keccak256\n        /* \"contracts/staking.sol\":825:939  stakes[msg.sender] = StakeInfo({... */\n      0x00\n      dup3\n      add\n      mload\n      dup2\n      0x00\n      add\n      sstore\n      0x20\n      dup3\n      add\n      mload\n      dup2\n      0x01\n      add\n      sstore\n      swap1\n      pop\n      pop\n        /* \"contracts/staking.sol\":583:947  function stake(uint256 _amount) external {... */\n      pop\n      jump\t// out\n        /* \"contracts/staking.sol\":301:320  IERC20 public token */\n    tag_25:\n      0x00\n      dup1\n      sload\n      swap1\n      0x0100\n      exp\n      swap1\n      div\n      0xffffffffffffffffffffffffffffffffffffffff\n      and\n      dup2\n      jump\t// out\n        /* \"#utility.yul\":7:84   */\n    tag_55:\n        /* \"#utility.yul\":44:51   */\n      0x00\n        /* \"#utility.yul\":73:78   */\n      dup2\n        /* \"#utility.yul\":62:78   */\n      swap1\n      pop\n        /* \"#utility.yul\":7:84   */\n      swap2\n      swap1\n      pop\n      jump\t// out\n        /* \"#utility.yul\":90:208   */\n    tag_56:\n        /* \"#utility.yul\":177:201   */\n      tag_88\n        /* \"#utility.yul\":195:200   */\n      dup2\n        /* \"#utility.yul\":177:201   */\n      tag_55\n      jump\t// in\n    tag_88:\n        /* \"#utility.yul\":172:175   */\n      dup3\n        /* \"#utility.yul\":165:202   */\n      mstore\n        /* \"#utility.yul\":90:208   */\n      pop\n      pop\n      jump\t// out\n        /* \"#utility.yul\":214:436   */\n    tag_11:\n        /* \"#utility.yul\":307:311   */\n      0x00\n        /* \"#utility.yul\":345:347   */\n      0x20\n        /* \"#utility.yul\":334:343   */\n      dup3\n        /* \"#utility.yul\":330:348   */\n      add\n        /* \"#utility.yul\":322:348   */\n      swap1\n      pop\n        /* \"#utility.yul\":358:429   */\n      tag_90\n        /* \"#utility.yul\":426:427   */\n      0x00\n        /* \"#utility.yul\":415:424   */\n      dup4\n        /* \"#utility.yul\":411:428   */\n      add\n        /* \"#utility.yul\":402:408   */\n      dup5\n        /* \"#utility.yul\":358:429   */\n      tag_56\n      jump\t// in\n    tag_90:\n        /* \"#utility.yul\":214:436   */\n      swap3\n      swap2\n      pop\n      pop\n      jump\t// out\n        /* \"#utility.yul\":523:640   */\n    tag_58:\n        /* \"#utility.yul\":632:633   */\n      0x00\n        /* \"#utility.yul\":629:630   */\n      dup1\n        /* \"#utility.yul\":622:634   */\n      revert\n        /* \"#utility.yul\":769:895   */\n    tag_60:\n        /* \"#utility.yul\":806:813   */\n      0x00\n        /* \"#utility.yul\":846:888   */\n      0xffffffffffffffffffffffffffffffffffffffff\n        /* \"#utility.yul\":839:844   */\n      dup3\n        /* \"#utility.yul\":835:889   */\n      and\n        /* \"#utility.yul\":824:889   */\n      swap1\n      pop\n        /* \"#utility.yul\":769:895   */\n      swap2\n      swap1\n      pop\n      jump\t// out\n        /* \"#utility.yul\":901:997   */\n    tag_61:\n        /* \"#utility.yul\":938:945   */\n      0x00\n        /* \"#utility.yul\":967:991   */\n      tag_96\n        /* \"#utility.yul\":985:990   */\n      dup3\n        /* \"#utility.yul\":967:991   */\n      tag_60\n      jump\t// in\n    tag_96:\n        /* \"#utility.yul\":956:991   */\n      swap1\n      pop\n        /* \"#utility.yul\":901:997   */\n      swap2\n      swap1\n      pop\n      jump\t// out\n        /* \"#utility.yul\":1003:1125   */\n    tag_62:\n        /* \"#utility.yul\":1076:1100   */\n      tag_98\n        /* \"#utility.yul\":1094:1099   */\n      dup2\n        /* \"#utility.yul\":1076:1100   */\n      tag_61\n      jump\t// in\n    tag_98:\n        /* \"#utility.yul\":1069:1074   */\n      dup2\n        /* \"#utility.yul\":1066:1101   */\n      eq\n        /* \"#utility.yul\":1056:1119   */\n      tag_99\n      jumpi\n        /* \"#utility.yul\":1115:1116   */\n      0x00\n        /* \"#utility.yul\":1112:1113   */\n      dup1\n        /* \"#utility.yul\":1105:1117   */\n      revert\n        /* \"#utility.yul\":1056:1119   */\n    tag_99:\n        /* \"#utility.yul\":1003:1125   */\n      pop\n      jump\t// out\n        /* \"#utility.yul\":1131:1270   */\n    tag_63:\n        /* \"#utility.yul\":1177:1182   */\n      0x00\n        /* \"#utility.yul\":1215:1221   */\n      dup2\n        /* \"#utility.yul\":1202:1222   */\n      calldataload\n        /* \"#utility.yul\":1193:1222   */\n      swap1\n      pop\n        /* \"#utility.yul\":1231:1264   */\n      tag_101\n        /* \"#utility.yul\":1258:1263   */\n      dup2\n        /* \"#utility.yul\":1231:1264   */\n      tag_62\n      jump\t// in\n    tag_101:\n        /* \"#utility.yul\":1131:1270   */\n      swap3\n      swap2\n      pop\n      pop\n      jump\t// out\n        /* \"#utility.yul\":1276:1605   */\n    tag_14:\n        /* \"#utility.yul\":1335:1341   */\n      0x00\n        /* \"#utility.yul\":1384:1386   */\n      0x20\n        /* \"#utility.yul\":1372:1381   */\n      dup3\n        /* \"#utility.yul\":1363:1370   */\n      dup5\n        /* \"#utility.yul\":1359:1382   */\n      sub\n        /* \"#utility.yul\":1355:1387   */\n      slt\n        /* \"#utility.yul\":1352:1471   */\n      iszero\n      tag_103\n      jumpi\n        /* \"#utility.yul\":1390:1469   */\n      tag_104\n      tag_58\n      jump\t// in\n    tag_104:\n        /* \"#utility.yul\":1352:1471   */\n    tag_103:\n        /* \"#utility.yul\":1510:1511   */\n      0x00\n        /* \"#utility.yul\":1535:1588   */\n      tag_105\n        /* \"#utility.yul\":1580:1587   */\n      dup5\n        /* \"#utility.yul\":1571:1577   */\n      dup3\n        /* \"#utility.yul\":1560:1569   */\n      dup6\n        /* \"#utility.yul\":1556:1578   */\n      add\n        /* \"#utility.yul\":1535:1588   */\n      tag_63\n      jump\t// in\n    tag_105:\n        /* \"#utility.yul\":1525:1588   */\n      swap2\n      pop\n        /* \"#utility.yul\":1481:1598   */\n      pop\n        /* \"#utility.yul\":1276:1605   */\n      swap3\n      swap2\n      pop\n      pop\n      jump\t// out\n        /* \"#utility.yul\":1611:1943   */\n    tag_17:\n        /* \"#utility.yul\":1732:1736   */\n      0x00\n        /* \"#utility.yul\":1770:1772   */\n      0x40\n        /* \"#utility.yul\":1759:1768   */\n      dup3\n        /* \"#utility.yul\":1755:1773   */\n      add\n        /* \"#utility.yul\":1747:1773   */\n      swap1\n      pop\n        /* \"#utility.yul\":1783:1854   */\n      tag_107\n        /* \"#utility.yul\":1851:1852   */\n      0x00\n        /* \"#utility.yul\":1840:1849   */\n      dup4\n        /* \"#utility.yul\":1836:1853   */\n      add\n        /* \"#utility.yul\":1827:1833   */\n      dup6\n        /* \"#utility.yul\":1783:1854   */\n      tag_56\n      jump\t// in\n    tag_107:\n        /* \"#utility.yul\":1864:1936   */\n      tag_108\n        /* \"#utility.yul\":1932:1934   */\n      0x20\n        /* \"#utility.yul\":1921:1930   */\n      dup4\n        /* \"#utility.yul\":1917:1935   */\n      add\n        /* \"#utility.yul\":1908:1914   */\n      dup5\n        /* \"#utility.yul\":1864:1936   */\n      tag_56\n      jump\t// in\n    tag_108:\n        /* \"#utility.yul\":1611:1943   */\n      swap4\n      swap3\n      pop\n      pop\n      pop\n      jump\t// out\n        /* \"#utility.yul\":1949:2071   */\n    tag_64:\n        /* \"#utility.yul\":2022:2046   */\n      tag_110\n        /* \"#utility.yul\":2040:2045   */\n      dup2\n        /* \"#utility.yul\":2022:2046   */\n      tag_55\n      jump\t// in\n    tag_110:\n        /* \"#utility.yul\":2015:2020   */\n      dup2\n        /* \"#utility.yul\":2012:2047   */\n      eq\n        /* \"#utility.yul\":2002:2065   */\n      tag_111\n      jumpi\n        /* \"#utility.yul\":2061:2062   */\n      0x00\n        /* \"#utility.yul\":2058:2059   */\n      dup1\n        /* \"#utility.yul\":2051:2063   */\n      revert\n        /* \"#utility.yul\":2002:2065   */\n    tag_111:\n        /* \"#utility.yul\":1949:2071   */\n      pop\n      jump\t// out\n        /* \"#utility.yul\":2077:2216   */\n    tag_65:\n        /* \"#utility.yul\":2123:2128   */\n      0x00\n        /* \"#utility.yul\":2161:2167   */\n      dup2\n        /* \"#utility.yul\":2148:2168   */\n      calldataload\n        /* \"#utility.yul\":2139:2168   */\n      swap1\n      pop\n        /* \"#utility.yul\":2177:2210   */\n      tag_113\n        /* \"#utility.yul\":2204:2209   */\n      dup2\n        /* \"#utility.yul\":2177:2210   */\n      tag_64\n      jump\t// in\n    tag_113:\n        /* \"#utility.yul\":2077:2216   */\n      swap3\n      swap2\n      pop\n      pop\n      jump\t// out\n        /* \"#utility.yul\":2222:2551   */\n    tag_22:\n        /* \"#utility.yul\":2281:2287   */\n      0x00\n        /* \"#utility.yul\":2330:2332   */\n      0x20\n        /* \"#utility.yul\":2318:2327   */\n      dup3\n        /* \"#utility.yul\":2309:2316   */\n      dup5\n        /* \"#utility.yul\":2305:2328   */\n      sub\n        /* \"#utility.yul\":2301:2333   */\n      slt\n        /* \"#utility.yul\":2298:2417   */\n      iszero\n      tag_115\n      jumpi\n        /* \"#utility.yul\":2336:2415   */\n      tag_116\n      tag_58\n      jump\t// in\n    tag_116:\n        /* \"#utility.yul\":2298:2417   */\n    tag_115:\n        /* \"#utility.yul\":2456:2457   */\n      0x00\n        /* \"#utility.yul\":2481:2534   */\n      tag_117\n        /* \"#utility.yul\":2526:2533   */\n      dup5\n        /* \"#utility.yul\":2517:2523   */\n      dup3\n        /* \"#utility.yul\":2506:2515   */\n      dup6\n        /* \"#utility.yul\":2502:2524   */\n      add\n        /* \"#utility.yul\":2481:2534   */\n      tag_65\n      jump\t// in\n    tag_117:\n        /* \"#utility.yul\":2471:2534   */\n      swap2\n      pop\n        /* \"#utility.yul\":2427:2544   */\n      pop\n        /* \"#utility.yul\":2222:2551   */\n      swap3\n      swap2\n      pop\n      pop\n      jump\t// out\n        /* \"#utility.yul\":2557:2617   */\n    tag_66:\n        /* \"#utility.yul\":2585:2588   */\n      0x00\n        /* \"#utility.yul\":2606:2611   */\n      dup2\n        /* \"#utility.yul\":2599:2611   */\n      swap1\n      pop\n        /* \"#utility.yul\":2557:2617   */\n      swap2\n      swap1\n      pop\n      jump\t// out\n        /* \"#utility.yul\":2623:2765   */\n    tag_67:\n        /* \"#utility.yul\":2673:2682   */\n      0x00\n        /* \"#utility.yul\":2706:2759   */\n      tag_120\n        /* \"#utility.yul\":2724:2758   */\n      tag_121\n        /* \"#utility.yul\":2733:2757   */\n      tag_122\n        /* \"#utility.yul\":2751:2756   */\n      dup5\n        /* \"#utility.yul\":2733:2757   */\n      tag_60\n      jump\t// in\n    tag_122:\n        /* \"#utility.yul\":2724:2758   */\n      tag_66\n      jump\t// in\n    tag_121:\n        /* \"#utility.yul\":2706:2759   */\n      tag_60\n      jump\t// in\n    tag_120:\n        /* \"#utility.yul\":2693:2759   */\n      swap1\n      pop\n        /* \"#utility.yul\":2623:2765   */\n      swap2\n      swap1\n      pop\n      jump\t// out\n        /* \"#utility.yul\":2771:2897   */\n    tag_68:\n        /* \"#utility.yul\":2821:2830   */\n      0x00\n        /* \"#utility.yul\":2854:2891   */\n      tag_124\n        /* \"#utility.yul\":2885:2890   */\n      dup3\n        /* \"#utility.yul\":2854:2891   */\n      tag_67\n      jump\t// in\n    tag_124:\n        /* \"#utility.yul\":2841:2891   */\n      swap1\n      pop\n        /* \"#utility.yul\":2771:2897   */\n      swap2\n      swap1\n      pop\n      jump\t// out\n        /* \"#utility.yul\":2903:3042   */\n    tag_69:\n        /* \"#utility.yul\":2966:2975   */\n      0x00\n        /* \"#utility.yul\":2999:3036   */\n      tag_126\n        /* \"#utility.yul\":3030:3035   */\n      dup3\n        /* \"#utility.yul\":2999:3036   */\n      tag_68\n      jump\t// in\n    tag_126:\n        /* \"#utility.yul\":2986:3036   */\n      swap1\n      pop\n        /* \"#utility.yul\":2903:3042   */\n      swap2\n      swap1\n      pop\n      jump\t// out\n        /* \"#utility.yul\":3048:3205   */\n    tag_70:\n        /* \"#utility.yul\":3148:3198   */\n      tag_128\n        /* \"#utility.yul\":3192:3197   */\n      dup2\n        /* \"#utility.yul\":3148:3198   */\n      tag_69\n      jump\t// in\n    tag_128:\n        /* \"#utility.yul\":3143:3146   */\n      dup3\n        /* \"#utility.yul\":3136:3199   */\n      mstore\n        /* \"#utility.yul\":3048:3205   */\n      pop\n      pop\n      jump\t// out\n        /* \"#utility.yul\":3211:3459   */\n    tag_27:\n        /* \"#utility.yul\":3317:3321   */\n      0x00\n        /* \"#utility.yul\":3355:3357   */\n      0x20\n        /* \"#utility.yul\":3344:3353   */\n      dup3\n        /* \"#utility.yul\":3340:3358   */\n      add\n        /* \"#utility.yul\":3332:3358   */\n      swap1\n      pop\n        /* \"#utility.yul\":3368:3452   */\n      tag_130\n        /* \"#utility.yul\":3449:3450   */\n      0x00\n        /* \"#utility.yul\":3438:3447   */\n      dup4\n        /* \"#utility.yul\":3434:3451   */\n      add\n        /* \"#utility.yul\":3425:3431   */\n      dup5\n        /* \"#utility.yul\":3368:3452   */\n      tag_70\n      jump\t// in\n    tag_130:\n        /* \"#utility.yul\":3211:3459   */\n      swap3\n      swap2\n      pop\n      pop\n      jump\t// out\n        /* \"#utility.yul\":3465:3634   */\n    tag_71:\n        /* \"#utility.yul\":3549:3560   */\n      0x00\n        /* \"#utility.yul\":3583:3589   */\n      dup3\n        /* \"#utility.yul\":3578:3581   */\n      dup3\n        /* \"#utility.yul\":3571:3590   */\n      mstore\n        /* \"#utility.yul\":3623:3627   */\n      0x20\n        /* \"#utility.yul\":3618:3621   */\n      dup3\n        /* \"#utility.yul\":3614:3628   */\n      add\n        /* \"#utility.yul\":3599:3628   */\n      swap1\n      pop\n        /* \"#utility.yul\":3465:3634   */\n      swap3\n      swap2\n      pop\n      pop\n      jump\t// out\n        /* \"#utility.yul\":3640:3809   */\n    tag_72:\n        /* \"#utility.yul\":3780:3801   */\n      0x4e6f7468696e6720746f20776974686472617700000000000000000000000000\n        /* \"#utility.yul\":3776:3777   */\n      0x00\n        /* \"#utility.yul\":3768:3774   */\n      dup3\n        /* \"#utility.yul\":3764:3778   */\n      add\n        /* \"#utility.yul\":3757:3802   */\n      mstore\n        /* \"#utility.yul\":3640:3809   */\n      pop\n      jump\t// out\n        /* \"#utility.yul\":3815:4181   */\n    tag_73:\n        /* \"#utility.yul\":3957:3960   */\n      0x00\n        /* \"#utility.yul\":3978:4045   */\n      tag_134\n        /* \"#utility.yul\":4042:4044   */\n      0x13\n        /* \"#utility.yul\":4037:4040   */\n      dup4\n        /* \"#utility.yul\":3978:4045   */\n      tag_71\n      jump\t// in\n    tag_134:\n        /* \"#utility.yul\":3971:4045   */\n      swap2\n      pop\n        /* \"#utility.yul\":4054:4147   */\n      tag_135\n        /* \"#utility.yul\":4143:4146   */\n      dup3\n        /* \"#utility.yul\":4054:4147   */\n      tag_72\n      jump\t// in\n    tag_135:\n        /* \"#utility.yul\":4172:4174   */\n      0x20\n        /* \"#utility.yul\":4167:4170   */\n      dup3\n        /* \"#utility.yul\":4163:4175   */\n      add\n        /* \"#utility.yul\":4156:4175   */\n      swap1\n      pop\n        /* \"#utility.yul\":3815:4181   */\n      swap2\n      swap1\n      pop\n      jump\t// out\n        /* \"#utility.yul\":4187:4606   */\n    tag_31:\n        /* \"#utility.yul\":4353:4357   */\n      0x00\n        /* \"#utility.yul\":4391:4393   */\n      0x20\n        /* \"#utility.yul\":4380:4389   */\n      dup3\n        /* \"#utility.yul\":4376:4394   */\n      add\n        /* \"#utility.yul\":4368:4394   */\n      swap1\n      pop\n        /* \"#utility.yul\":4440:4449   */\n      dup2\n        /* \"#utility.yul\":4434:4438   */\n      dup2\n        /* \"#utility.yul\":4430:4450   */\n      sub\n        /* \"#utility.yul\":4426:4427   */\n      0x00\n        /* \"#utility.yul\":4415:4424   */\n      dup4\n        /* \"#utility.yul\":4411:4428   */\n      add\n        /* \"#utility.yul\":4404:4451   */\n      mstore\n        /* \"#utility.yul\":4468:4599   */\n      tag_137\n        /* \"#utility.yul\":4594:4598   */\n      dup2\n        /* \"#utility.yul\":4468:4599   */\n      tag_73\n      jump\t// in\n    tag_137:\n        /* \"#utility.yul\":4460:4599   */\n      swap1\n      pop\n        /* \"#utility.yul\":4187:4606   */\n      swap2\n      swap1\n      pop\n      jump\t// out\n        /* \"#utility.yul\":4612:4792   */\n    tag_74:\n        /* \"#utility.yul\":4660:4737   */\n      0x4e487b7100000000000000000000000000000000000000000000000000000000\n        /* \"#utility.yul\":4657:4658   */\n      0x00\n        /* \"#utility.yul\":4650:4738   */\n      mstore\n        /* \"#utility.yul\":4757:4761   */\n      0x11\n        /* \"#utility.yul\":4754:4755   */\n      0x04\n        /* \"#utility.yul\":4747:4762   */\n      mstore\n        /* \"#utility.yul\":4781:4785   */\n      0x24\n        /* \"#utility.yul\":4778:4779   */\n      0x00\n        /* \"#utility.yul\":4771:4786   */\n      revert\n        /* \"#utility.yul\":4798:4989   */\n    tag_33:\n        /* \"#utility.yul\":4838:4841   */\n      0x00\n        /* \"#utility.yul\":4857:4877   */\n      tag_140\n        /* \"#utility.yul\":4875:4876   */\n      dup3\n        /* \"#utility.yul\":4857:4877   */\n      tag_55\n      jump\t// in\n    tag_140:\n        /* \"#utility.yul\":4852:4877   */\n      swap2\n      pop\n        /* \"#utility.yul\":4891:4911   */\n      tag_141\n        /* \"#utility.yul\":4909:4910   */\n      dup4\n        /* \"#utility.yul\":4891:4911   */\n      tag_55\n      jump\t// in\n    tag_141:\n        /* \"#utility.yul\":4886:4911   */\n      swap3\n      pop\n        /* \"#utility.yul\":4934:4935   */\n      dup3\n        /* \"#utility.yul\":4931:4932   */\n      dup3\n        /* \"#utility.yul\":4927:4936   */\n      add\n        /* \"#utility.yul\":4920:4936   */\n      swap1\n      pop\n        /* \"#utility.yul\":4955:4958   */\n      dup1\n        /* \"#utility.yul\":4952:4953   */\n      dup3\n        /* \"#utility.yul\":4949:4959   */\n      gt\n        /* \"#utility.yul\":4946:4982   */\n      iszero\n      tag_142\n      jumpi\n        /* \"#utility.yul\":4962:4980   */\n      tag_143\n      tag_74\n      jump\t// in\n    tag_143:\n        /* \"#utility.yul\":4946:4982   */\n    tag_142:\n        /* \"#utility.yul\":4798:4989   */\n      swap3\n      swap2\n      pop\n      pop\n      jump\t// out\n        /* \"#utility.yul\":4995:5166   */\n    tag_75:\n        /* \"#utility.yul\":5135:5158   */\n      0x5374616b65206973207374696c6c206c6f636b65640000000000000000000000\n        /* \"#utility.yul\":5131:5132   */\n      0x00\n        /* \"#utility.yul\":5123:5129   */\n      dup3\n        /* \"#utility.yul\":5119:5133   */\n      add\n        /* \"#utility.yul\":5112:5159   */\n      mstore\n        /* \"#utility.yul\":4995:5166   */\n      pop\n      jump\t// out\n        /* \"#utility.yul\":5172:5538   */\n    tag_76:\n        /* \"#utility.yul\":5314:5317   */\n      0x00\n        /* \"#utility.yul\":5335:5402   */\n      tag_146\n        /* \"#utility.yul\":5399:5401   */\n      0x15\n        /* \"#utility.yul\":5394:5397   */\n      dup4\n        /* \"#utility.yul\":5335:5402   */\n      tag_71\n      jump\t// in\n    tag_146:\n        /* \"#utility.yul\":5328:5402   */\n      swap2\n      pop\n        /* \"#utility.yul\":5411:5504   */\n      tag_147\n        /* \"#utility.yul\":5500:5503   */\n      dup3\n        /* \"#utility.yul\":5411:5504   */\n      tag_75\n      jump\t// in\n    tag_147:\n        /* \"#utility.yul\":5529:5531   */\n      0x20\n        /* \"#utility.yul\":5524:5527   */\n      dup3\n        /* \"#utility.yul\":5520:5532   */\n      add\n        /* \"#utility.yul\":5513:5532   */\n      swap1\n      pop\n        /* \"#utility.yul\":5172:5538   */\n      swap2\n      swap1\n      pop\n      jump\t// out\n        /* \"#utility.yul\":5544:5963   */\n    tag_36:\n        /* \"#utility.yul\":5710:5714   */\n      0x00\n        /* \"#utility.yul\":5748:5750   */\n      0x20\n        /* \"#utility.yul\":5737:5746   */\n      dup3\n        /* \"#utility.yul\":5733:5751   */\n      add\n        /* \"#utility.yul\":5725:5751   */\n      swap1\n      pop\n        /* \"#utility.yul\":5797:5806   */\n      dup2\n        /* \"#utility.yul\":5791:5795   */\n      dup2\n        /* \"#utility.yul\":5787:5807   */\n      sub\n        /* \"#utility.yul\":5783:5784   */\n      0x00\n        /* \"#utility.yul\":5772:5781   */\n      dup4\n        /* \"#utility.yul\":5768:5785   */\n      add\n        /* \"#utility.yul\":5761:5808   */\n      mstore\n        /* \"#utility.yul\":5825:5956   */\n      tag_149\n        /* \"#utility.yul\":5951:5955   */\n      dup2\n        /* \"#utility.yul\":5825:5956   */\n      tag_76\n      jump\t// in\n    tag_149:\n        /* \"#utility.yul\":5817:5956   */\n      swap1\n      pop\n        /* \"#utility.yul\":5544:5963   */\n      swap2\n      swap1\n      pop\n      jump\t// out\n        /* \"#utility.yul\":5969:6087   */\n    tag_77:\n        /* \"#utility.yul\":6056:6080   */\n      tag_151\n        /* \"#utility.yul\":6074:6079   */\n      dup2\n        /* \"#utility.yul\":6056:6080   */\n      tag_61\n      jump\t// in\n    tag_151:\n        /* \"#utility.yul\":6051:6054   */\n      dup3\n        /* \"#utility.yul\":6044:6081   */\n      mstore\n        /* \"#utility.yul\":5969:6087   */\n      pop\n      pop\n      jump\t// out\n        /* \"#utility.yul\":6093:6425   */\n    tag_38:\n        /* \"#utility.yul\":6214:6218   */\n      0x00\n        /* \"#utility.yul\":6252:6254   */\n      0x40\n        /* \"#utility.yul\":6241:6250   */\n      dup3\n        /* \"#utility.yul\":6237:6255   */\n      add\n        /* \"#utility.yul\":6229:6255   */\n      swap1\n      pop\n        /* \"#utility.yul\":6265:6336   */\n      tag_153\n        /* \"#utility.yul\":6333:6334   */\n      0x00\n        /* \"#utility.yul\":6322:6331   */\n      dup4\n        /* \"#utility.yul\":6318:6335   */\n      add\n        /* \"#utility.yul\":6309:6315   */\n      dup6\n        /* \"#utility.yul\":6265:6336   */\n      tag_77\n      jump\t// in\n    tag_153:\n        /* \"#utility.yul\":6346:6418   */\n      tag_154\n        /* \"#utility.yul\":6414:6416   */\n      0x20\n        /* \"#utility.yul\":6403:6412   */\n      dup4\n        /* \"#utility.yul\":6399:6417   */\n      add\n        /* \"#utility.yul\":6390:6396   */\n      dup5\n        /* \"#utility.yul\":6346:6418   */\n      tag_56\n      jump\t// in\n    tag_154:\n        /* \"#utility.yul\":6093:6425   */\n      swap4\n      swap3\n      pop\n      pop\n      pop\n      jump\t// out\n        /* \"#utility.yul\":6431:6521   */\n    tag_78:\n        /* \"#utility.yul\":6465:6472   */\n      0x00\n        /* \"#utility.yul\":6508:6513   */\n      dup2\n        /* \"#utility.yul\":6501:6514   */\n      iszero\n        /* \"#utility.yul\":6494:6515   */\n      iszero\n        /* \"#utility.yul\":6483:6515   */\n      swap1\n      pop\n        /* \"#utility.yul\":6431:6521   */\n      swap2\n      swap1\n      pop\n      jump\t// out\n        /* \"#utility.yul\":6527:6643   */\n    tag_79:\n        /* \"#utility.yul\":6597:6618   */\n      tag_157\n        /* \"#utility.yul\":6612:6617   */\n      dup2\n        /* \"#utility.yul\":6597:6618   */\n      tag_78\n      jump\t// in\n    tag_157:\n        /* \"#utility.yul\":6590:6595   */\n      dup2\n        /* \"#utility.yul\":6587:6619   */\n      eq\n        /* \"#utility.yul\":6577:6637   */\n      tag_158\n      jumpi\n        /* \"#utility.yul\":6633:6634   */\n      0x00\n        /* \"#utility.yul\":6630:6631   */\n      dup1\n        /* \"#utility.yul\":6623:6635   */\n      revert\n        /* \"#utility.yul\":6577:6637   */\n    tag_158:\n        /* \"#utility.yul\":6527:6643   */\n      pop\n      jump\t// out\n        /* \"#utility.yul\":6649:6786   */\n    tag_80:\n        /* \"#utility.yul\":6703:6708   */\n      0x00\n        /* \"#utility.yul\":6734:6740   */\n      dup2\n        /* \"#utility.yul\":6728:6741   */\n      mload\n        /* \"#utility.yul\":6719:6741   */\n      swap1\n      pop\n        /* \"#utility.yul\":6750:6780   */\n      tag_160\n        /* \"#utility.yul\":6774:6779   */\n      dup2\n        /* \"#utility.yul\":6750:6780   */\n      tag_79\n      jump\t// in\n    tag_160:\n        /* \"#utility.yul\":6649:6786   */\n      swap3\n      swap2\n      pop\n      pop\n      jump\t// out\n        /* \"#utility.yul\":6792:7137   */\n    tag_42:\n        /* \"#utility.yul\":6859:6865   */\n      0x00\n        /* \"#utility.yul\":6908:6910   */\n      0x20\n        /* \"#utility.yul\":6896:6905   */\n      dup3\n        /* \"#utility.yul\":6887:6894   */\n      dup5\n        /* \"#utility.yul\":6883:6906   */\n      sub\n        /* \"#utility.yul\":6879:6911   */\n      slt\n        /* \"#utility.yul\":6876:6995   */\n      iszero\n      tag_162\n      jumpi\n        /* \"#utility.yul\":6914:6993   */\n      tag_163\n      tag_58\n      jump\t// in\n    tag_163:\n        /* \"#utility.yul\":6876:6995   */\n    tag_162:\n        /* \"#utility.yul\":7034:7035   */\n      0x00\n        /* \"#utility.yul\":7059:7120   */\n      tag_164\n        /* \"#utility.yul\":7112:7119   */\n      dup5\n        /* \"#utility.yul\":7103:7109   */\n      dup3\n        /* \"#utility.yul\":7092:7101   */\n      dup6\n        /* \"#utility.yul\":7088:7110   */\n      add\n        /* \"#utility.yul\":7059:7120   */\n      tag_80\n      jump\t// in\n    tag_164:\n        /* \"#utility.yul\":7049:7120   */\n      swap2\n      pop\n        /* \"#utility.yul\":7005:7130   */\n      pop\n        /* \"#utility.yul\":6792:7137   */\n      swap3\n      swap2\n      pop\n      pop\n      jump\t// out\n        /* \"#utility.yul\":7143:7311   */\n    tag_81:\n        /* \"#utility.yul\":7283:7303   */\n      0x416d6f756e74206d757374206265203e20300000000000000000000000000000\n        /* \"#utility.yul\":7279:7280   */\n      0x00\n        /* \"#utility.yul\":7271:7277   */\n      dup3\n        /* \"#utility.yul\":7267:7281   */\n      add\n        /* \"#utility.yul\":7260:7304   */\n      mstore\n        /* \"#utility.yul\":7143:7311   */\n      pop\n      jump\t// out\n        /* \"#utility.yul\":7317:7683   */\n    tag_82:\n        /* \"#utility.yul\":7459:7462   */\n      0x00\n        /* \"#utility.yul\":7480:7547   */\n      tag_167\n        /* \"#utility.yul\":7544:7546   */\n      0x12\n        /* \"#utility.yul\":7539:7542   */\n      dup4\n        /* \"#utility.yul\":7480:7547   */\n      tag_71\n      jump\t// in\n    tag_167:\n        /* \"#utility.yul\":7473:7547   */\n      swap2\n      pop\n        /* \"#utility.yul\":7556:7649   */\n      tag_168\n        /* \"#utility.yul\":7645:7648   */\n      dup3\n        /* \"#utility.yul\":7556:7649   */\n      tag_81\n      jump\t// in\n    tag_168:\n        /* \"#utility.yul\":7674:7676   */\n      0x20\n        /* \"#utility.yul\":7669:7672   */\n      dup3\n        /* \"#utility.yul\":7665:7677   */\n      add\n        /* \"#utility.yul\":7658:7677   */\n      swap1\n      pop\n        /* \"#utility.yul\":7317:7683   */\n      swap2\n      swap1\n      pop\n      jump\t// out\n        /* \"#utility.yul\":7689:8108   */\n    tag_46:\n        /* \"#utility.yul\":7855:7859   */\n      0x00\n        /* \"#utility.yul\":7893:7895   */\n      0x20\n        /* \"#utility.yul\":7882:7891   */\n      dup3\n        /* \"#utility.yul\":7878:7896   */\n      add\n        /* \"#utility.yul\":7870:7896   */\n      swap1\n      pop\n        /* \"#utility.yul\":7942:7951   */\n      dup2\n        /* \"#utility.yul\":7936:7940   */\n      dup2\n        /* \"#utility.yul\":7932:7952   */\n      sub\n        /* \"#utility.yul\":7928:7929   */\n      0x00\n        /* \"#utility.yul\":7917:7926   */\n      dup4\n        /* \"#utility.yul\":7913:7930   */\n      add\n        /* \"#utility.yul\":7906:7953   */\n      mstore\n        /* \"#utility.yul\":7970:8101   */\n      tag_170\n        /* \"#utility.yul\":8096:8100   */\n      dup2\n        /* \"#utility.yul\":7970:8101   */\n      tag_82\n      jump\t// in\n    tag_170:\n        /* \"#utility.yul\":7962:8101   */\n      swap1\n      pop\n        /* \"#utility.yul\":7689:8108   */\n      swap2\n      swap1\n      pop\n      jump\t// out\n        /* \"#utility.yul\":8114:8278   */\n    tag_83:\n        /* \"#utility.yul\":8254:8270   */\n      0x416c7265616479207374616b6564000000000000000000000000000000000000\n        /* \"#utility.yul\":8250:8251   */\n      0x00\n        /* \"#utility.yul\":8242:8248   */\n      dup3\n        /* \"#utility.yul\":8238:8252   */\n      add\n        /* \"#utility.yul\":8231:8271   */\n      mstore\n        /* \"#utility.yul\":8114:8278   */\n      pop\n      jump\t// out\n        /* \"#utility.yul\":8284:8650   */\n    tag_84:\n        /* \"#utility.yul\":8426:8429   */\n      0x00\n        /* \"#utility.yul\":8447:8514   */\n      tag_173\n        /* \"#utility.yul\":8511:8513   */\n      0x0e\n        /* \"#utility.yul\":8506:8509   */\n      dup4\n        /* \"#utility.yul\":8447:8514   */\n      tag_71\n      jump\t// in\n    tag_173:\n        /* \"#utility.yul\":8440:8514   */\n      swap2\n      pop\n        /* \"#utility.yul\":8523:8616   */\n      tag_174\n        /* \"#utility.yul\":8612:8615   */\n      dup3\n        /* \"#utility.yul\":8523:8616   */\n      tag_83\n      jump\t// in\n    tag_174:\n        /* \"#utility.yul\":8641:8643   */\n      0x20\n        /* \"#utility.yul\":8636:8639   */\n      dup3\n        /* \"#utility.yul\":8632:8644   */\n      add\n        /* \"#utility.yul\":8625:8644   */\n      swap1\n      pop\n        /* \"#utility.yul\":8284:8650   */\n      swap2\n      swap1\n      pop\n      jump\t// out\n        /* \"#utility.yul\":8656:9075   */\n    tag_49:\n        /* \"#utility.yul\":8822:8826   */\n      0x00\n        /* \"#utility.yul\":8860:8862   */\n      0x20\n        /* \"#utility.yul\":8849:8858   */\n      dup3\n        /* \"#utility.yul\":8845:8863   */\n      add\n        /* \"#utility.yul\":8837:8863   */\n      swap1\n      pop\n        /* \"#utility.yul\":8909:8918   */\n      dup2\n        /* \"#utility.yul\":8903:8907   */\n      dup2\n        /* \"#utility.yul\":8899:8919   */\n      sub\n        /* \"#utility.yul\":8895:8896   */\n      0x00\n        /* \"#utility.yul\":8884:8893   */\n      dup4\n        /* \"#utility.yul\":8880:8897   */\n      add\n        /* \"#utility.yul\":8873:8920   */\n      mstore\n        /* \"#utility.yul\":8937:9068   */\n      tag_176\n        /* \"#utility.yul\":9063:9067   */\n      dup2\n        /* \"#utility.yul\":8937:9068   */\n      tag_84\n      jump\t// in\n    tag_176:\n        /* \"#utility.yul\":8929:9068   */\n      swap1\n      pop\n        /* \"#utility.yul\":8656:9075   */\n      swap2\n      swap1\n      pop\n      jump\t// out\n        /* \"#utility.yul\":9081:9523   */\n    tag_51:\n        /* \"#utility.yul\":9230:9234   */\n      0x00\n        /* \"#utility.yul\":9268:9270   */\n      0x60\n        /* \"#utility.yul\":9257:9266   */\n      dup3\n        /* \"#utility.yul\":9253:9271   */\n      add\n        /* \"#utility.yul\":9245:9271   */\n      swap1\n      pop\n        /* \"#utility.yul\":9281:9352   */\n      tag_178\n        /* \"#utility.yul\":9349:9350   */\n      0x00\n        /* \"#utility.yul\":9338:9347   */\n      dup4\n        /* \"#utility.yul\":9334:9351   */\n      add\n        /* \"#utility.yul\":9325:9331   */\n      dup7\n        /* \"#utility.yul\":9281:9352   */\n      tag_77\n      jump\t// in\n    tag_178:\n        /* \"#utility.yul\":9362:9434   */\n      tag_179\n        /* \"#utility.yul\":9430:9432   */\n      0x20\n        /* \"#utility.yul\":9419:9428   */\n      dup4\n        /* \"#utility.yul\":9415:9433   */\n      add\n        /* \"#utility.yul\":9406:9412   */\n      dup6\n        /* \"#utility.yul\":9362:9434   */\n      tag_77\n      jump\t// in\n    tag_179:\n        /* \"#utility.yul\":9444:9516   */\n      tag_180\n        /* \"#utility.yul\":9512:9514   */\n      0x40\n        /* \"#utility.yul\":9501:9510   */\n      dup4\n        /* \"#utility.yul\":9497:9515   */\n      add\n        /* \"#utility.yul\":9488:9494   */\n      dup5\n        /* \"#utility.yul\":9444:9516   */\n      tag_56\n      jump\t// in\n    tag_180:\n        /* \"#utility.yul\":9081:9523   */\n      swap5\n      swap4\n      pop\n      pop\n      pop\n      pop\n      jump\t// out\n\n    auxdata: 0xa26469706673582212202c8cf0843f89cbdb2ef535187a9bc4b8cceecff8167f3f68fe09bfa6d0a0f1e964736f6c634300081a0033\n}\n",
				"bytecode": {
					"linkReferences": {},
					"object": "608060405262015180600155348015610016575f80fd5b50604051610a99380380610a99833981810160405281019061003891906100db565b805f806101000a81548173ffffffffffffffffffffffffffffffffffffffff021916908373ffffffffffffffffffffffffffffffffffffffff16021790555050610106565b5f80fd5b5f73ffffffffffffffffffffffffffffffffffffffff82169050919050565b5f6100aa82610081565b9050919050565b6100ba816100a0565b81146100c4575f80fd5b50565b5f815190506100d5816100b1565b92915050565b5f602082840312156100f0576100ef61007d565b5b5f6100fd848285016100c7565b91505092915050565b610986806101135f395ff3fe608060405234801561000f575f80fd5b5060043610610055575f3560e01c80630d6680871461005957806316934fc4146100775780633ccfd60b146100a8578063a694fc3a146100b2578063fc0c546a146100ce575b5f80fd5b6100616100ec565b60405161006e91906104e3565b60405180910390f35b610091600480360381019061008c919061055a565b6100f2565b60405161009f929190610585565b60405180910390f35b6100b0610112565b005b6100cc60048036038101906100c791906105d6565b6102de565b005b6100d66104a8565b6040516100e3919061065c565b60405180910390f35b60015481565b6002602052805f5260405f205f91509050805f0154908060010154905082565b5f60025f3373ffffffffffffffffffffffffffffffffffffffff1673ffffffffffffffffffffffffffffffffffffffff1681526020019081526020015f2090505f815f015411610197576040517f08c379a000000000000000000000000000000000000000000000000000000000815260040161018e906106cf565b60405180910390fd5b60015481600101546101a9919061071a565b4210156101eb576040517f08c379a00000000000000000000000000000000000000000000000000000000081526004016101e290610797565b60405180910390fd5b5f815f0154905060025f3373ffffffffffffffffffffffffffffffffffffffff1673ffffffffffffffffffffffffffffffffffffffff1681526020019081526020015f205f8082015f9055600182015f905550505f8054906101000a900473ffffffffffffffffffffffffffffffffffffffff1673ffffffffffffffffffffffffffffffffffffffff1663a9059cbb33836040518363ffffffff1660e01b81526004016102999291906107c4565b6020604051808303815f875af11580156102b5573d5f803e3d5ffd5b505050506040513d601f19601f820116820180604052508101906102d99190610820565b505050565b5f8111610320576040517f08c379a000000000000000000000000000000000000000000000000000000000815260040161031790610895565b60405180910390fd5b5f60025f3373ffffffffffffffffffffffffffffffffffffffff1673ffffffffffffffffffffffffffffffffffffffff1681526020019081526020015f205f0154146103a1576040517f08c379a0000000000000000000000000000000000000000000000000000000008152600401610398906108fd565b60405180910390fd5b5f8054906101000a900473ffffffffffffffffffffffffffffffffffffffff1673ffffffffffffffffffffffffffffffffffffffff166323b872dd3330846040518463ffffffff1660e01b81526004016103fd9392919061091b565b6020604051808303815f875af1158015610419573d5f803e3d5ffd5b505050506040513d601f19601f8201168201806040525081019061043d9190610820565b5060405180604001604052808281526020014281525060025f3373ffffffffffffffffffffffffffffffffffffffff1673ffffffffffffffffffffffffffffffffffffffff1681526020019081526020015f205f820151815f01556020820151816001015590505050565b5f8054906101000a900473ffffffffffffffffffffffffffffffffffffffff1681565b5f819050919050565b6104dd816104cb565b82525050565b5f6020820190506104f65f8301846104d4565b92915050565b5f80fd5b5f73ffffffffffffffffffffffffffffffffffffffff82169050919050565b5f61052982610500565b9050919050565b6105398161051f565b8114610543575f80fd5b50565b5f8135905061055481610530565b92915050565b5f6020828403121561056f5761056e6104fc565b5b5f61057c84828501610546565b91505092915050565b5f6040820190506105985f8301856104d4565b6105a560208301846104d4565b9392505050565b6105b5816104cb565b81146105bf575f80fd5b50565b5f813590506105d0816105ac565b92915050565b5f602082840312156105eb576105ea6104fc565b5b5f6105f8848285016105c2565b91505092915050565b5f819050919050565b5f61062461061f61061a84610500565b610601565b610500565b9050919050565b5f6106358261060a565b9050919050565b5f6106468261062b565b9050919050565b6106568161063c565b82525050565b5f60208201905061066f5f83018461064d565b92915050565b5f82825260208201905092915050565b7f4e6f7468696e6720746f207769746864726177000000000000000000000000005f82015250565b5f6106b9601383610675565b91506106c482610685565b602082019050919050565b5f6020820190508181035f8301526106e6816106ad565b9050919050565b7f4e487b71000000000000000000000000000000000000000000000000000000005f52601160045260245ffd5b5f610724826104cb565b915061072f836104cb565b9250828201905080821115610747576107466106ed565b5b92915050565b7f5374616b65206973207374696c6c206c6f636b656400000000000000000000005f82015250565b5f610781601583610675565b915061078c8261074d565b602082019050919050565b5f6020820190508181035f8301526107ae81610775565b9050919050565b6107be8161051f565b82525050565b5f6040820190506107d75f8301856107b5565b6107e460208301846104d4565b9392505050565b5f8115159050919050565b6107ff816107eb565b8114610809575f80fd5b50565b5f8151905061081a816107f6565b92915050565b5f60208284031215610835576108346104fc565b5b5f6108428482850161080c565b91505092915050565b7f416d6f756e74206d757374206265203e203000000000000000000000000000005f82015250565b5f61087f601283610675565b915061088a8261084b565b602082019050919050565b5f6020820190508181035f8301526108ac81610873565b9050919050565b7f416c7265616479207374616b65640000000000000000000000000000000000005f82015250565b5f6108e7600e83610675565b91506108f2826108b3565b602082019050919050565b5f6020820190508181035f830152610914816108db565b9050919050565b5f60608201905061092e5f8301866107b5565b61093b60208301856107b5565b61094860408301846104d4565b94935050505056fea26469706673582212202c8cf0843f89cbdb2ef535187a9bc4b8cceecff8167f3f68fe09bfa6d0a0f1e964736f6c634300081a0033",
					"opcodes": "PUSH1 0x80 PUSH1 0x40 MSTORE PUSH3 0x15180 PUSH1 0x1 SSTORE CALLVALUE DUP1 ISZERO PUSH2 0x16 JUMPI PUSH0 DUP1 REVERT JUMPDEST POP PUSH1 0x40 MLOAD PUSH2 0xA99 CODESIZE SUB DUP1 PUSH2 0xA99 DUP4 CODECOPY DUP2 DUP2 ADD PUSH1 0x40 MSTORE DUP2 ADD SWAP1 PUSH2 0x38 SWAP2 SWAP1 PUSH2 0xDB JUMP JUMPDEST DUP1 PUSH0 DUP1 PUSH2 0x100 EXP DUP2 SLOAD DUP2 PUSH20 0xFFFFFFFFFFFFFFFFFFFFFFFFFFFFFFFFFFFFFFFF MUL NOT AND SWAP1 DUP4 PUSH20 0xFFFFFFFFFFFFFFFFFFFFFFFFFFFFFFFFFFFFFFFF AND MUL OR SWAP1 SSTORE POP POP PUSH2 0x106 JUMP JUMPDEST PUSH0 DUP1 REVERT JUMPDEST PUSH0 PUSH20 0xFFFFFFFFFFFFFFFFFFFFFFFFFFFFFFFFFFFFFFFF DUP3 AND SWAP1 POP SWAP2 SWAP1 POP JUMP JUMPDEST PUSH0 PUSH2 0xAA DUP3 PUSH2 0x81 JUMP JUMPDEST SWAP1 POP SWAP2 SWAP1 POP JUMP JUMPDEST PUSH2 0xBA DUP2 PUSH2 0xA0 JUMP JUMPDEST DUP2 EQ PUSH2 0xC4 JUMPI PUSH0 DUP1 REVERT JUMPDEST POP JUMP JUMPDEST PUSH0 DUP2 MLOAD SWAP1 POP PUSH2 0xD5 DUP2 PUSH2 0xB1 JUMP JUMPDEST SWAP3 SWAP2 POP POP JUMP JUMPDEST PUSH0 PUSH1 0x20 DUP3 DUP5 SUB SLT ISZERO PUSH2 0xF0 JUMPI PUSH2 0xEF PUSH2 0x7D JUMP JUMPDEST JUMPDEST PUSH0 PUSH2 0xFD DUP5 DUP3 DUP6 ADD PUSH2 0xC7 JUMP JUMPDEST SWAP2 POP POP SWAP3 SWAP2 POP POP JUMP JUMPDEST PUSH2 0x986 DUP1 PUSH2 0x113 PUSH0 CODECOPY PUSH0 RETURN INVALID PUSH1 0x80 PUSH1 0x40 MSTORE CALLVALUE DUP1 ISZERO PUSH2 0xF JUMPI PUSH0 DUP1 REVERT JUMPDEST POP PUSH1 0x4 CALLDATASIZE LT PUSH2 0x55 JUMPI PUSH0 CALLDATALOAD PUSH1 0xE0 SHR DUP1 PUSH4 0xD668087 EQ PUSH2 0x59 JUMPI DUP1 PUSH4 0x16934FC4 EQ PUSH2 0x77 JUMPI DUP1 PUSH4 0x3CCFD60B EQ PUSH2 0xA8 JUMPI DUP1 PUSH4 0xA694FC3A EQ PUSH2 0xB2 JUMPI DUP1 PUSH4 0xFC0C546A EQ PUSH2 0xCE JUMPI JUMPDEST PUSH0 DUP1 REVERT JUMPDEST PUSH2 0x61 PUSH2 0xEC JUMP JUMPDEST PUSH1 0x40 MLOAD PUSH2 0x6E SWAP2 SWAP1 PUSH2 0x4E3 JUMP JUMPDEST PUSH1 0x40 MLOAD DUP1 SWAP2 SUB SWAP1 RETURN JUMPDEST PUSH2 0x91 PUSH1 0x4 DUP1 CALLDATASIZE SUB DUP2 ADD SWAP1 PUSH2 0x8C SWAP2 SWAP1 PUSH2 0x55A JUMP JUMPDEST PUSH2 0xF2 JUMP JUMPDEST PUSH1 0x40 MLOAD PUSH2 0x9F SWAP3 SWAP2 SWAP1 PUSH2 0x585 JUMP JUMPDEST PUSH1 0x40 MLOAD DUP1 SWAP2 SUB SWAP1 RETURN JUMPDEST PUSH2 0xB0 PUSH2 0x112 JUMP JUMPDEST STOP JUMPDEST PUSH2 0xCC PUSH1 0x4 DUP1 CALLDATASIZE SUB DUP2 ADD SWAP1 PUSH2 0xC7 SWAP2 SWAP1 PUSH2 0x5D6 JUMP JUMPDEST PUSH2 0x2DE JUMP JUMPDEST STOP JUMPDEST PUSH2 0xD6 PUSH2 0x4A8 JUMP JUMPDEST PUSH1 0x40 MLOAD PUSH2 0xE3 SWAP2 SWAP1 PUSH2 0x65C JUMP JUMPDEST PUSH1 0x40 MLOAD DUP1 SWAP2 SUB SWAP1 RETURN JUMPDEST PUSH1 0x1 SLOAD DUP2 JUMP JUMPDEST PUSH1 0x2 PUSH1 0x20 MSTORE DUP1 PUSH0 MSTORE PUSH1 0x40 PUSH0 KECCAK256 PUSH0 SWAP2 POP SWAP1 POP DUP1 PUSH0 ADD SLOAD SWAP1 DUP1 PUSH1 0x1 ADD SLOAD SWAP1 POP DUP3 JUMP JUMPDEST PUSH0 PUSH1 0x2 PUSH0 CALLER PUSH20 0xFFFFFFFFFFFFFFFFFFFFFFFFFFFFFFFFFFFFFFFF AND PUSH20 0xFFFFFFFFFFFFFFFFFFFFFFFFFFFFFFFFFFFFFFFF AND DUP2 MSTORE PUSH1 0x20 ADD SWAP1 DUP2 MSTORE PUSH1 0x20 ADD PUSH0 KECCAK256 SWAP1 POP PUSH0 DUP2 PUSH0 ADD SLOAD GT PUSH2 0x197 JUMPI PUSH1 0x40 MLOAD PUSH32 0x8C379A000000000000000000000000000000000000000000000000000000000 DUP2 MSTORE PUSH1 0x4 ADD PUSH2 0x18E SWAP1 PUSH2 0x6CF JUMP JUMPDEST PUSH1 0x40 MLOAD DUP1 SWAP2 SUB SWAP1 REVERT JUMPDEST PUSH1 0x1 SLOAD DUP2 PUSH1 0x1 ADD SLOAD PUSH2 0x1A9 SWAP2 SWAP1 PUSH2 0x71A JUMP JUMPDEST TIMESTAMP LT ISZERO PUSH2 0x1EB JUMPI PUSH1 0x40 MLOAD PUSH32 0x8C379A000000000000000000000000000000000000000000000000000000000 DUP2 MSTORE PUSH1 0x4 ADD PUSH2 0x1E2 SWAP1 PUSH2 0x797 JUMP JUMPDEST PUSH1 0x40 MLOAD DUP1 SWAP2 SUB SWAP1 REVERT JUMPDEST PUSH0 DUP2 PUSH0 ADD SLOAD SWAP1 POP PUSH1 0x2 PUSH0 CALLER PUSH20 0xFFFFFFFFFFFFFFFFFFFFFFFFFFFFFFFFFFFFFFFF AND PUSH20 0xFFFFFFFFFFFFFFFFFFFFFFFFFFFFFFFFFFFFFFFF AND DUP2 MSTORE PUSH1 0x20 ADD SWAP1 DUP2 MSTORE PUSH1 0x20 ADD PUSH0 KECCAK256 PUSH0 DUP1 DUP3 ADD PUSH0 SWAP1 SSTORE PUSH1 0x1 DUP3 ADD PUSH0 SWAP1 SSTORE POP POP PUSH0 DUP1 SLOAD SWAP1 PUSH2 0x100 EXP SWAP1 DIV PUSH20 0xFFFFFFFFFFFFFFFFFFFFFFFFFFFFFFFFFFFFFFFF AND PUSH20 0xFFFFFFFFFFFFFFFFFFFFFFFFFFFFFFFFFFFFFFFF AND PUSH4 0xA9059CBB CALLER DUP4 PUSH1 0x40 MLOAD DUP4 PUSH4 0xFFFFFFFF AND PUSH1 0xE0 SHL DUP2 MSTORE PUSH1 0x4 ADD PUSH2 0x299 SWAP3 SWAP2 SWAP1 PUSH2 0x7C4 JUMP JUMPDEST PUSH1 0x20 PUSH1 0x40 MLOAD DUP1 DUP4 SUB DUP2 PUSH0 DUP8 GAS CALL ISZERO DUP1 ISZERO PUSH2 0x2B5 JUMPI RETURNDATASIZE PUSH0 DUP1 RETURNDATACOPY RETURNDATASIZE PUSH0 REVERT JUMPDEST POP POP POP POP PUSH1 0x40 MLOAD RETURNDATASIZE PUSH1 0x1F NOT PUSH1 0x1F DUP3 ADD AND DUP3 ADD DUP1 PUSH1 0x40 MSTORE POP DUP2 ADD SWAP1 PUSH2 0x2D9 SWAP2 SWAP1 PUSH2 0x820 JUMP JUMPDEST POP POP POP JUMP JUMPDEST PUSH0 DUP2 GT PUSH2 0x320 JUMPI PUSH1 0x40 MLOAD PUSH32 0x8C379A000000000000000000000000000000000000000000000000000000000 DUP2 MSTORE PUSH1 0x4 ADD PUSH2 0x317 SWAP1 PUSH2 0x895 JUMP JUMPDEST PUSH1 0x40 MLOAD DUP1 SWAP2 SUB SWAP1 REVERT JUMPDEST PUSH0 PUSH1 0x2 PUSH0 CALLER PUSH20 0xFFFFFFFFFFFFFFFFFFFFFFFFFFFFFFFFFFFFFFFF AND PUSH20 0xFFFFFFFFFFFFFFFFFFFFFFFFFFFFFFFFFFFFFFFF AND DUP2 MSTORE PUSH1 0x20 ADD SWAP1 DUP2 MSTORE PUSH1 0x20 ADD PUSH0 KECCAK256 PUSH0 ADD SLOAD EQ PUSH2 0x3A1 JUMPI PUSH1 0x40 MLOAD PUSH32 0x8C379A000000000000000000000000000000000000000000000000000000000 DUP2 MSTORE PUSH1 0x4 ADD PUSH2 0x398 SWAP1 PUSH2 0x8FD JUMP JUMPDEST PUSH1 0x40 MLOAD DUP1 SWAP2 SUB SWAP1 REVERT JUMPDEST PUSH0 DUP1 SLOAD SWAP1 PUSH2 0x100 EXP SWAP1 DIV PUSH20 0xFFFFFFFFFFFFFFFFFFFFFFFFFFFFFFFFFFFFFFFF AND PUSH20 0xFFFFFFFFFFFFFFFFFFFFFFFFFFFFFFFFFFFFFFFF AND PUSH4 0x23B872DD CALLER ADDRESS DUP5 PUSH1 0x40 MLOAD DUP5 PUSH4 0xFFFFFFFF AND PUSH1 0xE0 SHL DUP2 MSTORE PUSH1 0x4 ADD PUSH2 0x3FD SWAP4 SWAP3 SWAP2 SWAP1 PUSH2 0x91B JUMP JUMPDEST PUSH1 0x20 PUSH1 0x40 MLOAD DUP1 DUP4 SUB DUP2 PUSH0 DUP8 GAS CALL ISZERO DUP1 ISZERO PUSH2 0x419 JUMPI RETURNDATASIZE PUSH0 DUP1 RETURNDATACOPY RETURNDATASIZE PUSH0 REVERT JUMPDEST POP POP POP POP PUSH1 0x40 MLOAD RETURNDATASIZE PUSH1 0x1F NOT PUSH1 0x1F DUP3 ADD AND DUP3 ADD DUP1 PUSH1 0x40 MSTORE POP DUP2 ADD SWAP1 PUSH2 0x43D SWAP2 SWAP1 PUSH2 0x820 JUMP JUMPDEST POP PUSH1 0x40 MLOAD DUP1 PUSH1 0x40 ADD PUSH1 0x40 MSTORE DUP1 DUP3 DUP2 MSTORE PUSH1 0x20 ADD TIMESTAMP DUP2 MSTORE POP PUSH1 0x2 PUSH0 CALLER PUSH20 0xFFFFFFFFFFFFFFFFFFFFFFFFFFFFFFFFFFFFFFFF AND PUSH20 0xFFFFFFFFFFFFFFFFFFFFFFFFFFFFFFFFFFFFFFFF AND DUP2 MSTORE PUSH1 0x20 ADD SWAP1 DUP2 MSTORE PUSH1 0x20 ADD PUSH0 KECCAK256 PUSH0 DUP3 ADD MLOAD DUP2 PUSH0 ADD SSTORE PUSH1 0x20 DUP3 ADD MLOAD DUP2 PUSH1 0x1 ADD SSTORE SWAP1 POP POP POP JUMP JUMPDEST PUSH0 DUP1 SLOAD SWAP1 PUSH2 0x100 EXP SWAP1 DIV PUSH20 0xFFFFFFFFFFFFFFFFFFFFFFFFFFFFFFFFFFFFFFFF AND DUP2 JUMP JUMPDEST PUSH0 DUP2 SWAP1 POP SWAP2 SWAP1 POP JUMP JUMPDEST PUSH2 0x4DD DUP2 PUSH2 0x4CB JUMP JUMPDEST DUP3 MSTORE POP POP JUMP JUMPDEST PUSH0 PUSH1 0x20 DUP3 ADD SWAP1 POP PUSH2 0x4F6 PUSH0 DUP4 ADD DUP5 PUSH2 0x4D4 JUMP JUMPDEST SWAP3 SWAP2 POP POP JUMP JUMPDEST PUSH0 DUP1 REVERT JUMPDEST PUSH0 PUSH20 0xFFFFFFFFFFFFFFFFFFFFFFFFFFFFFFFFFFFFFFFF DUP3 AND SWAP1 POP SWAP2 SWAP1 POP JUMP JUMPDEST PUSH0 PUSH2 0x529 DUP3 PUSH2 0x500 JUMP JUMPDEST SWAP1 POP SWAP2 SWAP1 POP JUMP JUMPDEST PUSH2 0x539 DUP2 PUSH2 0x51F JUMP JUMPDEST DUP2 EQ PUSH2 0x543 JUMPI PUSH0 DUP1 REVERT JUMPDEST POP JUMP JUMPDEST PUSH0 DUP2 CALLDATALOAD SWAP1 POP PUSH2 0x554 DUP2 PUSH2 0x530 JUMP JUMPDEST SWAP3 SWAP2 POP POP JUMP JUMPDEST PUSH0 PUSH1 0x20 DUP3 DUP5 SUB SLT ISZERO PUSH2 0x56F JUMPI PUSH2 0x56E PUSH2 0x4FC JUMP JUMPDEST JUMPDEST PUSH0 PUSH2 0x57C DUP5 DUP3 DUP6 ADD PUSH2 0x546 JUMP JUMPDEST SWAP2 POP POP SWAP3 SWAP2 POP POP JUMP JUMPDEST PUSH0 PUSH1 0x40 DUP3 ADD SWAP1 POP PUSH2 0x598 PUSH0 DUP4 ADD DUP6 PUSH2 0x4D4 JUMP JUMPDEST PUSH2 0x5A5 PUSH1 0x20 DUP4 ADD DUP5 PUSH2 0x4D4 JUMP JUMPDEST SWAP4 SWAP3 POP POP POP JUMP JUMPDEST PUSH2 0x5B5 DUP2 PUSH2 0x4CB JUMP JUMPDEST DUP2 EQ PUSH2 0x5BF JUMPI PUSH0 DUP1 REVERT JUMPDEST POP JUMP JUMPDEST PUSH0 DUP2 CALLDATALOAD SWAP1 POP PUSH2 0x5D0 DUP2 PUSH2 0x5AC JUMP JUMPDEST SWAP3 SWAP2 POP POP JUMP JUMPDEST PUSH0 PUSH1 0x20 DUP3 DUP5 SUB SLT ISZERO PUSH2 0x5EB JUMPI PUSH2 0x5EA PUSH2 0x4FC JUMP JUMPDEST JUMPDEST PUSH0 PUSH2 0x5F8 DUP5 DUP3 DUP6 ADD PUSH2 0x5C2 JUMP JUMPDEST SWAP2 POP POP SWAP3 SWAP2 POP POP JUMP JUMPDEST PUSH0 DUP2 SWAP1 POP SWAP2 SWAP1 POP JUMP JUMPDEST PUSH0 PUSH2 0x624 PUSH2 0x61F PUSH2 0x61A DUP5 PUSH2 0x500 JUMP JUMPDEST PUSH2 0x601 JUMP JUMPDEST PUSH2 0x500 JUMP JUMPDEST SWAP1 POP SWAP2 SWAP1 POP JUMP JUMPDEST PUSH0 PUSH2 0x635 DUP3 PUSH2 0x60A JUMP JUMPDEST SWAP1 POP SWAP2 SWAP1 POP JUMP JUMPDEST PUSH0 PUSH2 0x646 DUP3 PUSH2 0x62B JUMP JUMPDEST SWAP1 POP SWAP2 SWAP1 POP JUMP JUMPDEST PUSH2 0x656 DUP2 PUSH2 0x63C JUMP JUMPDEST DUP3 MSTORE POP POP JUMP JUMPDEST PUSH0 PUSH1 0x20 DUP3 ADD SWAP1 POP PUSH2 0x66F PUSH0 DUP4 ADD DUP5 PUSH2 0x64D JUMP JUMPDEST SWAP3 SWAP2 POP POP JUMP JUMPDEST PUSH0 DUP3 DUP3 MSTORE PUSH1 0x20 DUP3 ADD SWAP1 POP SWAP3 SWAP2 POP POP JUMP JUMPDEST PUSH32 0x4E6F7468696E6720746F20776974686472617700000000000000000000000000 PUSH0 DUP3 ADD MSTORE POP JUMP JUMPDEST PUSH0 PUSH2 0x6B9 PUSH1 0x13 DUP4 PUSH2 0x675 JUMP JUMPDEST SWAP2 POP PUSH2 0x6C4 DUP3 PUSH2 0x685 JUMP JUMPDEST PUSH1 0x20 DUP3 ADD SWAP1 POP SWAP2 SWAP1 POP JUMP JUMPDEST PUSH0 PUSH1 0x20 DUP3 ADD SWAP1 POP DUP2 DUP2 SUB PUSH0 DUP4 ADD MSTORE PUSH2 0x6E6 DUP2 PUSH2 0x6AD JUMP JUMPDEST SWAP1 POP SWAP2 SWAP1 POP JUMP JUMPDEST PUSH32 0x4E487B7100000000000000000000000000000000000000000000000000000000 PUSH0 MSTORE PUSH1 0x11 PUSH1 0x4 MSTORE PUSH1 0x24 PUSH0 REVERT JUMPDEST PUSH0 PUSH2 0x724 DUP3 PUSH2 0x4CB JUMP JUMPDEST SWAP2 POP PUSH2 0x72F DUP4 PUSH2 0x4CB JUMP JUMPDEST SWAP3 POP DUP3 DUP3 ADD SWAP1 POP DUP1 DUP3 GT ISZERO PUSH2 0x747 JUMPI PUSH2 0x746 PUSH2 0x6ED JUMP JUMPDEST JUMPDEST SWAP3 SWAP2 POP POP JUMP JUMPDEST PUSH32 0x5374616B65206973207374696C6C206C6F636B65640000000000000000000000 PUSH0 DUP3 ADD MSTORE POP JUMP JUMPDEST PUSH0 PUSH2 0x781 PUSH1 0x15 DUP4 PUSH2 0x675 JUMP JUMPDEST SWAP2 POP PUSH2 0x78C DUP3 PUSH2 0x74D JUMP JUMPDEST PUSH1 0x20 DUP3 ADD SWAP1 POP SWAP2 SWAP1 POP JUMP JUMPDEST PUSH0 PUSH1 0x20 DUP3 ADD SWAP1 POP DUP2 DUP2 SUB PUSH0 DUP4 ADD MSTORE PUSH2 0x7AE DUP2 PUSH2 0x775 JUMP JUMPDEST SWAP1 POP SWAP2 SWAP1 POP JUMP JUMPDEST PUSH2 0x7BE DUP2 PUSH2 0x51F JUMP JUMPDEST DUP3 MSTORE POP POP JUMP JUMPDEST PUSH0 PUSH1 0x40 DUP3 ADD SWAP1 POP PUSH2 0x7D7 PUSH0 DUP4 ADD DUP6 PUSH2 0x7B5 JUMP JUMPDEST PUSH2 0x7E4 PUSH1 0x20 DUP4 ADD DUP5 PUSH2 0x4D4 JUMP JUMPDEST SWAP4 SWAP3 POP POP POP JUMP JUMPDEST PUSH0 DUP2 ISZERO ISZERO SWAP1 POP SWAP2 SWAP1 POP JUMP JUMPDEST PUSH2 0x7FF DUP2 PUSH2 0x7EB JUMP JUMPDEST DUP2 EQ PUSH2 0x809 JUMPI PUSH0 DUP1 REVERT JUMPDEST POP JUMP JUMPDEST PUSH0 DUP2 MLOAD SWAP1 POP PUSH2 0x81A DUP2 PUSH2 0x7F6 JUMP JUMPDEST SWAP3 SWAP2 POP POP JUMP JUMPDEST PUSH0 PUSH1 0x20 DUP3 DUP5 SUB SLT ISZERO PUSH2 0x835 JUMPI PUSH2 0x834 PUSH2 0x4FC JUMP JUMPDEST JUMPDEST PUSH0 PUSH2 0x842 DUP5 DUP3 DUP6 ADD PUSH2 0x80C JUMP JUMPDEST SWAP2 POP POP SWAP3 SWAP2 POP POP JUMP JUMPDEST PUSH32 0x416D6F756E74206D757374206265203E20300000000000000000000000000000 PUSH0 DUP3 ADD MSTORE POP JUMP JUMPDEST PUSH0 PUSH2 0x87F PUSH1 0x12 DUP4 PUSH2 0x675 JUMP JUMPDEST SWAP2 POP PUSH2 0x88A DUP3 PUSH2 0x84B JUMP JUMPDEST PUSH1 0x20 DUP3 ADD SWAP1 POP SWAP2 SWAP1 POP JUMP JUMPDEST PUSH0 PUSH1 0x20 DUP3 ADD SWAP1 POP DUP2 DUP2 SUB PUSH0 DUP4 ADD MSTORE PUSH2 0x8AC DUP2 PUSH2 0x873 JUMP JUMPDEST SWAP1 POP SWAP2 SWAP1 POP JUMP JUMPDEST PUSH32 0x416C7265616479207374616B6564000000000000000000000000000000000000 PUSH0 DUP3 ADD MSTORE POP JUMP JUMPDEST PUSH0 PUSH2 0x8E7 PUSH1 0xE DUP4 PUSH2 0x675 JUMP JUMPDEST SWAP2 POP PUSH2 0x8F2 DUP3 PUSH2 0x8B3 JUMP JUMPDEST PUSH1 0x20 DUP3 ADD SWAP1 POP SWAP2 SWAP1 POP JUMP JUMPDEST PUSH0 PUSH1 0x20 DUP3 ADD SWAP1 POP DUP2 DUP2 SUB PUSH0 DUP4 ADD MSTORE PUSH2 0x914 DUP2 PUSH2 0x8DB JUMP JUMPDEST SWAP1 POP SWAP2 SWAP1 POP JUMP JUMPDEST PUSH0 PUSH1 0x60 DUP3 ADD SWAP1 POP PUSH2 0x92E PUSH0 DUP4 ADD DUP7 PUSH2 0x7B5 JUMP JUMPDEST PUSH2 0x93B PUSH1 0x20 DUP4 ADD DUP6 PUSH2 0x7B5 JUMP JUMPDEST PUSH2 0x948 PUSH1 0x40 DUP4 ADD DUP5 PUSH2 0x4D4 JUMP JUMPDEST SWAP5 SWAP4 POP POP POP POP JUMP INVALID LOG2 PUSH5 0x6970667358 0x22 SLT KECCAK256 0x2C DUP13 CREATE DUP5 EXTCODEHASH DUP10 0xCB 0xDB 0x2E CREATE2 CALLDATALOAD XOR PUSH27 0x9BC4B8CCEECFF8167F3F68FE09BFA6D0A0F1E964736F6C63430008 BYTE STOP CALLER "
				},
				"gasEstimates": {
					"creation": {
						"codeDepositCost": "487600",
						"executionCost": "infinite",
						"totalCost": "infinite"
					},
					"external": {
						"lockTime()": "2403",
						"stake(uint256)": "infinite",
						"stakes(address)": "infinite",
						"token()": "infinite",
						"withdraw()": "infinite"
					}
				},
				"methodIdentifiers": {
					"lockTime()": "0d668087",
					"stake(uint256)": "a694fc3a",
					"stakes(address)": "16934fc4",
					"token()": "fc0c546a",
					"withdraw()": "3ccfd60b"
				}
			},
			"storageLayout": {
				"storage": [
					{
						"astId": 25,
						"contract": "contracts/staking.sol:SimpleStaking",
						"label": "token",
						"offset": 0,
						"slot": "0",
						"type": "t_contract(IERC20)22"
					},
					{
						"astId": 28,
						"contract": "contracts/staking.sol:SimpleStaking",
						"label": "lockTime",
						"offset": 0,
						"slot": "1",
						"type": "t_uint256"
					},
					{
						"astId": 38,
						"contract": "contracts/staking.sol:SimpleStaking",
						"label": "stakes",
						"offset": 0,
						"slot": "2",
						"type": "t_mapping(t_address,t_struct(StakeInfo)33_storage)"
					}
				],
				"types": {
					"t_address": {
						"encoding": "inplace",
						"label": "address",
						"numberOfBytes": "20"
					},
					"t_contract(IERC20)22": {
						"encoding": "inplace",
						"label": "contract IERC20",
						"numberOfBytes": "20"
					},
					"t_mapping(t_address,t_struct(StakeInfo)33_storage)": {
						"encoding": "mapping",
						"key": "t_address",
						"label": "mapping(address => struct SimpleStaking.StakeInfo)",
						"numberOfBytes": "32",
						"value": "t_struct(StakeInfo)33_storage"
					},
					"t_struct(StakeInfo)33_storage": {
						"encoding": "inplace",
						"label": "struct SimpleStaking.StakeInfo",
						"members": [
							{
								"astId": 30,
								"contract": "contracts/staking.sol:SimpleStaking",
								"label": "amount",
								"offset": 0,
								"slot": "0",
								"type": "t_uint256"
							},
							{
								"astId": 32,
								"contract": "contracts/staking.sol:SimpleStaking",
								"label": "timestamp",
								"offset": 0,
								"slot": "1",
								"type": "t_uint256"
							}
						],
						"numberOfBytes": "64"
					},
					"t_uint256": {
						"encoding": "inplace",
						"label": "uint256",
						"numberOfBytes": "32"
					}
				}
			},
			"userdoc": {
				"kind": "user",
				"methods": {},
				"version": 1
			}
		}
	}
}