{
	"contracts/s1.sol": {
		"SimpleStaking": {
			"abi": [
				{
					"inputs": [
						{
							"internalType": "address",
							"name": "_token",
							"type": "address"
						},
						{
							"internalType": "address",
							"name": "_token1",
							"type": "address"
						}
					],
					"stateMutability": "nonpayable",
					"type": "constructor"
				},
				{
					"inputs": [],
					"name": "lockTime",
					"outputs": [
						{
							"internalType": "uint256",
							"name": "",
							"type": "uint256"
						}
					],
					"stateMutability": "view",
					"type": "function"
				},
				{
					"inputs": [
						{
							"internalType": "uint256",
							"name": "_n",
							"type": "uint256"
						}
					],
					"name": "pool",
					"outputs": [],
					"stateMutability": "nonpayable",
					"type": "function"
				},
				{
					"inputs": [
						{
							"internalType": "address",
							"name": "",
							"type": "address"
						}
					],
					"name": "pools",
					"outputs": [
						{
							"internalType": "uint256",
							"name": "_n",
							"type": "uint256"
						},
						{
							"internalType": "address",
							"name": "addr",
							"type": "address"
						}
					],
					"stateMutability": "view",
					"type": "function"
				},
				{
					"inputs": [
						{
							"internalType": "uint256",
							"name": "_amount",
							"type": "uint256"
						}
					],
					"name": "stake",
					"outputs": [],
					"stateMutability": "nonpayable",
					"type": "function"
				},
				{
					"inputs": [
						{
							"internalType": "address",
							"name": "",
							"type": "address"
						}
					],
					"name": "stakes",
					"outputs": [
						{
							"internalType": "uint256",
							"name": "amount",
							"type": "uint256"
						},
						{
							"internalType": "uint256",
							"name": "timestamp",
							"type": "uint256"
						}
					],
					"stateMutability": "view",
					"type": "function"
				},
				{
					"inputs": [],
					"name": "token",
					"outputs": [
						{
							"internalType": "contract IERC20",
							"name": "",
							"type": "address"
						}
					],
					"stateMutability": "view",
					"type": "function"
				},
				{
					"inputs": [],
					"name": "token1",
					"outputs": [
						{
							"internalType": "contract IERC20",
							"name": "",
							"type": "address"
						}
					],
					"stateMutability": "view",
					"type": "function"
				},
				{
					"inputs": [
						{
							"internalType": "uint256",
							"name": "_amount",
							"type": "uint256"
						}
					],
					"name": "withdraw",
					"outputs": [],
					"stateMutability": "nonpayable",
					"type": "function"
				}
			],
			"devdoc": {
				"kind": "dev",
				"methods": {},
				"version": 1
			},
			"evm": {
				"assembly": "    /* \"contracts/s1.sol\":350:1954  contract SimpleStaking {... */\n  mstore(0x40, 0x80)\n    /* \"contracts/s1.sol\":459:465  1 days */\n  0x015180\n    /* \"contracts/s1.sol\":433:465  uint256 public lockTime = 1 days */\n  0x02\n  sstore\n    /* \"contracts/s1.sol\":686:805  constructor(address _token, address _token1) {... */\n  callvalue\n  dup1\n  iszero\n  tag_1\n  jumpi\n  0x00\n  dup1\n  revert\ntag_1:\n  pop\n  mload(0x40)\n  sub(codesize, bytecodeSize)\n  dup1\n  bytecodeSize\n  dup4\n  codecopy\n  dup2\n  dup2\n  add\n  0x40\n  mstore\n  dup2\n  add\n  swap1\n  tag_2\n  swap2\n  swap1\n  tag_3\n  jump\t// in\ntag_2:\n    /* \"contracts/s1.sol\":757:763  _token */\n  dup2\n    /* \"contracts/s1.sol\":742:747  token */\n  0x00\n  dup1\n    /* \"contracts/s1.sol\":742:764  token = IERC20(_token) */\n  0x0100\n  exp\n  dup2\n  sload\n  dup2\n  0xffffffffffffffffffffffffffffffffffffffff\n  mul\n  not\n  and\n  swap1\n  dup4\n  0xffffffffffffffffffffffffffffffffffffffff\n  and\n  mul\n  or\n  swap1\n  sstore\n  pop\n    /* \"contracts/s1.sol\":789:796  _token1 */\n  dup1\n    /* \"contracts/s1.sol\":775:781  token1 */\n  0x01\n  0x00\n    /* \"contracts/s1.sol\":775:797  token1=IERC20(_token1) */\n  0x0100\n  exp\n  dup2\n  sload\n  dup2\n  0xffffffffffffffffffffffffffffffffffffffff\n  mul\n  not\n  and\n  swap1\n  dup4\n  0xffffffffffffffffffffffffffffffffffffffff\n  and\n  mul\n  or\n  swap1\n  sstore\n  pop\n    /* \"contracts/s1.sol\":686:805  constructor(address _token, address _token1) {... */\n  pop\n  pop\n    /* \"contracts/s1.sol\":350:1954  contract SimpleStaking {... */\n  jump(tag_6)\n    /* \"#utility.yul\":88:205   */\ntag_8:\n    /* \"#utility.yul\":197:198   */\n  0x00\n    /* \"#utility.yul\":194:195   */\n  dup1\n    /* \"#utility.yul\":187:199   */\n  revert\n    /* \"#utility.yul\":334:460   */\ntag_10:\n    /* \"#utility.yul\":371:378   */\n  0x00\n    /* \"#utility.yul\":411:453   */\n  0xffffffffffffffffffffffffffffffffffffffff\n    /* \"#utility.yul\":404:409   */\n  dup3\n    /* \"#utility.yul\":400:454   */\n  and\n    /* \"#utility.yul\":389:454   */\n  swap1\n  pop\n    /* \"#utility.yul\":334:460   */\n  swap2\n  swap1\n  pop\n  jump\t// out\n    /* \"#utility.yul\":466:562   */\ntag_11:\n    /* \"#utility.yul\":503:510   */\n  0x00\n    /* \"#utility.yul\":532:556   */\n  tag_20\n    /* \"#utility.yul\":550:555   */\n  dup3\n    /* \"#utility.yul\":532:556   */\n  tag_10\n  jump\t// in\ntag_20:\n    /* \"#utility.yul\":521:556   */\n  swap1\n  pop\n    /* \"#utility.yul\":466:562   */\n  swap2\n  swap1\n  pop\n  jump\t// out\n    /* \"#utility.yul\":568:690   */\ntag_12:\n    /* \"#utility.yul\":641:665   */\n  tag_22\n    /* \"#utility.yul\":659:664   */\n  dup2\n    /* \"#utility.yul\":641:665   */\n  tag_11\n  jump\t// in\ntag_22:\n    /* \"#utility.yul\":634:639   */\n  dup2\n    /* \"#utility.yul\":631:666   */\n  eq\n    /* \"#utility.yul\":621:684   */\n  tag_23\n  jumpi\n    /* \"#utility.yul\":680:681   */\n  0x00\n    /* \"#utility.yul\":677:678   */\n  dup1\n    /* \"#utility.yul\":670:682   */\n  revert\n    /* \"#utility.yul\":621:684   */\ntag_23:\n    /* \"#utility.yul\":568:690   */\n  pop\n  jump\t// out\n    /* \"#utility.yul\":696:839   */\ntag_13:\n    /* \"#utility.yul\":753:758   */\n  0x00\n    /* \"#utility.yul\":784:790   */\n  dup2\n    /* \"#utility.yul\":778:791   */\n  mload\n    /* \"#utility.yul\":769:791   */\n  swap1\n  pop\n    /* \"#utility.yul\":800:833   */\n  tag_25\n    /* \"#utility.yul\":827:832   */\n  dup2\n    /* \"#utility.yul\":800:833   */\n  tag_12\n  jump\t// in\ntag_25:\n    /* \"#utility.yul\":696:839   */\n  swap3\n  swap2\n  pop\n  pop\n  jump\t// out\n    /* \"#utility.yul\":845:1352   */\ntag_3:\n    /* \"#utility.yul\":924:930   */\n  0x00\n    /* \"#utility.yul\":932:938   */\n  dup1\n    /* \"#utility.yul\":981:983   */\n  0x40\n    /* \"#utility.yul\":969:978   */\n  dup4\n    /* \"#utility.yul\":960:967   */\n  dup6\n    /* \"#utility.yul\":956:979   */\n  sub\n    /* \"#utility.yul\":952:984   */\n  slt\n    /* \"#utility.yul\":949:1068   */\n  iszero\n  tag_27\n  jumpi\n    /* \"#utility.yul\":987:1066   */\n  tag_28\n  tag_8\n  jump\t// in\ntag_28:\n    /* \"#utility.yul\":949:1068   */\ntag_27:\n    /* \"#utility.yul\":1107:1108   */\n  0x00\n    /* \"#utility.yul\":1132:1196   */\n  tag_29\n    /* \"#utility.yul\":1188:1195   */\n  dup6\n    /* \"#utility.yul\":1179:1185   */\n  dup3\n    /* \"#utility.yul\":1168:1177   */\n  dup7\n    /* \"#utility.yul\":1164:1186   */\n  add\n    /* \"#utility.yul\":1132:1196   */\n  tag_13\n  jump\t// in\ntag_29:\n    /* \"#utility.yul\":1122:1196   */\n  swap3\n  pop\n    /* \"#utility.yul\":1078:1206   */\n  pop\n    /* \"#utility.yul\":1245:1247   */\n  0x20\n    /* \"#utility.yul\":1271:1335   */\n  tag_30\n    /* \"#utility.yul\":1327:1334   */\n  dup6\n    /* \"#utility.yul\":1318:1324   */\n  dup3\n    /* \"#utility.yul\":1307:1316   */\n  dup7\n    /* \"#utility.yul\":1303:1325   */\n  add\n    /* \"#utility.yul\":1271:1335   */\n  tag_13\n  jump\t// in\ntag_30:\n    /* \"#utility.yul\":1261:1335   */\n  swap2\n  pop\n    /* \"#utility.yul\":1216:1345   */\n  pop\n    /* \"#utility.yul\":845:1352   */\n  swap3\n  pop\n  swap3\n  swap1\n  pop\n  jump\t// out\n    /* \"contracts/s1.sol\":350:1954  contract SimpleStaking {... */\ntag_6:\n  dataSize(sub_0)\n  dup1\n  dataOffset(sub_0)\n  0x00\n  codecopy\n  0x00\n  return\nstop\n\nsub_0: assembly {\n        /* \"contracts/s1.sol\":350:1954  contract SimpleStaking {... */\n      mstore(0x40, 0x80)\n      callvalue\n      dup1\n      iszero\n      tag_1\n      jumpi\n      0x00\n      dup1\n      revert\n    tag_1:\n      pop\n      jumpi(tag_2, lt(calldatasize, 0x04))\n      shr(0xe0, calldataload(0x00))\n      dup1\n      0xa694fc3a\n      gt\n      tag_11\n      jumpi\n      dup1\n      0xa694fc3a\n      eq\n      tag_7\n      jumpi\n      dup1\n      0xd21220a7\n      eq\n      tag_8\n      jumpi\n      dup1\n      0xfc0c546a\n      eq\n      tag_9\n      jumpi\n      dup1\n      0xfe313112\n      eq\n      tag_10\n      jumpi\n      jump(tag_2)\n    tag_11:\n      dup1\n      0x0d668087\n      eq\n      tag_3\n      jumpi\n      dup1\n      0x16934fc4\n      eq\n      tag_4\n      jumpi\n      dup1\n      0x2e1a7d4d\n      eq\n      tag_5\n      jumpi\n      dup1\n      0xa4063dbc\n      eq\n      tag_6\n      jumpi\n    tag_2:\n      0x00\n      dup1\n      revert\n        /* \"contracts/s1.sol\":433:465  uint256 public lockTime = 1 days */\n    tag_3:\n      tag_12\n      tag_13\n      jump\t// in\n    tag_12:\n      mload(0x40)\n      tag_14\n      swap2\n      swap1\n      tag_15\n      jump\t// in\n    tag_14:\n      mload(0x40)\n      dup1\n      swap2\n      sub\n      swap1\n      return\n        /* \"contracts/s1.sol\":636:679  mapping(address => StakeInfo) public stakes */\n    tag_4:\n      tag_16\n      0x04\n      dup1\n      calldatasize\n      sub\n      dup2\n      add\n      swap1\n      tag_17\n      swap2\n      swap1\n      tag_18\n      jump\t// in\n    tag_17:\n      tag_19\n      jump\t// in\n    tag_16:\n      mload(0x40)\n      tag_20\n      swap3\n      swap2\n      swap1\n      tag_21\n      jump\t// in\n    tag_20:\n      mload(0x40)\n      dup1\n      swap2\n      sub\n      swap1\n      return\n        /* \"contracts/s1.sol\":1246:1622  function withdraw(uint _amount) external {... */\n    tag_5:\n      tag_22\n      0x04\n      dup1\n      calldatasize\n      sub\n      dup2\n      add\n      swap1\n      tag_23\n      swap2\n      swap1\n      tag_24\n      jump\t// in\n    tag_23:\n      tag_25\n      jump\t// in\n    tag_22:\n      stop\n        /* \"contracts/s1.sol\":1628:1665  mapping(address => Pool) public pools */\n    tag_6:\n      tag_26\n      0x04\n      dup1\n      calldatasize\n      sub\n      dup2\n      add\n      swap1\n      tag_27\n      swap2\n      swap1\n      tag_18\n      jump\t// in\n    tag_27:\n      tag_28\n      jump\t// in\n    tag_26:\n      mload(0x40)\n      tag_29\n      swap3\n      swap2\n      swap1\n      tag_30\n      jump\t// in\n    tag_29:\n      mload(0x40)\n      dup1\n      swap2\n      sub\n      swap1\n      return\n        /* \"contracts/s1.sol\":813:1238  function stake(uint256 _amount) external {... */\n    tag_7:\n      tag_31\n      0x04\n      dup1\n      calldatasize\n      sub\n      dup2\n      add\n      swap1\n      tag_32\n      swap2\n      swap1\n      tag_24\n      jump\t// in\n    tag_32:\n      tag_33\n      jump\t// in\n    tag_31:\n      stop\n        /* \"contracts/s1.sol\":406:426  IERC20 public token1 */\n    tag_8:\n      tag_34\n      tag_35\n      jump\t// in\n    tag_34:\n      mload(0x40)\n      tag_36\n      swap2\n      swap1\n      tag_37\n      jump\t// in\n    tag_36:\n      mload(0x40)\n      dup1\n      swap2\n      sub\n      swap1\n      return\n        /* \"contracts/s1.sol\":380:399  IERC20 public token */\n    tag_9:\n      tag_38\n      tag_39\n      jump\t// in\n    tag_38:\n      mload(0x40)\n      tag_40\n      swap2\n      swap1\n      tag_37\n      jump\t// in\n    tag_40:\n      mload(0x40)\n      dup1\n      swap2\n      sub\n      swap1\n      return\n        /* \"contracts/s1.sol\":1674:1939  function pool(uint _n) public {... */\n    tag_10:\n      tag_41\n      0x04\n      dup1\n      calldatasize\n      sub\n      dup2\n      add\n      swap1\n      tag_42\n      swap2\n      swap1\n      tag_24\n      jump\t// in\n    tag_42:\n      tag_43\n      jump\t// in\n    tag_41:\n      stop\n        /* \"contracts/s1.sol\":433:465  uint256 public lockTime = 1 days */\n    tag_13:\n      sload(0x02)\n      dup2\n      jump\t// out\n        /* \"contracts/s1.sol\":636:679  mapping(address => StakeInfo) public stakes */\n    tag_19:\n      mstore(0x20, 0x03)\n      dup1\n      0x00\n      mstore\n      keccak256(0x00, 0x40)\n      0x00\n      swap2\n      pop\n      swap1\n      pop\n      dup1\n      0x00\n      add\n      sload\n      swap1\n      dup1\n      0x01\n      add\n      sload\n      swap1\n      pop\n      dup3\n      jump\t// out\n        /* \"contracts/s1.sol\":1246:1622  function withdraw(uint _amount) external {... */\n    tag_25:\n        /* \"contracts/s1.sol\":1308:1335  StakeInfo storage userStake */\n      0x00\n        /* \"contracts/s1.sol\":1338:1344  stakes */\n      0x03\n        /* \"contracts/s1.sol\":1338:1356  stakes[msg.sender] */\n      0x00\n        /* \"contracts/s1.sol\":1345:1355  msg.sender */\n      caller\n        /* \"contracts/s1.sol\":1338:1356  stakes[msg.sender] */\n      0xffffffffffffffffffffffffffffffffffffffff\n      and\n      0xffffffffffffffffffffffffffffffffffffffff\n      and\n      dup2\n      mstore\n      0x20\n      add\n      swap1\n      dup2\n      mstore\n      0x20\n      add\n      0x00\n      keccak256\n        /* \"contracts/s1.sol\":1308:1356  StakeInfo storage userStake = stakes[msg.sender] */\n      swap1\n      pop\n        /* \"contracts/s1.sol\":1388:1391  100 */\n      0x64\n        /* \"contracts/s1.sol\":1377:1384  _amount */\n      dup3\n        /* \"contracts/s1.sol\":1377:1391  _amount <= 100 */\n      gt\n      iszero\n        /* \"contracts/s1.sol\":1369:1392  require(_amount <= 100) */\n      tag_45\n      jumpi\n      0x00\n      dup1\n      revert\n    tag_45:\n        /* \"contracts/s1.sol\":1452:1460  lockTime */\n      sload(0x02)\n        /* \"contracts/s1.sol\":1430:1439  userStake */\n      dup2\n        /* \"contracts/s1.sol\":1430:1449  userStake.timestamp */\n      0x01\n      add\n      sload\n        /* \"contracts/s1.sol\":1430:1460  userStake.timestamp + lockTime */\n      tag_46\n      swap2\n      swap1\n      tag_47\n      jump\t// in\n    tag_46:\n        /* \"contracts/s1.sol\":1411:1426  block.timestamp */\n      timestamp\n        /* \"contracts/s1.sol\":1411:1460  block.timestamp >= userStake.timestamp + lockTime */\n      lt\n      iszero\n        /* \"contracts/s1.sol\":1403:1486  require(block.timestamp >= userStake.timestamp + lockTime, \"Stake is still locked\") */\n      tag_48\n      jumpi\n      mload(0x40)\n      0x08c379a000000000000000000000000000000000000000000000000000000000\n      dup2\n      mstore\n      0x04\n      add\n      tag_49\n      swap1\n      tag_50\n      jump\t// in\n    tag_49:\n      mload(0x40)\n      dup1\n      swap2\n      sub\n      swap1\n      revert\n    tag_48:\n        /* \"contracts/s1.sol\":1499:1513  uint256 amount */\n      0x00\n        /* \"contracts/s1.sol\":1516:1523  _amount */\n      dup3\n        /* \"contracts/s1.sol\":1499:1523  uint256 amount = _amount */\n      swap1\n      pop\n        /* \"contracts/s1.sol\":1541:1547  stakes */\n      0x03\n        /* \"contracts/s1.sol\":1541:1559  stakes[msg.sender] */\n      0x00\n        /* \"contracts/s1.sol\":1548:1558  msg.sender */\n      caller\n        /* \"contracts/s1.sol\":1541:1559  stakes[msg.sender] */\n      0xffffffffffffffffffffffffffffffffffffffff\n      and\n      0xffffffffffffffffffffffffffffffffffffffff\n      and\n      dup2\n      mstore\n      0x20\n      add\n      swap1\n      dup2\n      mstore\n      0x20\n      add\n      0x00\n      keccak256\n      0x00\n        /* \"contracts/s1.sol\":1534:1559  delete stakes[msg.sender] */\n      dup1\n      dup3\n      add\n      0x00\n      swap1\n      sstore\n      0x01\n      dup3\n      add\n      0x00\n      swap1\n      sstore\n      pop\n      pop\n        /* \"contracts/s1.sol\":1570:1575  token */\n      0x00\n      dup1\n      sload\n      swap1\n      0x0100\n      exp\n      swap1\n      div\n      0xffffffffffffffffffffffffffffffffffffffff\n      and\n        /* \"contracts/s1.sol\":1570:1584  token.transfer */\n      0xffffffffffffffffffffffffffffffffffffffff\n      and\n      0xa9059cbb\n        /* \"contracts/s1.sol\":1585:1595  msg.sender */\n      caller\n        /* \"contracts/s1.sol\":1597:1603  amount */\n      dup4\n        /* \"contracts/s1.sol\":1570:1604  token.transfer(msg.sender, amount) */\n      mload(0x40)\n      dup4\n      0xffffffff\n      and\n      0xe0\n      shl\n      dup2\n      mstore\n      0x04\n      add\n      tag_51\n      swap3\n      swap2\n      swap1\n      tag_52\n      jump\t// in\n    tag_51:\n      0x20\n      mload(0x40)\n      dup1\n      dup4\n      sub\n      dup2\n      0x00\n      dup8\n      gas\n      call\n      iszero\n      dup1\n      iszero\n      tag_54\n      jumpi\n      returndatasize\n      0x00\n      dup1\n      returndatacopy\n      revert(0x00, returndatasize)\n    tag_54:\n      pop\n      pop\n      pop\n      pop\n      mload(0x40)\n      returndatasize\n      not(0x1f)\n      0x1f\n      dup3\n      add\n      and\n      dup3\n      add\n      dup1\n      0x40\n      mstore\n      pop\n      dup2\n      add\n      swap1\n      tag_55\n      swap2\n      swap1\n      tag_56\n      jump\t// in\n    tag_55:\n      pop\n        /* \"contracts/s1.sol\":1287:1622  {... */\n      pop\n      pop\n        /* \"contracts/s1.sol\":1246:1622  function withdraw(uint _amount) external {... */\n      pop\n      jump\t// out\n        /* \"contracts/s1.sol\":1628:1665  mapping(address => Pool) public pools */\n    tag_28:\n      mstore(0x20, 0x04)\n      dup1\n      0x00\n      mstore\n      keccak256(0x00, 0x40)\n      0x00\n      swap2\n      pop\n      swap1\n      pop\n      dup1\n      0x00\n      add\n      sload\n      swap1\n      dup1\n      0x01\n      add\n      0x00\n      swap1\n      sload\n      swap1\n      0x0100\n      exp\n      swap1\n      div\n      0xffffffffffffffffffffffffffffffffffffffff\n      and\n      swap1\n      pop\n      dup3\n      jump\t// out\n        /* \"contracts/s1.sol\":813:1238  function stake(uint256 _amount) external {... */\n    tag_33:\n        /* \"contracts/s1.sol\":884:886  10 */\n      0x0a\n        /* \"contracts/s1.sol\":873:880  _amount */\n      dup2\n        /* \"contracts/s1.sol\":873:886  _amount >= 10 */\n      lt\n      iszero\n        /* \"contracts/s1.sol\":865:909  require(_amount >= 10,\"Amount must be > 10\") */\n      tag_58\n      jumpi\n      mload(0x40)\n      0x08c379a000000000000000000000000000000000000000000000000000000000\n      dup2\n      mstore\n      0x04\n      add\n      tag_59\n      swap1\n      tag_60\n      jump\t// in\n    tag_59:\n      mload(0x40)\n      dup1\n      swap2\n      sub\n      swap1\n      revert\n    tag_58:\n        /* \"contracts/s1.sol\":939:942  100 */\n      0x64\n        /* \"contracts/s1.sol\":928:935  _amount */\n      dup2\n        /* \"contracts/s1.sol\":928:942  _amount <= 100 */\n      gt\n      iszero\n        /* \"contracts/s1.sol\":920:968  require(_amount <= 100,\"Amount must be <= 100\" ) */\n      tag_61\n      jumpi\n      mload(0x40)\n      0x08c379a000000000000000000000000000000000000000000000000000000000\n      dup2\n      mstore\n      0x04\n      add\n      tag_62\n      swap1\n      tag_63\n      jump\t// in\n    tag_62:\n      mload(0x40)\n      dup1\n      swap2\n      sub\n      swap1\n      revert\n    tag_61:\n        /* \"contracts/s1.sol\":1016:1017  0 */\n      0x00\n        /* \"contracts/s1.sol\":987:993  stakes */\n      0x03\n        /* \"contracts/s1.sol\":987:1005  stakes[msg.sender] */\n      0x00\n        /* \"contracts/s1.sol\":994:1004  msg.sender */\n      caller\n        /* \"contracts/s1.sol\":987:1005  stakes[msg.sender] */\n      0xffffffffffffffffffffffffffffffffffffffff\n      and\n      0xffffffffffffffffffffffffffffffffffffffff\n      and\n      dup2\n      mstore\n      0x20\n      add\n      swap1\n      dup2\n      mstore\n      0x20\n      add\n      0x00\n      keccak256\n        /* \"contracts/s1.sol\":987:1012  stakes[msg.sender].amount */\n      0x00\n      add\n      sload\n        /* \"contracts/s1.sol\":987:1017  stakes[msg.sender].amount == 0 */\n      eq\n        /* \"contracts/s1.sol\":979:1036  require(stakes[msg.sender].amount == 0, \"Already staked\") */\n      tag_64\n      jumpi\n      mload(0x40)\n      0x08c379a000000000000000000000000000000000000000000000000000000000\n      dup2\n      mstore\n      0x04\n      add\n      tag_65\n      swap1\n      tag_66\n      jump\t// in\n    tag_65:\n      mload(0x40)\n      dup1\n      swap2\n      sub\n      swap1\n      revert\n    tag_64:\n        /* \"contracts/s1.sol\":1049:1054  token */\n      0x00\n      dup1\n      sload\n      swap1\n      0x0100\n      exp\n      swap1\n      div\n      0xffffffffffffffffffffffffffffffffffffffff\n      and\n        /* \"contracts/s1.sol\":1049:1067  token.transferFrom */\n      0xffffffffffffffffffffffffffffffffffffffff\n      and\n      0x23b872dd\n        /* \"contracts/s1.sol\":1068:1078  msg.sender */\n      caller\n        /* \"contracts/s1.sol\":1088:1092  this */\n      address\n        /* \"contracts/s1.sol\":1095:1102  _amount */\n      dup5\n        /* \"contracts/s1.sol\":1049:1103  token.transferFrom(msg.sender, address(this), _amount) */\n      mload(0x40)\n      dup5\n      0xffffffff\n      and\n      0xe0\n      shl\n      dup2\n      mstore\n      0x04\n      add\n      tag_67\n      swap4\n      swap3\n      swap2\n      swap1\n      tag_68\n      jump\t// in\n    tag_67:\n      0x20\n      mload(0x40)\n      dup1\n      dup4\n      sub\n      dup2\n      0x00\n      dup8\n      gas\n      call\n      iszero\n      dup1\n      iszero\n      tag_70\n      jumpi\n      returndatasize\n      0x00\n      dup1\n      returndatacopy\n      revert(0x00, returndatasize)\n    tag_70:\n      pop\n      pop\n      pop\n      pop\n      mload(0x40)\n      returndatasize\n      not(0x1f)\n      0x1f\n      dup3\n      add\n      and\n      dup3\n      add\n      dup1\n      0x40\n      mstore\n      pop\n      dup2\n      add\n      swap1\n      tag_71\n      swap2\n      swap1\n      tag_56\n      jump\t// in\n    tag_71:\n      pop\n        /* \"contracts/s1.sol\":1137:1230  StakeInfo({... */\n      mload(0x40)\n      dup1\n      0x40\n      add\n      0x40\n      mstore\n      dup1\n        /* \"contracts/s1.sol\":1170:1177  _amount */\n      dup3\n        /* \"contracts/s1.sol\":1137:1230  StakeInfo({... */\n      dup2\n      mstore\n      0x20\n      add\n        /* \"contracts/s1.sol\":1203:1218  block.timestamp */\n      timestamp\n        /* \"contracts/s1.sol\":1137:1230  StakeInfo({... */\n      dup2\n      mstore\n      pop\n        /* \"contracts/s1.sol\":1116:1122  stakes */\n      0x03\n        /* \"contracts/s1.sol\":1116:1134  stakes[msg.sender] */\n      0x00\n        /* \"contracts/s1.sol\":1123:1133  msg.sender */\n      caller\n        /* \"contracts/s1.sol\":1116:1134  stakes[msg.sender] */\n      0xffffffffffffffffffffffffffffffffffffffff\n      and\n      0xffffffffffffffffffffffffffffffffffffffff\n      and\n      dup2\n      mstore\n      0x20\n      add\n      swap1\n      dup2\n      mstore\n      0x20\n      add\n      0x00\n      keccak256\n        /* \"contracts/s1.sol\":1116:1230  stakes[msg.sender] = StakeInfo({... */\n      0x00\n      dup3\n      add\n      mload\n      dup2\n      0x00\n      add\n      sstore\n      0x20\n      dup3\n      add\n      mload\n      dup2\n      0x01\n      add\n      sstore\n      swap1\n      pop\n      pop\n        /* \"contracts/s1.sol\":813:1238  function stake(uint256 _amount) external {... */\n      pop\n      jump\t// out\n        /* \"contracts/s1.sol\":406:426  IERC20 public token1 */\n    tag_35:\n      0x01\n      0x00\n      swap1\n      sload\n      swap1\n      0x0100\n      exp\n      swap1\n      div\n      0xffffffffffffffffffffffffffffffffffffffff\n      and\n      dup2\n      jump\t// out\n        /* \"contracts/s1.sol\":380:399  IERC20 public token */\n    tag_39:\n      0x00\n      dup1\n      sload\n      swap1\n      0x0100\n      exp\n      swap1\n      div\n      0xffffffffffffffffffffffffffffffffffffffff\n      and\n      dup2\n      jump\t// out\n        /* \"contracts/s1.sol\":1674:1939  function pool(uint _n) public {... */\n    tag_43:\n        /* \"contracts/s1.sol\":1729:1731  10 */\n      0x0a\n        /* \"contracts/s1.sol\":1723:1725  _n */\n      dup2\n        /* \"contracts/s1.sol\":1723:1731  _n >= 10 */\n      lt\n      iszero\n        /* \"contracts/s1.sol\":1715:1754  require(_n >= 10,\"Amount must be > 10\") */\n      tag_73\n      jumpi\n      mload(0x40)\n      0x08c379a000000000000000000000000000000000000000000000000000000000\n      dup2\n      mstore\n      0x04\n      add\n      tag_74\n      swap1\n      tag_60\n      jump\t// in\n    tag_74:\n      mload(0x40)\n      dup1\n      swap2\n      sub\n      swap1\n      revert\n    tag_73:\n        /* \"contracts/s1.sol\":1779:1782  100 */\n      0x64\n        /* \"contracts/s1.sol\":1773:1775  _n */\n      dup2\n        /* \"contracts/s1.sol\":1773:1782  _n <= 100 */\n      gt\n      iszero\n        /* \"contracts/s1.sol\":1765:1808  require(_n <= 100,\"Amount must be <= 100\" ) */\n      tag_75\n      jumpi\n      mload(0x40)\n      0x08c379a000000000000000000000000000000000000000000000000000000000\n      dup2\n      mstore\n      0x04\n      add\n      tag_76\n      swap1\n      tag_63\n      jump\t// in\n    tag_76:\n      mload(0x40)\n      dup1\n      swap2\n      sub\n      swap1\n      revert\n    tag_75:\n        /* \"contracts/s1.sol\":1819:1824  token */\n      0x00\n      dup1\n      sload\n      swap1\n      0x0100\n      exp\n      swap1\n      div\n      0xffffffffffffffffffffffffffffffffffffffff\n      and\n        /* \"contracts/s1.sol\":1819:1837  token.transferFrom */\n      0xffffffffffffffffffffffffffffffffffffffff\n      and\n      0x23b872dd\n        /* \"contracts/s1.sol\":1838:1848  msg.sender */\n      caller\n        /* \"contracts/s1.sol\":1858:1862  this */\n      address\n        /* \"contracts/s1.sol\":1865:1867  _n */\n      dup5\n        /* \"contracts/s1.sol\":1819:1868  token.transferFrom(msg.sender, address(this), _n) */\n      mload(0x40)\n      dup5\n      0xffffffff\n      and\n      0xe0\n      shl\n      dup2\n      mstore\n      0x04\n      add\n      tag_77\n      swap4\n      swap3\n      swap2\n      swap1\n      tag_68\n      jump\t// in\n    tag_77:\n      0x20\n      mload(0x40)\n      dup1\n      dup4\n      sub\n      dup2\n      0x00\n      dup8\n      gas\n      call\n      iszero\n      dup1\n      iszero\n      tag_79\n      jumpi\n      returndatasize\n      0x00\n      dup1\n      returndatacopy\n      revert(0x00, returndatasize)\n    tag_79:\n      pop\n      pop\n      pop\n      pop\n      mload(0x40)\n      returndatasize\n      not(0x1f)\n      0x1f\n      dup3\n      add\n      and\n      dup3\n      add\n      dup1\n      0x40\n      mstore\n      pop\n      dup2\n      add\n      swap1\n      tag_80\n      swap2\n      swap1\n      tag_56\n      jump\t// in\n    tag_80:\n      pop\n        /* \"contracts/s1.sol\":1879:1885  token1 */\n      0x01\n      0x00\n      swap1\n      sload\n      swap1\n      0x0100\n      exp\n      swap1\n      div\n      0xffffffffffffffffffffffffffffffffffffffff\n      and\n        /* \"contracts/s1.sol\":1879:1898  token1.transferFrom */\n      0xffffffffffffffffffffffffffffffffffffffff\n      and\n      0x23b872dd\n        /* \"contracts/s1.sol\":1899:1909  msg.sender */\n      caller\n        /* \"contracts/s1.sol\":1919:1923  this */\n      address\n        /* \"contracts/s1.sol\":1926:1928  _n */\n      dup5\n        /* \"contracts/s1.sol\":1879:1929  token1.transferFrom(msg.sender, address(this), _n) */\n      mload(0x40)\n      dup5\n      0xffffffff\n      and\n      0xe0\n      shl\n      dup2\n      mstore\n      0x04\n      add\n      tag_81\n      swap4\n      swap3\n      swap2\n      swap1\n      tag_68\n      jump\t// in\n    tag_81:\n      0x20\n      mload(0x40)\n      dup1\n      dup4\n      sub\n      dup2\n      0x00\n      dup8\n      gas\n      call\n      iszero\n      dup1\n      iszero\n      tag_83\n      jumpi\n      returndatasize\n      0x00\n      dup1\n      returndatacopy\n      revert(0x00, returndatasize)\n    tag_83:\n      pop\n      pop\n      pop\n      pop\n      mload(0x40)\n      returndatasize\n      not(0x1f)\n      0x1f\n      dup3\n      add\n      and\n      dup3\n      add\n      dup1\n      0x40\n      mstore\n      pop\n      dup2\n      add\n      swap1\n      tag_84\n      swap2\n      swap1\n      tag_56\n      jump\t// in\n    tag_84:\n      pop\n        /* \"contracts/s1.sol\":1674:1939  function pool(uint _n) public {... */\n      pop\n      jump\t// out\n        /* \"#utility.yul\":7:84   */\n    tag_85:\n        /* \"#utility.yul\":44:51   */\n      0x00\n        /* \"#utility.yul\":73:78   */\n      dup2\n        /* \"#utility.yul\":62:78   */\n      swap1\n      pop\n        /* \"#utility.yul\":7:84   */\n      swap2\n      swap1\n      pop\n      jump\t// out\n        /* \"#utility.yul\":90:208   */\n    tag_86:\n        /* \"#utility.yul\":177:201   */\n      tag_118\n        /* \"#utility.yul\":195:200   */\n      dup2\n        /* \"#utility.yul\":177:201   */\n      tag_85\n      jump\t// in\n    tag_118:\n        /* \"#utility.yul\":172:175   */\n      dup3\n        /* \"#utility.yul\":165:202   */\n      mstore\n        /* \"#utility.yul\":90:208   */\n      pop\n      pop\n      jump\t// out\n        /* \"#utility.yul\":214:436   */\n    tag_15:\n        /* \"#utility.yul\":307:311   */\n      0x00\n        /* \"#utility.yul\":345:347   */\n      0x20\n        /* \"#utility.yul\":334:343   */\n      dup3\n        /* \"#utility.yul\":330:348   */\n      add\n        /* \"#utility.yul\":322:348   */\n      swap1\n      pop\n        /* \"#utility.yul\":358:429   */\n      tag_120\n        /* \"#utility.yul\":426:427   */\n      0x00\n        /* \"#utility.yul\":415:424   */\n      dup4\n        /* \"#utility.yul\":411:428   */\n      add\n        /* \"#utility.yul\":402:408   */\n      dup5\n        /* \"#utility.yul\":358:429   */\n      tag_86\n      jump\t// in\n    tag_120:\n        /* \"#utility.yul\":214:436   */\n      swap3\n      swap2\n      pop\n      pop\n      jump\t// out\n        /* \"#utility.yul\":523:640   */\n    tag_88:\n        /* \"#utility.yul\":632:633   */\n      0x00\n        /* \"#utility.yul\":629:630   */\n      dup1\n        /* \"#utility.yul\":622:634   */\n      revert\n        /* \"#utility.yul\":769:895   */\n    tag_90:\n        /* \"#utility.yul\":806:813   */\n      0x00\n        /* \"#utility.yul\":846:888   */\n      0xffffffffffffffffffffffffffffffffffffffff\n        /* \"#utility.yul\":839:844   */\n      dup3\n        /* \"#utility.yul\":835:889   */\n      and\n        /* \"#utility.yul\":824:889   */\n      swap1\n      pop\n        /* \"#utility.yul\":769:895   */\n      swap2\n      swap1\n      pop\n      jump\t// out\n        /* \"#utility.yul\":901:997   */\n    tag_91:\n        /* \"#utility.yul\":938:945   */\n      0x00\n        /* \"#utility.yul\":967:991   */\n      tag_126\n        /* \"#utility.yul\":985:990   */\n      dup3\n        /* \"#utility.yul\":967:991   */\n      tag_90\n      jump\t// in\n    tag_126:\n        /* \"#utility.yul\":956:991   */\n      swap1\n      pop\n        /* \"#utility.yul\":901:997   */\n      swap2\n      swap1\n      pop\n      jump\t// out\n        /* \"#utility.yul\":1003:1125   */\n    tag_92:\n        /* \"#utility.yul\":1076:1100   */\n      tag_128\n        /* \"#utility.yul\":1094:1099   */\n      dup2\n        /* \"#utility.yul\":1076:1100   */\n      tag_91\n      jump\t// in\n    tag_128:\n        /* \"#utility.yul\":1069:1074   */\n      dup2\n        /* \"#utility.yul\":1066:1101   */\n      eq\n        /* \"#utility.yul\":1056:1119   */\n      tag_129\n      jumpi\n        /* \"#utility.yul\":1115:1116   */\n      0x00\n        /* \"#utility.yul\":1112:1113   */\n      dup1\n        /* \"#utility.yul\":1105:1117   */\n      revert\n        /* \"#utility.yul\":1056:1119   */\n    tag_129:\n        /* \"#utility.yul\":1003:1125   */\n      pop\n      jump\t// out\n        /* \"#utility.yul\":1131:1270   */\n    tag_93:\n        /* \"#utility.yul\":1177:1182   */\n      0x00\n        /* \"#utility.yul\":1215:1221   */\n      dup2\n        /* \"#utility.yul\":1202:1222   */\n      calldataload\n        /* \"#utility.yul\":1193:1222   */\n      swap1\n      pop\n        /* \"#utility.yul\":1231:1264   */\n      tag_131\n        /* \"#utility.yul\":1258:1263   */\n      dup2\n        /* \"#utility.yul\":1231:1264   */\n      tag_92\n      jump\t// in\n    tag_131:\n        /* \"#utility.yul\":1131:1270   */\n      swap3\n      swap2\n      pop\n      pop\n      jump\t// out\n        /* \"#utility.yul\":1276:1605   */\n    tag_18:\n        /* \"#utility.yul\":1335:1341   */\n      0x00\n        /* \"#utility.yul\":1384:1386   */\n      0x20\n        /* \"#utility.yul\":1372:1381   */\n      dup3\n        /* \"#utility.yul\":1363:1370   */\n      dup5\n        /* \"#utility.yul\":1359:1382   */\n      sub\n        /* \"#utility.yul\":1355:1387   */\n      slt\n        /* \"#utility.yul\":1352:1471   */\n      iszero\n      tag_133\n      jumpi\n        /* \"#utility.yul\":1390:1469   */\n      tag_134\n      tag_88\n      jump\t// in\n    tag_134:\n        /* \"#utility.yul\":1352:1471   */\n    tag_133:\n        /* \"#utility.yul\":1510:1511   */\n      0x00\n        /* \"#utility.yul\":1535:1588   */\n      tag_135\n        /* \"#utility.yul\":1580:1587   */\n      dup5\n        /* \"#utility.yul\":1571:1577   */\n      dup3\n        /* \"#utility.yul\":1560:1569   */\n      dup6\n        /* \"#utility.yul\":1556:1578   */\n      add\n        /* \"#utility.yul\":1535:1588   */\n      tag_93\n      jump\t// in\n    tag_135:\n        /* \"#utility.yul\":1525:1588   */\n      swap2\n      pop\n        /* \"#utility.yul\":1481:1598   */\n      pop\n        /* \"#utility.yul\":1276:1605   */\n      swap3\n      swap2\n      pop\n      pop\n      jump\t// out\n        /* \"#utility.yul\":1611:1943   */\n    tag_21:\n        /* \"#utility.yul\":1732:1736   */\n      0x00\n        /* \"#utility.yul\":1770:1772   */\n      0x40\n        /* \"#utility.yul\":1759:1768   */\n      dup3\n        /* \"#utility.yul\":1755:1773   */\n      add\n        /* \"#utility.yul\":1747:1773   */\n      swap1\n      pop\n        /* \"#utility.yul\":1783:1854   */\n      tag_137\n        /* \"#utility.yul\":1851:1852   */\n      0x00\n        /* \"#utility.yul\":1840:1849   */\n      dup4\n        /* \"#utility.yul\":1836:1853   */\n      add\n        /* \"#utility.yul\":1827:1833   */\n      dup6\n        /* \"#utility.yul\":1783:1854   */\n      tag_86\n      jump\t// in\n    tag_137:\n        /* \"#utility.yul\":1864:1936   */\n      tag_138\n        /* \"#utility.yul\":1932:1934   */\n      0x20\n        /* \"#utility.yul\":1921:1930   */\n      dup4\n        /* \"#utility.yul\":1917:1935   */\n      add\n        /* \"#utility.yul\":1908:1914   */\n      dup5\n        /* \"#utility.yul\":1864:1936   */\n      tag_86\n      jump\t// in\n    tag_138:\n        /* \"#utility.yul\":1611:1943   */\n      swap4\n      swap3\n      pop\n      pop\n      pop\n      jump\t// out\n        /* \"#utility.yul\":1949:2071   */\n    tag_94:\n        /* \"#utility.yul\":2022:2046   */\n      tag_140\n        /* \"#utility.yul\":2040:2045   */\n      dup2\n        /* \"#utility.yul\":2022:2046   */\n      tag_85\n      jump\t// in\n    tag_140:\n        /* \"#utility.yul\":2015:2020   */\n      dup2\n        /* \"#utility.yul\":2012:2047   */\n      eq\n        /* \"#utility.yul\":2002:2065   */\n      tag_141\n      jumpi\n        /* \"#utility.yul\":2061:2062   */\n      0x00\n        /* \"#utility.yul\":2058:2059   */\n      dup1\n        /* \"#utility.yul\":2051:2063   */\n      revert\n        /* \"#utility.yul\":2002:2065   */\n    tag_141:\n        /* \"#utility.yul\":1949:2071   */\n      pop\n      jump\t// out\n        /* \"#utility.yul\":2077:2216   */\n    tag_95:\n        /* \"#utility.yul\":2123:2128   */\n      0x00\n        /* \"#utility.yul\":2161:2167   */\n      dup2\n        /* \"#utility.yul\":2148:2168   */\n      calldataload\n        /* \"#utility.yul\":2139:2168   */\n      swap1\n      pop\n        /* \"#utility.yul\":2177:2210   */\n      tag_143\n        /* \"#utility.yul\":2204:2209   */\n      dup2\n        /* \"#utility.yul\":2177:2210   */\n      tag_94\n      jump\t// in\n    tag_143:\n        /* \"#utility.yul\":2077:2216   */\n      swap3\n      swap2\n      pop\n      pop\n      jump\t// out\n        /* \"#utility.yul\":2222:2551   */\n    tag_24:\n        /* \"#utility.yul\":2281:2287   */\n      0x00\n        /* \"#utility.yul\":2330:2332   */\n      0x20\n        /* \"#utility.yul\":2318:2327   */\n      dup3\n        /* \"#utility.yul\":2309:2316   */\n      dup5\n        /* \"#utility.yul\":2305:2328   */\n      sub\n        /* \"#utility.yul\":2301:2333   */\n      slt\n        /* \"#utility.yul\":2298:2417   */\n      iszero\n      tag_145\n      jumpi\n        /* \"#utility.yul\":2336:2415   */\n      tag_146\n      tag_88\n      jump\t// in\n    tag_146:\n        /* \"#utility.yul\":2298:2417   */\n    tag_145:\n        /* \"#utility.yul\":2456:2457   */\n      0x00\n        /* \"#utility.yul\":2481:2534   */\n      tag_147\n        /* \"#utility.yul\":2526:2533   */\n      dup5\n        /* \"#utility.yul\":2517:2523   */\n      dup3\n        /* \"#utility.yul\":2506:2515   */\n      dup6\n        /* \"#utility.yul\":2502:2524   */\n      add\n        /* \"#utility.yul\":2481:2534   */\n      tag_95\n      jump\t// in\n    tag_147:\n        /* \"#utility.yul\":2471:2534   */\n      swap2\n      pop\n        /* \"#utility.yul\":2427:2544   */\n      pop\n        /* \"#utility.yul\":2222:2551   */\n      swap3\n      swap2\n      pop\n      pop\n      jump\t// out\n        /* \"#utility.yul\":2557:2675   */\n    tag_96:\n        /* \"#utility.yul\":2644:2668   */\n      tag_149\n        /* \"#utility.yul\":2662:2667   */\n      dup2\n        /* \"#utility.yul\":2644:2668   */\n      tag_91\n      jump\t// in\n    tag_149:\n        /* \"#utility.yul\":2639:2642   */\n      dup3\n        /* \"#utility.yul\":2632:2669   */\n      mstore\n        /* \"#utility.yul\":2557:2675   */\n      pop\n      pop\n      jump\t// out\n        /* \"#utility.yul\":2681:3013   */\n    tag_30:\n        /* \"#utility.yul\":2802:2806   */\n      0x00\n        /* \"#utility.yul\":2840:2842   */\n      0x40\n        /* \"#utility.yul\":2829:2838   */\n      dup3\n        /* \"#utility.yul\":2825:2843   */\n      add\n        /* \"#utility.yul\":2817:2843   */\n      swap1\n      pop\n        /* \"#utility.yul\":2853:2924   */\n      tag_151\n        /* \"#utility.yul\":2921:2922   */\n      0x00\n        /* \"#utility.yul\":2910:2919   */\n      dup4\n        /* \"#utility.yul\":2906:2923   */\n      add\n        /* \"#utility.yul\":2897:2903   */\n      dup6\n        /* \"#utility.yul\":2853:2924   */\n      tag_86\n      jump\t// in\n    tag_151:\n        /* \"#utility.yul\":2934:3006   */\n      tag_152\n        /* \"#utility.yul\":3002:3004   */\n      0x20\n        /* \"#utility.yul\":2991:3000   */\n      dup4\n        /* \"#utility.yul\":2987:3005   */\n      add\n        /* \"#utility.yul\":2978:2984   */\n      dup5\n        /* \"#utility.yul\":2934:3006   */\n      tag_96\n      jump\t// in\n    tag_152:\n        /* \"#utility.yul\":2681:3013   */\n      swap4\n      swap3\n      pop\n      pop\n      pop\n      jump\t// out\n        /* \"#utility.yul\":3019:3079   */\n    tag_97:\n        /* \"#utility.yul\":3047:3050   */\n      0x00\n        /* \"#utility.yul\":3068:3073   */\n      dup2\n        /* \"#utility.yul\":3061:3073   */\n      swap1\n      pop\n        /* \"#utility.yul\":3019:3079   */\n      swap2\n      swap1\n      pop\n      jump\t// out\n        /* \"#utility.yul\":3085:3227   */\n    tag_98:\n        /* \"#utility.yul\":3135:3144   */\n      0x00\n        /* \"#utility.yul\":3168:3221   */\n      tag_155\n        /* \"#utility.yul\":3186:3220   */\n      tag_156\n        /* \"#utility.yul\":3195:3219   */\n      tag_157\n        /* \"#utility.yul\":3213:3218   */\n      dup5\n        /* \"#utility.yul\":3195:3219   */\n      tag_90\n      jump\t// in\n    tag_157:\n        /* \"#utility.yul\":3186:3220   */\n      tag_97\n      jump\t// in\n    tag_156:\n        /* \"#utility.yul\":3168:3221   */\n      tag_90\n      jump\t// in\n    tag_155:\n        /* \"#utility.yul\":3155:3221   */\n      swap1\n      pop\n        /* \"#utility.yul\":3085:3227   */\n      swap2\n      swap1\n      pop\n      jump\t// out\n        /* \"#utility.yul\":3233:3359   */\n    tag_99:\n        /* \"#utility.yul\":3283:3292   */\n      0x00\n        /* \"#utility.yul\":3316:3353   */\n      tag_159\n        /* \"#utility.yul\":3347:3352   */\n      dup3\n        /* \"#utility.yul\":3316:3353   */\n      tag_98\n      jump\t// in\n    tag_159:\n        /* \"#utility.yul\":3303:3353   */\n      swap1\n      pop\n        /* \"#utility.yul\":3233:3359   */\n      swap2\n      swap1\n      pop\n      jump\t// out\n        /* \"#utility.yul\":3365:3504   */\n    tag_100:\n        /* \"#utility.yul\":3428:3437   */\n      0x00\n        /* \"#utility.yul\":3461:3498   */\n      tag_161\n        /* \"#utility.yul\":3492:3497   */\n      dup3\n        /* \"#utility.yul\":3461:3498   */\n      tag_99\n      jump\t// in\n    tag_161:\n        /* \"#utility.yul\":3448:3498   */\n      swap1\n      pop\n        /* \"#utility.yul\":3365:3504   */\n      swap2\n      swap1\n      pop\n      jump\t// out\n        /* \"#utility.yul\":3510:3667   */\n    tag_101:\n        /* \"#utility.yul\":3610:3660   */\n      tag_163\n        /* \"#utility.yul\":3654:3659   */\n      dup2\n        /* \"#utility.yul\":3610:3660   */\n      tag_100\n      jump\t// in\n    tag_163:\n        /* \"#utility.yul\":3605:3608   */\n      dup3\n        /* \"#utility.yul\":3598:3661   */\n      mstore\n        /* \"#utility.yul\":3510:3667   */\n      pop\n      pop\n      jump\t// out\n        /* \"#utility.yul\":3673:3921   */\n    tag_37:\n        /* \"#utility.yul\":3779:3783   */\n      0x00\n        /* \"#utility.yul\":3817:3819   */\n      0x20\n        /* \"#utility.yul\":3806:3815   */\n      dup3\n        /* \"#utility.yul\":3802:3820   */\n      add\n        /* \"#utility.yul\":3794:3820   */\n      swap1\n      pop\n        /* \"#utility.yul\":3830:3914   */\n      tag_165\n        /* \"#utility.yul\":3911:3912   */\n      0x00\n        /* \"#utility.yul\":3900:3909   */\n      dup4\n        /* \"#utility.yul\":3896:3913   */\n      add\n        /* \"#utility.yul\":3887:3893   */\n      dup5\n        /* \"#utility.yul\":3830:3914   */\n      tag_101\n      jump\t// in\n    tag_165:\n        /* \"#utility.yul\":3673:3921   */\n      swap3\n      swap2\n      pop\n      pop\n      jump\t// out\n        /* \"#utility.yul\":3927:4107   */\n    tag_102:\n        /* \"#utility.yul\":3975:4052   */\n      0x4e487b7100000000000000000000000000000000000000000000000000000000\n        /* \"#utility.yul\":3972:3973   */\n      0x00\n        /* \"#utility.yul\":3965:4053   */\n      mstore\n        /* \"#utility.yul\":4072:4076   */\n      0x11\n        /* \"#utility.yul\":4069:4070   */\n      0x04\n        /* \"#utility.yul\":4062:4077   */\n      mstore\n        /* \"#utility.yul\":4096:4100   */\n      0x24\n        /* \"#utility.yul\":4093:4094   */\n      0x00\n        /* \"#utility.yul\":4086:4101   */\n      revert\n        /* \"#utility.yul\":4113:4304   */\n    tag_47:\n        /* \"#utility.yul\":4153:4156   */\n      0x00\n        /* \"#utility.yul\":4172:4192   */\n      tag_168\n        /* \"#utility.yul\":4190:4191   */\n      dup3\n        /* \"#utility.yul\":4172:4192   */\n      tag_85\n      jump\t// in\n    tag_168:\n        /* \"#utility.yul\":4167:4192   */\n      swap2\n      pop\n        /* \"#utility.yul\":4206:4226   */\n      tag_169\n        /* \"#utility.yul\":4224:4225   */\n      dup4\n        /* \"#utility.yul\":4206:4226   */\n      tag_85\n      jump\t// in\n    tag_169:\n        /* \"#utility.yul\":4201:4226   */\n      swap3\n      pop\n        /* \"#utility.yul\":4249:4250   */\n      dup3\n        /* \"#utility.yul\":4246:4247   */\n      dup3\n        /* \"#utility.yul\":4242:4251   */\n      add\n        /* \"#utility.yul\":4235:4251   */\n      swap1\n      pop\n        /* \"#utility.yul\":4270:4273   */\n      dup1\n        /* \"#utility.yul\":4267:4268   */\n      dup3\n        /* \"#utility.yul\":4264:4274   */\n      gt\n        /* \"#utility.yul\":4261:4297   */\n      iszero\n      tag_170\n      jumpi\n        /* \"#utility.yul\":4277:4295   */\n      tag_171\n      tag_102\n      jump\t// in\n    tag_171:\n        /* \"#utility.yul\":4261:4297   */\n    tag_170:\n        /* \"#utility.yul\":4113:4304   */\n      swap3\n      swap2\n      pop\n      pop\n      jump\t// out\n        /* \"#utility.yul\":4310:4479   */\n    tag_103:\n        /* \"#utility.yul\":4394:4405   */\n      0x00\n        /* \"#utility.yul\":4428:4434   */\n      dup3\n        /* \"#utility.yul\":4423:4426   */\n      dup3\n        /* \"#utility.yul\":4416:4435   */\n      mstore\n        /* \"#utility.yul\":4468:4472   */\n      0x20\n        /* \"#utility.yul\":4463:4466   */\n      dup3\n        /* \"#utility.yul\":4459:4473   */\n      add\n        /* \"#utility.yul\":4444:4473   */\n      swap1\n      pop\n        /* \"#utility.yul\":4310:4479   */\n      swap3\n      swap2\n      pop\n      pop\n      jump\t// out\n        /* \"#utility.yul\":4485:4656   */\n    tag_104:\n        /* \"#utility.yul\":4625:4648   */\n      0x5374616b65206973207374696c6c206c6f636b65640000000000000000000000\n        /* \"#utility.yul\":4621:4622   */\n      0x00\n        /* \"#utility.yul\":4613:4619   */\n      dup3\n        /* \"#utility.yul\":4609:4623   */\n      add\n        /* \"#utility.yul\":4602:4649   */\n      mstore\n        /* \"#utility.yul\":4485:4656   */\n      pop\n      jump\t// out\n        /* \"#utility.yul\":4662:5028   */\n    tag_105:\n        /* \"#utility.yul\":4804:4807   */\n      0x00\n        /* \"#utility.yul\":4825:4892   */\n      tag_175\n        /* \"#utility.yul\":4889:4891   */\n      0x15\n        /* \"#utility.yul\":4884:4887   */\n      dup4\n        /* \"#utility.yul\":4825:4892   */\n      tag_103\n      jump\t// in\n    tag_175:\n        /* \"#utility.yul\":4818:4892   */\n      swap2\n      pop\n        /* \"#utility.yul\":4901:4994   */\n      tag_176\n        /* \"#utility.yul\":4990:4993   */\n      dup3\n        /* \"#utility.yul\":4901:4994   */\n      tag_104\n      jump\t// in\n    tag_176:\n        /* \"#utility.yul\":5019:5021   */\n      0x20\n        /* \"#utility.yul\":5014:5017   */\n      dup3\n        /* \"#utility.yul\":5010:5022   */\n      add\n        /* \"#utility.yul\":5003:5022   */\n      swap1\n      pop\n        /* \"#utility.yul\":4662:5028   */\n      swap2\n      swap1\n      pop\n      jump\t// out\n        /* \"#utility.yul\":5034:5453   */\n    tag_50:\n        /* \"#utility.yul\":5200:5204   */\n      0x00\n        /* \"#utility.yul\":5238:5240   */\n      0x20\n        /* \"#utility.yul\":5227:5236   */\n      dup3\n        /* \"#utility.yul\":5223:5241   */\n      add\n        /* \"#utility.yul\":5215:5241   */\n      swap1\n      pop\n        /* \"#utility.yul\":5287:5296   */\n      dup2\n        /* \"#utility.yul\":5281:5285   */\n      dup2\n        /* \"#utility.yul\":5277:5297   */\n      sub\n        /* \"#utility.yul\":5273:5274   */\n      0x00\n        /* \"#utility.yul\":5262:5271   */\n      dup4\n        /* \"#utility.yul\":5258:5275   */\n      add\n        /* \"#utility.yul\":5251:5298   */\n      mstore\n        /* \"#utility.yul\":5315:5446   */\n      tag_178\n        /* \"#utility.yul\":5441:5445   */\n      dup2\n        /* \"#utility.yul\":5315:5446   */\n      tag_105\n      jump\t// in\n    tag_178:\n        /* \"#utility.yul\":5307:5446   */\n      swap1\n      pop\n        /* \"#utility.yul\":5034:5453   */\n      swap2\n      swap1\n      pop\n      jump\t// out\n        /* \"#utility.yul\":5459:5791   */\n    tag_52:\n        /* \"#utility.yul\":5580:5584   */\n      0x00\n        /* \"#utility.yul\":5618:5620   */\n      0x40\n        /* \"#utility.yul\":5607:5616   */\n      dup3\n        /* \"#utility.yul\":5603:5621   */\n      add\n        /* \"#utility.yul\":5595:5621   */\n      swap1\n      pop\n        /* \"#utility.yul\":5631:5702   */\n      tag_180\n        /* \"#utility.yul\":5699:5700   */\n      0x00\n        /* \"#utility.yul\":5688:5697   */\n      dup4\n        /* \"#utility.yul\":5684:5701   */\n      add\n        /* \"#utility.yul\":5675:5681   */\n      dup6\n        /* \"#utility.yul\":5631:5702   */\n      tag_96\n      jump\t// in\n    tag_180:\n        /* \"#utility.yul\":5712:5784   */\n      tag_181\n        /* \"#utility.yul\":5780:5782   */\n      0x20\n        /* \"#utility.yul\":5769:5778   */\n      dup4\n        /* \"#utility.yul\":5765:5783   */\n      add\n        /* \"#utility.yul\":5756:5762   */\n      dup5\n        /* \"#utility.yul\":5712:5784   */\n      tag_86\n      jump\t// in\n    tag_181:\n        /* \"#utility.yul\":5459:5791   */\n      swap4\n      swap3\n      pop\n      pop\n      pop\n      jump\t// out\n        /* \"#utility.yul\":5797:5887   */\n    tag_106:\n        /* \"#utility.yul\":5831:5838   */\n      0x00\n        /* \"#utility.yul\":5874:5879   */\n      dup2\n        /* \"#utility.yul\":5867:5880   */\n      iszero\n        /* \"#utility.yul\":5860:5881   */\n      iszero\n        /* \"#utility.yul\":5849:5881   */\n      swap1\n      pop\n        /* \"#utility.yul\":5797:5887   */\n      swap2\n      swap1\n      pop\n      jump\t// out\n        /* \"#utility.yul\":5893:6009   */\n    tag_107:\n        /* \"#utility.yul\":5963:5984   */\n      tag_184\n        /* \"#utility.yul\":5978:5983   */\n      dup2\n        /* \"#utility.yul\":5963:5984   */\n      tag_106\n      jump\t// in\n    tag_184:\n        /* \"#utility.yul\":5956:5961   */\n      dup2\n        /* \"#utility.yul\":5953:5985   */\n      eq\n        /* \"#utility.yul\":5943:6003   */\n      tag_185\n      jumpi\n        /* \"#utility.yul\":5999:6000   */\n      0x00\n        /* \"#utility.yul\":5996:5997   */\n      dup1\n        /* \"#utility.yul\":5989:6001   */\n      revert\n        /* \"#utility.yul\":5943:6003   */\n    tag_185:\n        /* \"#utility.yul\":5893:6009   */\n      pop\n      jump\t// out\n        /* \"#utility.yul\":6015:6152   */\n    tag_108:\n        /* \"#utility.yul\":6069:6074   */\n      0x00\n        /* \"#utility.yul\":6100:6106   */\n      dup2\n        /* \"#utility.yul\":6094:6107   */\n      mload\n        /* \"#utility.yul\":6085:6107   */\n      swap1\n      pop\n        /* \"#utility.yul\":6116:6146   */\n      tag_187\n        /* \"#utility.yul\":6140:6145   */\n      dup2\n        /* \"#utility.yul\":6116:6146   */\n      tag_107\n      jump\t// in\n    tag_187:\n        /* \"#utility.yul\":6015:6152   */\n      swap3\n      swap2\n      pop\n      pop\n      jump\t// out\n        /* \"#utility.yul\":6158:6503   */\n    tag_56:\n        /* \"#utility.yul\":6225:6231   */\n      0x00\n        /* \"#utility.yul\":6274:6276   */\n      0x20\n        /* \"#utility.yul\":6262:6271   */\n      dup3\n        /* \"#utility.yul\":6253:6260   */\n      dup5\n        /* \"#utility.yul\":6249:6272   */\n      sub\n        /* \"#utility.yul\":6245:6277   */\n      slt\n        /* \"#utility.yul\":6242:6361   */\n      iszero\n      tag_189\n      jumpi\n        /* \"#utility.yul\":6280:6359   */\n      tag_190\n      tag_88\n      jump\t// in\n    tag_190:\n        /* \"#utility.yul\":6242:6361   */\n    tag_189:\n        /* \"#utility.yul\":6400:6401   */\n      0x00\n        /* \"#utility.yul\":6425:6486   */\n      tag_191\n        /* \"#utility.yul\":6478:6485   */\n      dup5\n        /* \"#utility.yul\":6469:6475   */\n      dup3\n        /* \"#utility.yul\":6458:6467   */\n      dup6\n        /* \"#utility.yul\":6454:6476   */\n      add\n        /* \"#utility.yul\":6425:6486   */\n      tag_108\n      jump\t// in\n    tag_191:\n        /* \"#utility.yul\":6415:6486   */\n      swap2\n      pop\n        /* \"#utility.yul\":6371:6496   */\n      pop\n        /* \"#utility.yul\":6158:6503   */\n      swap3\n      swap2\n      pop\n      pop\n      jump\t// out\n        /* \"#utility.yul\":6509:6678   */\n    tag_109:\n        /* \"#utility.yul\":6649:6670   */\n      0x416d6f756e74206d757374206265203e20313000000000000000000000000000\n        /* \"#utility.yul\":6645:6646   */\n      0x00\n        /* \"#utility.yul\":6637:6643   */\n      dup3\n        /* \"#utility.yul\":6633:6647   */\n      add\n        /* \"#utility.yul\":6626:6671   */\n      mstore\n        /* \"#utility.yul\":6509:6678   */\n      pop\n      jump\t// out\n        /* \"#utility.yul\":6684:7050   */\n    tag_110:\n        /* \"#utility.yul\":6826:6829   */\n      0x00\n        /* \"#utility.yul\":6847:6914   */\n      tag_194\n        /* \"#utility.yul\":6911:6913   */\n      0x13\n        /* \"#utility.yul\":6906:6909   */\n      dup4\n        /* \"#utility.yul\":6847:6914   */\n      tag_103\n      jump\t// in\n    tag_194:\n        /* \"#utility.yul\":6840:6914   */\n      swap2\n      pop\n        /* \"#utility.yul\":6923:7016   */\n      tag_195\n        /* \"#utility.yul\":7012:7015   */\n      dup3\n        /* \"#utility.yul\":6923:7016   */\n      tag_109\n      jump\t// in\n    tag_195:\n        /* \"#utility.yul\":7041:7043   */\n      0x20\n        /* \"#utility.yul\":7036:7039   */\n      dup3\n        /* \"#utility.yul\":7032:7044   */\n      add\n        /* \"#utility.yul\":7025:7044   */\n      swap1\n      pop\n        /* \"#utility.yul\":6684:7050   */\n      swap2\n      swap1\n      pop\n      jump\t// out\n        /* \"#utility.yul\":7056:7475   */\n    tag_60:\n        /* \"#utility.yul\":7222:7226   */\n      0x00\n        /* \"#utility.yul\":7260:7262   */\n      0x20\n        /* \"#utility.yul\":7249:7258   */\n      dup3\n        /* \"#utility.yul\":7245:7263   */\n      add\n        /* \"#utility.yul\":7237:7263   */\n      swap1\n      pop\n        /* \"#utility.yul\":7309:7318   */\n      dup2\n        /* \"#utility.yul\":7303:7307   */\n      dup2\n        /* \"#utility.yul\":7299:7319   */\n      sub\n        /* \"#utility.yul\":7295:7296   */\n      0x00\n        /* \"#utility.yul\":7284:7293   */\n      dup4\n        /* \"#utility.yul\":7280:7297   */\n      add\n        /* \"#utility.yul\":7273:7320   */\n      mstore\n        /* \"#utility.yul\":7337:7468   */\n      tag_197\n        /* \"#utility.yul\":7463:7467   */\n      dup2\n        /* \"#utility.yul\":7337:7468   */\n      tag_110\n      jump\t// in\n    tag_197:\n        /* \"#utility.yul\":7329:7468   */\n      swap1\n      pop\n        /* \"#utility.yul\":7056:7475   */\n      swap2\n      swap1\n      pop\n      jump\t// out\n        /* \"#utility.yul\":7481:7652   */\n    tag_111:\n        /* \"#utility.yul\":7621:7644   */\n      0x416d6f756e74206d757374206265203c3d203130300000000000000000000000\n        /* \"#utility.yul\":7617:7618   */\n      0x00\n        /* \"#utility.yul\":7609:7615   */\n      dup3\n        /* \"#utility.yul\":7605:7619   */\n      add\n        /* \"#utility.yul\":7598:7645   */\n      mstore\n        /* \"#utility.yul\":7481:7652   */\n      pop\n      jump\t// out\n        /* \"#utility.yul\":7658:8024   */\n    tag_112:\n        /* \"#utility.yul\":7800:7803   */\n      0x00\n        /* \"#utility.yul\":7821:7888   */\n      tag_200\n        /* \"#utility.yul\":7885:7887   */\n      0x15\n        /* \"#utility.yul\":7880:7883   */\n      dup4\n        /* \"#utility.yul\":7821:7888   */\n      tag_103\n      jump\t// in\n    tag_200:\n        /* \"#utility.yul\":7814:7888   */\n      swap2\n      pop\n        /* \"#utility.yul\":7897:7990   */\n      tag_201\n        /* \"#utility.yul\":7986:7989   */\n      dup3\n        /* \"#utility.yul\":7897:7990   */\n      tag_111\n      jump\t// in\n    tag_201:\n        /* \"#utility.yul\":8015:8017   */\n      0x20\n        /* \"#utility.yul\":8010:8013   */\n      dup3\n        /* \"#utility.yul\":8006:8018   */\n      add\n        /* \"#utility.yul\":7999:8018   */\n      swap1\n      pop\n        /* \"#utility.yul\":7658:8024   */\n      swap2\n      swap1\n      pop\n      jump\t// out\n        /* \"#utility.yul\":8030:8449   */\n    tag_63:\n        /* \"#utility.yul\":8196:8200   */\n      0x00\n        /* \"#utility.yul\":8234:8236   */\n      0x20\n        /* \"#utility.yul\":8223:8232   */\n      dup3\n        /* \"#utility.yul\":8219:8237   */\n      add\n        /* \"#utility.yul\":8211:8237   */\n      swap1\n      pop\n        /* \"#utility.yul\":8283:8292   */\n      dup2\n        /* \"#utility.yul\":8277:8281   */\n      dup2\n        /* \"#utility.yul\":8273:8293   */\n      sub\n        /* \"#utility.yul\":8269:8270   */\n      0x00\n        /* \"#utility.yul\":8258:8267   */\n      dup4\n        /* \"#utility.yul\":8254:8271   */\n      add\n        /* \"#utility.yul\":8247:8294   */\n      mstore\n        /* \"#utility.yul\":8311:8442   */\n      tag_203\n        /* \"#utility.yul\":8437:8441   */\n      dup2\n        /* \"#utility.yul\":8311:8442   */\n      tag_112\n      jump\t// in\n    tag_203:\n        /* \"#utility.yul\":8303:8442   */\n      swap1\n      pop\n        /* \"#utility.yul\":8030:8449   */\n      swap2\n      swap1\n      pop\n      jump\t// out\n        /* \"#utility.yul\":8455:8619   */\n    tag_113:\n        /* \"#utility.yul\":8595:8611   */\n      0x416c7265616479207374616b6564000000000000000000000000000000000000\n        /* \"#utility.yul\":8591:8592   */\n      0x00\n        /* \"#utility.yul\":8583:8589   */\n      dup3\n        /* \"#utility.yul\":8579:8593   */\n      add\n        /* \"#utility.yul\":8572:8612   */\n      mstore\n        /* \"#utility.yul\":8455:8619   */\n      pop\n      jump\t// out\n        /* \"#utility.yul\":8625:8991   */\n    tag_114:\n        /* \"#utility.yul\":8767:8770   */\n      0x00\n        /* \"#utility.yul\":8788:8855   */\n      tag_206\n        /* \"#utility.yul\":8852:8854   */\n      0x0e\n        /* \"#utility.yul\":8847:8850   */\n      dup4\n        /* \"#utility.yul\":8788:8855   */\n      tag_103\n      jump\t// in\n    tag_206:\n        /* \"#utility.yul\":8781:8855   */\n      swap2\n      pop\n        /* \"#utility.yul\":8864:8957   */\n      tag_207\n        /* \"#utility.yul\":8953:8956   */\n      dup3\n        /* \"#utility.yul\":8864:8957   */\n      tag_113\n      jump\t// in\n    tag_207:\n        /* \"#utility.yul\":8982:8984   */\n      0x20\n        /* \"#utility.yul\":8977:8980   */\n      dup3\n        /* \"#utility.yul\":8973:8985   */\n      add\n        /* \"#utility.yul\":8966:8985   */\n      swap1\n      pop\n        /* \"#utility.yul\":8625:8991   */\n      swap2\n      swap1\n      pop\n      jump\t// out\n        /* \"#utility.yul\":8997:9416   */\n    tag_66:\n        /* \"#utility.yul\":9163:9167   */\n      0x00\n        /* \"#utility.yul\":9201:9203   */\n      0x20\n        /* \"#utility.yul\":9190:9199   */\n      dup3\n        /* \"#utility.yul\":9186:9204   */\n      add\n        /* \"#utility.yul\":9178:9204   */\n      swap1\n      pop\n        /* \"#utility.yul\":9250:9259   */\n      dup2\n        /* \"#utility.yul\":9244:9248   */\n      dup2\n        /* \"#utility.yul\":9240:9260   */\n      sub\n        /* \"#utility.yul\":9236:9237   */\n      0x00\n        /* \"#utility.yul\":9225:9234   */\n      dup4\n        /* \"#utility.yul\":9221:9238   */\n      add\n        /* \"#utility.yul\":9214:9261   */\n      mstore\n        /* \"#utility.yul\":9278:9409   */\n      tag_209\n        /* \"#utility.yul\":9404:9408   */\n      dup2\n        /* \"#utility.yul\":9278:9409   */\n      tag_114\n      jump\t// in\n    tag_209:\n        /* \"#utility.yul\":9270:9409   */\n      swap1\n      pop\n        /* \"#utility.yul\":8997:9416   */\n      swap2\n      swap1\n      pop\n      jump\t// out\n        /* \"#utility.yul\":9422:9864   */\n    tag_68:\n        /* \"#utility.yul\":9571:9575   */\n      0x00\n        /* \"#utility.yul\":9609:9611   */\n      0x60\n        /* \"#utility.yul\":9598:9607   */\n      dup3\n        /* \"#utility.yul\":9594:9612   */\n      add\n        /* \"#utility.yul\":9586:9612   */\n      swap1\n      pop\n        /* \"#utility.yul\":9622:9693   */\n      tag_211\n        /* \"#utility.yul\":9690:9691   */\n      0x00\n        /* \"#utility.yul\":9679:9688   */\n      dup4\n        /* \"#utility.yul\":9675:9692   */\n      add\n        /* \"#utility.yul\":9666:9672   */\n      dup7\n        /* \"#utility.yul\":9622:9693   */\n      tag_96\n      jump\t// in\n    tag_211:\n        /* \"#utility.yul\":9703:9775   */\n      tag_212\n        /* \"#utility.yul\":9771:9773   */\n      0x20\n        /* \"#utility.yul\":9760:9769   */\n      dup4\n        /* \"#utility.yul\":9756:9774   */\n      add\n        /* \"#utility.yul\":9747:9753   */\n      dup6\n        /* \"#utility.yul\":9703:9775   */\n      tag_96\n      jump\t// in\n    tag_212:\n        /* \"#utility.yul\":9785:9857   */\n      tag_213\n        /* \"#utility.yul\":9853:9855   */\n      0x40\n        /* \"#utility.yul\":9842:9851   */\n      dup4\n        /* \"#utility.yul\":9838:9856   */\n      add\n        /* \"#utility.yul\":9829:9835   */\n      dup5\n        /* \"#utility.yul\":9785:9857   */\n      tag_86\n      jump\t// in\n    tag_213:\n        /* \"#utility.yul\":9422:9864   */\n      swap5\n      swap4\n      pop\n      pop\n      pop\n      pop\n      jump\t// out\n\n    auxdata: 0xa2646970667358221220caf0f24ac31b94b1dc31d5bb491c2305bf38ca20fa34ef6c5c31c931f39f08d864736f6c634300081a0033\n}\n",
				"bytecode": {
					"linkReferences": {},
					"object": "608060405262015180600255348015610016575f80fd5b50604051610df9380380610df98339818101604052810190610038919061011c565b815f806101000a81548173ffffffffffffffffffffffffffffffffffffffff021916908373ffffffffffffffffffffffffffffffffffffffff1602179055508060015f6101000a81548173ffffffffffffffffffffffffffffffffffffffff021916908373ffffffffffffffffffffffffffffffffffffffff160217905550505061015a565b5f80fd5b5f73ffffffffffffffffffffffffffffffffffffffff82169050919050565b5f6100eb826100c2565b9050919050565b6100fb816100e1565b8114610105575f80fd5b50565b5f81519050610116816100f2565b92915050565b5f8060408385031215610132576101316100be565b5b5f61013f85828601610108565b925050602061015085828601610108565b9150509250929050565b610c92806101675f395ff3fe608060405234801561000f575f80fd5b5060043610610086575f3560e01c8063a694fc3a11610059578063a694fc3a14610126578063d21220a714610142578063fc0c546a14610160578063fe3131121461017e57610086565b80630d6680871461008a57806316934fc4146100a85780632e1a7d4d146100d9578063a4063dbc146100f5575b5f80fd5b61009261019a565b60405161009f91906107c8565b60405180910390f35b6100c260048036038101906100bd919061083f565b6101a0565b6040516100d092919061086a565b60405180910390f35b6100f360048036038101906100ee91906108bb565b6101c0565b005b61010f600480360381019061010a919061083f565b610352565b60405161011d9291906108f5565b60405180910390f35b610140600480360381019061013b91906108bb565b610391565b005b61014a6105a1565b6040516101579190610977565b60405180910390f35b6101686105c6565b6040516101759190610977565b60405180910390f35b610198600480360381019061019391906108bb565b6105e9565b005b60025481565b6003602052805f5260405f205f91509050805f0154908060010154905082565b5f60035f3373ffffffffffffffffffffffffffffffffffffffff1673ffffffffffffffffffffffffffffffffffffffff1681526020019081526020015f209050606482111561020d575f80fd5b600254816001015461021f91906109bd565b421015610261576040517f08c379a000000000000000000000000000000000000000000000000000000000815260040161025890610a4a565b60405180910390fd5b5f82905060035f3373ffffffffffffffffffffffffffffffffffffffff1673ffffffffffffffffffffffffffffffffffffffff1681526020019081526020015f205f8082015f9055600182015f905550505f8054906101000a900473ffffffffffffffffffffffffffffffffffffffff1673ffffffffffffffffffffffffffffffffffffffff1663a9059cbb33836040518363ffffffff1660e01b815260040161030c929190610a68565b6020604051808303815f875af1158015610328573d5f803e3d5ffd5b505050506040513d601f19601f8201168201806040525081019061034c9190610ac4565b50505050565b6004602052805f5260405f205f91509050805f015490806001015f9054906101000a900473ffffffffffffffffffffffffffffffffffffffff16905082565b600a8110156103d5576040517f08c379a00000000000000000000000000000000000000000000000000000000081526004016103cc90610b39565b60405180910390fd5b6064811115610419576040517f08c379a000000000000000000000000000000000000000000000000000000000815260040161041090610ba1565b60405180910390fd5b5f60035f3373ffffffffffffffffffffffffffffffffffffffff1673ffffffffffffffffffffffffffffffffffffffff1681526020019081526020015f205f01541461049a576040517f08c379a000000000000000000000000000000000000000000000000000000000815260040161049190610c09565b60405180910390fd5b5f8054906101000a900473ffffffffffffffffffffffffffffffffffffffff1673ffffffffffffffffffffffffffffffffffffffff166323b872dd3330846040518463ffffffff1660e01b81526004016104f693929190610c27565b6020604051808303815f875af1158015610512573d5f803e3d5ffd5b505050506040513d601f19601f820116820180604052508101906105369190610ac4565b5060405180604001604052808281526020014281525060035f3373ffffffffffffffffffffffffffffffffffffffff1673ffffffffffffffffffffffffffffffffffffffff1681526020019081526020015f205f820151815f01556020820151816001015590505050565b60015f9054906101000a900473ffffffffffffffffffffffffffffffffffffffff1681565b5f8054906101000a900473ffffffffffffffffffffffffffffffffffffffff1681565b600a81101561062d576040517f08c379a000000000000000000000000000000000000000000000000000000000815260040161062490610b39565b60405180910390fd5b6064811115610671576040517f08c379a000000000000000000000000000000000000000000000000000000000815260040161066890610ba1565b60405180910390fd5b5f8054906101000a900473ffffffffffffffffffffffffffffffffffffffff1673ffffffffffffffffffffffffffffffffffffffff166323b872dd3330846040518463ffffffff1660e01b81526004016106cd93929190610c27565b6020604051808303815f875af11580156106e9573d5f803e3d5ffd5b505050506040513d601f19601f8201168201806040525081019061070d9190610ac4565b5060015f9054906101000a900473ffffffffffffffffffffffffffffffffffffffff1673ffffffffffffffffffffffffffffffffffffffff166323b872dd3330846040518463ffffffff1660e01b815260040161076c93929190610c27565b6020604051808303815f875af1158015610788573d5f803e3d5ffd5b505050506040513d601f19601f820116820180604052508101906107ac9190610ac4565b5050565b5f819050919050565b6107c2816107b0565b82525050565b5f6020820190506107db5f8301846107b9565b92915050565b5f80fd5b5f73ffffffffffffffffffffffffffffffffffffffff82169050919050565b5f61080e826107e5565b9050919050565b61081e81610804565b8114610828575f80fd5b50565b5f8135905061083981610815565b92915050565b5f60208284031215610854576108536107e1565b5b5f6108618482850161082b565b91505092915050565b5f60408201905061087d5f8301856107b9565b61088a60208301846107b9565b9392505050565b61089a816107b0565b81146108a4575f80fd5b50565b5f813590506108b581610891565b92915050565b5f602082840312156108d0576108cf6107e1565b5b5f6108dd848285016108a7565b91505092915050565b6108ef81610804565b82525050565b5f6040820190506109085f8301856107b9565b61091560208301846108e6565b9392505050565b5f819050919050565b5f61093f61093a610935846107e5565b61091c565b6107e5565b9050919050565b5f61095082610925565b9050919050565b5f61096182610946565b9050919050565b61097181610957565b82525050565b5f60208201905061098a5f830184610968565b92915050565b7f4e487b71000000000000000000000000000000000000000000000000000000005f52601160045260245ffd5b5f6109c7826107b0565b91506109d2836107b0565b92508282019050808211156109ea576109e9610990565b5b92915050565b5f82825260208201905092915050565b7f5374616b65206973207374696c6c206c6f636b656400000000000000000000005f82015250565b5f610a346015836109f0565b9150610a3f82610a00565b602082019050919050565b5f6020820190508181035f830152610a6181610a28565b9050919050565b5f604082019050610a7b5f8301856108e6565b610a8860208301846107b9565b9392505050565b5f8115159050919050565b610aa381610a8f565b8114610aad575f80fd5b50565b5f81519050610abe81610a9a565b92915050565b5f60208284031215610ad957610ad86107e1565b5b5f610ae684828501610ab0565b91505092915050565b7f416d6f756e74206d757374206265203e203130000000000000000000000000005f82015250565b5f610b236013836109f0565b9150610b2e82610aef565b602082019050919050565b5f6020820190508181035f830152610b5081610b17565b9050919050565b7f416d6f756e74206d757374206265203c3d2031303000000000000000000000005f82015250565b5f610b8b6015836109f0565b9150610b9682610b57565b602082019050919050565b5f6020820190508181035f830152610bb881610b7f565b9050919050565b7f416c7265616479207374616b65640000000000000000000000000000000000005f82015250565b5f610bf3600e836109f0565b9150610bfe82610bbf565b602082019050919050565b5f6020820190508181035f830152610c2081610be7565b9050919050565b5f606082019050610c3a5f8301866108e6565b610c4760208301856108e6565b610c5460408301846107b9565b94935050505056fea2646970667358221220caf0f24ac31b94b1dc31d5bb491c2305bf38ca20fa34ef6c5c31c931f39f08d864736f6c634300081a0033",
					"opcodes": "PUSH1 0x80 PUSH1 0x40 MSTORE PUSH3 0x15180 PUSH1 0x2 SSTORE CALLVALUE DUP1 ISZERO PUSH2 0x16 JUMPI PUSH0 DUP1 REVERT JUMPDEST POP PUSH1 0x40 MLOAD PUSH2 0xDF9 CODESIZE SUB DUP1 PUSH2 0xDF9 DUP4 CODECOPY DUP2 DUP2 ADD PUSH1 0x40 MSTORE DUP2 ADD SWAP1 PUSH2 0x38 SWAP2 SWAP1 PUSH2 0x11C JUMP JUMPDEST DUP2 PUSH0 DUP1 PUSH2 0x100 EXP DUP2 SLOAD DUP2 PUSH20 0xFFFFFFFFFFFFFFFFFFFFFFFFFFFFFFFFFFFFFFFF MUL NOT AND SWAP1 DUP4 PUSH20 0xFFFFFFFFFFFFFFFFFFFFFFFFFFFFFFFFFFFFFFFF AND MUL OR SWAP1 SSTORE POP DUP1 PUSH1 0x1 PUSH0 PUSH2 0x100 EXP DUP2 SLOAD DUP2 PUSH20 0xFFFFFFFFFFFFFFFFFFFFFFFFFFFFFFFFFFFFFFFF MUL NOT AND SWAP1 DUP4 PUSH20 0xFFFFFFFFFFFFFFFFFFFFFFFFFFFFFFFFFFFFFFFF AND MUL OR SWAP1 SSTORE POP POP POP PUSH2 0x15A JUMP JUMPDEST PUSH0 DUP1 REVERT JUMPDEST PUSH0 PUSH20 0xFFFFFFFFFFFFFFFFFFFFFFFFFFFFFFFFFFFFFFFF DUP3 AND SWAP1 POP SWAP2 SWAP1 POP JUMP JUMPDEST PUSH0 PUSH2 0xEB DUP3 PUSH2 0xC2 JUMP JUMPDEST SWAP1 POP SWAP2 SWAP1 POP JUMP JUMPDEST PUSH2 0xFB DUP2 PUSH2 0xE1 JUMP JUMPDEST DUP2 EQ PUSH2 0x105 JUMPI PUSH0 DUP1 REVERT JUMPDEST POP JUMP JUMPDEST PUSH0 DUP2 MLOAD SWAP1 POP PUSH2 0x116 DUP2 PUSH2 0xF2 JUMP JUMPDEST SWAP3 SWAP2 POP POP JUMP JUMPDEST PUSH0 DUP1 PUSH1 0x40 DUP4 DUP6 SUB SLT ISZERO PUSH2 0x132 JUMPI PUSH2 0x131 PUSH2 0xBE JUMP JUMPDEST JUMPDEST PUSH0 PUSH2 0x13F DUP6 DUP3 DUP7 ADD PUSH2 0x108 JUMP JUMPDEST SWAP3 POP POP PUSH1 0x20 PUSH2 0x150 DUP6 DUP3 DUP7 ADD PUSH2 0x108 JUMP JUMPDEST SWAP2 POP POP SWAP3 POP SWAP3 SWAP1 POP JUMP JUMPDEST PUSH2 0xC92 DUP1 PUSH2 0x167 PUSH0 CODECOPY PUSH0 RETURN INVALID PUSH1 0x80 PUSH1 0x40 MSTORE CALLVALUE DUP1 ISZERO PUSH2 0xF JUMPI PUSH0 DUP1 REVERT JUMPDEST POP PUSH1 0x4 CALLDATASIZE LT PUSH2 0x86 JUMPI PUSH0 CALLDATALOAD PUSH1 0xE0 SHR DUP1 PUSH4 0xA694FC3A GT PUSH2 0x59 JUMPI DUP1 PUSH4 0xA694FC3A EQ PUSH2 0x126 JUMPI DUP1 PUSH4 0xD21220A7 EQ PUSH2 0x142 JUMPI DUP1 PUSH4 0xFC0C546A EQ PUSH2 0x160 JUMPI DUP1 PUSH4 0xFE313112 EQ PUSH2 0x17E JUMPI PUSH2 0x86 JUMP JUMPDEST DUP1 PUSH4 0xD668087 EQ PUSH2 0x8A JUMPI DUP1 PUSH4 0x16934FC4 EQ PUSH2 0xA8 JUMPI DUP1 PUSH4 0x2E1A7D4D EQ PUSH2 0xD9 JUMPI DUP1 PUSH4 0xA4063DBC EQ PUSH2 0xF5 JUMPI JUMPDEST PUSH0 DUP1 REVERT JUMPDEST PUSH2 0x92 PUSH2 0x19A JUMP JUMPDEST PUSH1 0x40 MLOAD PUSH2 0x9F SWAP2 SWAP1 PUSH2 0x7C8 JUMP JUMPDEST PUSH1 0x40 MLOAD DUP1 SWAP2 SUB SWAP1 RETURN JUMPDEST PUSH2 0xC2 PUSH1 0x4 DUP1 CALLDATASIZE SUB DUP2 ADD SWAP1 PUSH2 0xBD SWAP2 SWAP1 PUSH2 0x83F JUMP JUMPDEST PUSH2 0x1A0 JUMP JUMPDEST PUSH1 0x40 MLOAD PUSH2 0xD0 SWAP3 SWAP2 SWAP1 PUSH2 0x86A JUMP JUMPDEST PUSH1 0x40 MLOAD DUP1 SWAP2 SUB SWAP1 RETURN JUMPDEST PUSH2 0xF3 PUSH1 0x4 DUP1 CALLDATASIZE SUB DUP2 ADD SWAP1 PUSH2 0xEE SWAP2 SWAP1 PUSH2 0x8BB JUMP JUMPDEST PUSH2 0x1C0 JUMP JUMPDEST STOP JUMPDEST PUSH2 0x10F PUSH1 0x4 DUP1 CALLDATASIZE SUB DUP2 ADD SWAP1 PUSH2 0x10A SWAP2 SWAP1 PUSH2 0x83F JUMP JUMPDEST PUSH2 0x352 JUMP JUMPDEST PUSH1 0x40 MLOAD PUSH2 0x11D SWAP3 SWAP2 SWAP1 PUSH2 0x8F5 JUMP JUMPDEST PUSH1 0x40 MLOAD DUP1 SWAP2 SUB SWAP1 RETURN JUMPDEST PUSH2 0x140 PUSH1 0x4 DUP1 CALLDATASIZE SUB DUP2 ADD SWAP1 PUSH2 0x13B SWAP2 SWAP1 PUSH2 0x8BB JUMP JUMPDEST PUSH2 0x391 JUMP JUMPDEST STOP JUMPDEST PUSH2 0x14A PUSH2 0x5A1 JUMP JUMPDEST PUSH1 0x40 MLOAD PUSH2 0x157 SWAP2 SWAP1 PUSH2 0x977 JUMP JUMPDEST PUSH1 0x40 MLOAD DUP1 SWAP2 SUB SWAP1 RETURN JUMPDEST PUSH2 0x168 PUSH2 0x5C6 JUMP JUMPDEST PUSH1 0x40 MLOAD PUSH2 0x175 SWAP2 SWAP1 PUSH2 0x977 JUMP JUMPDEST PUSH1 0x40 MLOAD DUP1 SWAP2 SUB SWAP1 RETURN JUMPDEST PUSH2 0x198 PUSH1 0x4 DUP1 CALLDATASIZE SUB DUP2 ADD SWAP1 PUSH2 0x193 SWAP2 SWAP1 PUSH2 0x8BB JUMP JUMPDEST PUSH2 0x5E9 JUMP JUMPDEST STOP JUMPDEST PUSH1 0x2 SLOAD DUP2 JUMP JUMPDEST PUSH1 0x3 PUSH1 0x20 MSTORE DUP1 PUSH0 MSTORE PUSH1 0x40 PUSH0 KECCAK256 PUSH0 SWAP2 POP SWAP1 POP DUP1 PUSH0 ADD SLOAD SWAP1 DUP1 PUSH1 0x1 ADD SLOAD SWAP1 POP DUP3 JUMP JUMPDEST PUSH0 PUSH1 0x3 PUSH0 CALLER PUSH20 0xFFFFFFFFFFFFFFFFFFFFFFFFFFFFFFFFFFFFFFFF AND PUSH20 0xFFFFFFFFFFFFFFFFFFFFFFFFFFFFFFFFFFFFFFFF AND DUP2 MSTORE PUSH1 0x20 ADD SWAP1 DUP2 MSTORE PUSH1 0x20 ADD PUSH0 KECCAK256 SWAP1 POP PUSH1 0x64 DUP3 GT ISZERO PUSH2 0x20D JUMPI PUSH0 DUP1 REVERT JUMPDEST PUSH1 0x2 SLOAD DUP2 PUSH1 0x1 ADD SLOAD PUSH2 0x21F SWAP2 SWAP1 PUSH2 0x9BD JUMP JUMPDEST TIMESTAMP LT ISZERO PUSH2 0x261 JUMPI PUSH1 0x40 MLOAD PUSH32 0x8C379A000000000000000000000000000000000000000000000000000000000 DUP2 MSTORE PUSH1 0x4 ADD PUSH2 0x258 SWAP1 PUSH2 0xA4A JUMP JUMPDEST PUSH1 0x40 MLOAD DUP1 SWAP2 SUB SWAP1 REVERT JUMPDEST PUSH0 DUP3 SWAP1 POP PUSH1 0x3 PUSH0 CALLER PUSH20 0xFFFFFFFFFFFFFFFFFFFFFFFFFFFFFFFFFFFFFFFF AND PUSH20 0xFFFFFFFFFFFFFFFFFFFFFFFFFFFFFFFFFFFFFFFF AND DUP2 MSTORE PUSH1 0x20 ADD SWAP1 DUP2 MSTORE PUSH1 0x20 ADD PUSH0 KECCAK256 PUSH0 DUP1 DUP3 ADD PUSH0 SWAP1 SSTORE PUSH1 0x1 DUP3 ADD PUSH0 SWAP1 SSTORE POP POP PUSH0 DUP1 SLOAD SWAP1 PUSH2 0x100 EXP SWAP1 DIV PUSH20 0xFFFFFFFFFFFFFFFFFFFFFFFFFFFFFFFFFFFFFFFF AND PUSH20 0xFFFFFFFFFFFFFFFFFFFFFFFFFFFFFFFFFFFFFFFF AND PUSH4 0xA9059CBB CALLER DUP4 PUSH1 0x40 MLOAD DUP4 PUSH4 0xFFFFFFFF AND PUSH1 0xE0 SHL DUP2 MSTORE PUSH1 0x4 ADD PUSH2 0x30C SWAP3 SWAP2 SWAP1 PUSH2 0xA68 JUMP JUMPDEST PUSH1 0x20 PUSH1 0x40 MLOAD DUP1 DUP4 SUB DUP2 PUSH0 DUP8 GAS CALL ISZERO DUP1 ISZERO PUSH2 0x328 JUMPI RETURNDATASIZE PUSH0 DUP1 RETURNDATACOPY RETURNDATASIZE PUSH0 REVERT JUMPDEST POP POP POP POP PUSH1 0x40 MLOAD RETURNDATASIZE PUSH1 0x1F NOT PUSH1 0x1F DUP3 ADD AND DUP3 ADD DUP1 PUSH1 0x40 MSTORE POP DUP2 ADD SWAP1 PUSH2 0x34C SWAP2 SWAP1 PUSH2 0xAC4 JUMP JUMPDEST POP POP POP POP JUMP JUMPDEST PUSH1 0x4 PUSH1 0x20 MSTORE DUP1 PUSH0 MSTORE PUSH1 0x40 PUSH0 KECCAK256 PUSH0 SWAP2 POP SWAP1 POP DUP1 PUSH0 ADD SLOAD SWAP1 DUP1 PUSH1 0x1 ADD PUSH0 SWAP1 SLOAD SWAP1 PUSH2 0x100 EXP SWAP1 DIV PUSH20 0xFFFFFFFFFFFFFFFFFFFFFFFFFFFFFFFFFFFFFFFF AND SWAP1 POP DUP3 JUMP JUMPDEST PUSH1 0xA DUP2 LT ISZERO PUSH2 0x3D5 JUMPI PUSH1 0x40 MLOAD PUSH32 0x8C379A000000000000000000000000000000000000000000000000000000000 DUP2 MSTORE PUSH1 0x4 ADD PUSH2 0x3CC SWAP1 PUSH2 0xB39 JUMP JUMPDEST PUSH1 0x40 MLOAD DUP1 SWAP2 SUB SWAP1 REVERT JUMPDEST PUSH1 0x64 DUP2 GT ISZERO PUSH2 0x419 JUMPI PUSH1 0x40 MLOAD PUSH32 0x8C379A000000000000000000000000000000000000000000000000000000000 DUP2 MSTORE PUSH1 0x4 ADD PUSH2 0x410 SWAP1 PUSH2 0xBA1 JUMP JUMPDEST PUSH1 0x40 MLOAD DUP1 SWAP2 SUB SWAP1 REVERT JUMPDEST PUSH0 PUSH1 0x3 PUSH0 CALLER PUSH20 0xFFFFFFFFFFFFFFFFFFFFFFFFFFFFFFFFFFFFFFFF AND PUSH20 0xFFFFFFFFFFFFFFFFFFFFFFFFFFFFFFFFFFFFFFFF AND DUP2 MSTORE PUSH1 0x20 ADD SWAP1 DUP2 MSTORE PUSH1 0x20 ADD PUSH0 KECCAK256 PUSH0 ADD SLOAD EQ PUSH2 0x49A JUMPI PUSH1 0x40 MLOAD PUSH32 0x8C379A000000000000000000000000000000000000000000000000000000000 DUP2 MSTORE PUSH1 0x4 ADD PUSH2 0x491 SWAP1 PUSH2 0xC09 JUMP JUMPDEST PUSH1 0x40 MLOAD DUP1 SWAP2 SUB SWAP1 REVERT JUMPDEST PUSH0 DUP1 SLOAD SWAP1 PUSH2 0x100 EXP SWAP1 DIV PUSH20 0xFFFFFFFFFFFFFFFFFFFFFFFFFFFFFFFFFFFFFFFF AND PUSH20 0xFFFFFFFFFFFFFFFFFFFFFFFFFFFFFFFFFFFFFFFF AND PUSH4 0x23B872DD CALLER ADDRESS DUP5 PUSH1 0x40 MLOAD DUP5 PUSH4 0xFFFFFFFF AND PUSH1 0xE0 SHL DUP2 MSTORE PUSH1 0x4 ADD PUSH2 0x4F6 SWAP4 SWAP3 SWAP2 SWAP1 PUSH2 0xC27 JUMP JUMPDEST PUSH1 0x20 PUSH1 0x40 MLOAD DUP1 DUP4 SUB DUP2 PUSH0 DUP8 GAS CALL ISZERO DUP1 ISZERO PUSH2 0x512 JUMPI RETURNDATASIZE PUSH0 DUP1 RETURNDATACOPY RETURNDATASIZE PUSH0 REVERT JUMPDEST POP POP POP POP PUSH1 0x40 MLOAD RETURNDATASIZE PUSH1 0x1F NOT PUSH1 0x1F DUP3 ADD AND DUP3 ADD DUP1 PUSH1 0x40 MSTORE POP DUP2 ADD SWAP1 PUSH2 0x536 SWAP2 SWAP1 PUSH2 0xAC4 JUMP JUMPDEST POP PUSH1 0x40 MLOAD DUP1 PUSH1 0x40 ADD PUSH1 0x40 MSTORE DUP1 DUP3 DUP2 MSTORE PUSH1 0x20 ADD TIMESTAMP DUP2 MSTORE POP PUSH1 0x3 PUSH0 CALLER PUSH20 0xFFFFFFFFFFFFFFFFFFFFFFFFFFFFFFFFFFFFFFFF AND PUSH20 0xFFFFFFFFFFFFFFFFFFFFFFFFFFFFFFFFFFFFFFFF AND DUP2 MSTORE PUSH1 0x20 ADD SWAP1 DUP2 MSTORE PUSH1 0x20 ADD PUSH0 KECCAK256 PUSH0 DUP3 ADD MLOAD DUP2 PUSH0 ADD SSTORE PUSH1 0x20 DUP3 ADD MLOAD DUP2 PUSH1 0x1 ADD SSTORE SWAP1 POP POP POP JUMP JUMPDEST PUSH1 0x1 PUSH0 SWAP1 SLOAD SWAP1 PUSH2 0x100 EXP SWAP1 DIV PUSH20 0xFFFFFFFFFFFFFFFFFFFFFFFFFFFFFFFFFFFFFFFF AND DUP2 JUMP JUMPDEST PUSH0 DUP1 SLOAD SWAP1 PUSH2 0x100 EXP SWAP1 DIV PUSH20 0xFFFFFFFFFFFFFFFFFFFFFFFFFFFFFFFFFFFFFFFF AND DUP2 JUMP JUMPDEST PUSH1 0xA DUP2 LT ISZERO PUSH2 0x62D JUMPI PUSH1 0x40 MLOAD PUSH32 0x8C379A000000000000000000000000000000000000000000000000000000000 DUP2 MSTORE PUSH1 0x4 ADD PUSH2 0x624 SWAP1 PUSH2 0xB39 JUMP JUMPDEST PUSH1 0x40 MLOAD DUP1 SWAP2 SUB SWAP1 REVERT JUMPDEST PUSH1 0x64 DUP2 GT ISZERO PUSH2 0x671 JUMPI PUSH1 0x40 MLOAD PUSH32 0x8C379A000000000000000000000000000000000000000000000000000000000 DUP2 MSTORE PUSH1 0x4 ADD PUSH2 0x668 SWAP1 PUSH2 0xBA1 JUMP JUMPDEST PUSH1 0x40 MLOAD DUP1 SWAP2 SUB SWAP1 REVERT JUMPDEST PUSH0 DUP1 SLOAD SWAP1 PUSH2 0x100 EXP SWAP1 DIV PUSH20 0xFFFFFFFFFFFFFFFFFFFFFFFFFFFFFFFFFFFFFFFF AND PUSH20 0xFFFFFFFFFFFFFFFFFFFFFFFFFFFFFFFFFFFFFFFF AND PUSH4 0x23B872DD CALLER ADDRESS DUP5 PUSH1 0x40 MLOAD DUP5 PUSH4 0xFFFFFFFF AND PUSH1 0xE0 SHL DUP2 MSTORE PUSH1 0x4 ADD PUSH2 0x6CD SWAP4 SWAP3 SWAP2 SWAP1 PUSH2 0xC27 JUMP JUMPDEST PUSH1 0x20 PUSH1 0x40 MLOAD DUP1 DUP4 SUB DUP2 PUSH0 DUP8 GAS CALL ISZERO DUP1 ISZERO PUSH2 0x6E9 JUMPI RETURNDATASIZE PUSH0 DUP1 RETURNDATACOPY RETURNDATASIZE PUSH0 REVERT JUMPDEST POP POP POP POP PUSH1 0x40 MLOAD RETURNDATASIZE PUSH1 0x1F NOT PUSH1 0x1F DUP3 ADD AND DUP3 ADD DUP1 PUSH1 0x40 MSTORE POP DUP2 ADD SWAP1 PUSH2 0x70D SWAP2 SWAP1 PUSH2 0xAC4 JUMP JUMPDEST POP PUSH1 0x1 PUSH0 SWAP1 SLOAD SWAP1 PUSH2 0x100 EXP SWAP1 DIV PUSH20 0xFFFFFFFFFFFFFFFFFFFFFFFFFFFFFFFFFFFFFFFF AND PUSH20 0xFFFFFFFFFFFFFFFFFFFFFFFFFFFFFFFFFFFFFFFF AND PUSH4 0x23B872DD CALLER ADDRESS DUP5 PUSH1 0x40 MLOAD DUP5 PUSH4 0xFFFFFFFF AND PUSH1 0xE0 SHL DUP2 MSTORE PUSH1 0x4 ADD PUSH2 0x76C SWAP4 SWAP3 SWAP2 SWAP1 PUSH2 0xC27 JUMP JUMPDEST PUSH1 0x20 PUSH1 0x40 MLOAD DUP1 DUP4 SUB DUP2 PUSH0 DUP8 GAS CALL ISZERO DUP1 ISZERO PUSH2 0x788 JUMPI RETURNDATASIZE PUSH0 DUP1 RETURNDATACOPY RETURNDATASIZE PUSH0 REVERT JUMPDEST POP POP POP POP PUSH1 0x40 MLOAD RETURNDATASIZE PUSH1 0x1F NOT PUSH1 0x1F DUP3 ADD AND DUP3 ADD DUP1 PUSH1 0x40 MSTORE POP DUP2 ADD SWAP1 PUSH2 0x7AC SWAP2 SWAP1 PUSH2 0xAC4 JUMP JUMPDEST POP POP JUMP JUMPDEST PUSH0 DUP2 SWAP1 POP SWAP2 SWAP1 POP JUMP JUMPDEST PUSH2 0x7C2 DUP2 PUSH2 0x7B0 JUMP JUMPDEST DUP3 MSTORE POP POP JUMP JUMPDEST PUSH0 PUSH1 0x20 DUP3 ADD SWAP1 POP PUSH2 0x7DB PUSH0 DUP4 ADD DUP5 PUSH2 0x7B9 JUMP JUMPDEST SWAP3 SWAP2 POP POP JUMP JUMPDEST PUSH0 DUP1 REVERT JUMPDEST PUSH0 PUSH20 0xFFFFFFFFFFFFFFFFFFFFFFFFFFFFFFFFFFFFFFFF DUP3 AND SWAP1 POP SWAP2 SWAP1 POP JUMP JUMPDEST PUSH0 PUSH2 0x80E DUP3 PUSH2 0x7E5 JUMP JUMPDEST SWAP1 POP SWAP2 SWAP1 POP JUMP JUMPDEST PUSH2 0x81E DUP2 PUSH2 0x804 JUMP JUMPDEST DUP2 EQ PUSH2 0x828 JUMPI PUSH0 DUP1 REVERT JUMPDEST POP JUMP JUMPDEST PUSH0 DUP2 CALLDATALOAD SWAP1 POP PUSH2 0x839 DUP2 PUSH2 0x815 JUMP JUMPDEST SWAP3 SWAP2 POP POP JUMP JUMPDEST PUSH0 PUSH1 0x20 DUP3 DUP5 SUB SLT ISZERO PUSH2 0x854 JUMPI PUSH2 0x853 PUSH2 0x7E1 JUMP JUMPDEST JUMPDEST PUSH0 PUSH2 0x861 DUP5 DUP3 DUP6 ADD PUSH2 0x82B JUMP JUMPDEST SWAP2 POP POP SWAP3 SWAP2 POP POP JUMP JUMPDEST PUSH0 PUSH1 0x40 DUP3 ADD SWAP1 POP PUSH2 0x87D PUSH0 DUP4 ADD DUP6 PUSH2 0x7B9 JUMP JUMPDEST PUSH2 0x88A PUSH1 0x20 DUP4 ADD DUP5 PUSH2 0x7B9 JUMP JUMPDEST SWAP4 SWAP3 POP POP POP JUMP JUMPDEST PUSH2 0x89A DUP2 PUSH2 0x7B0 JUMP JUMPDEST DUP2 EQ PUSH2 0x8A4 JUMPI PUSH0 DUP1 REVERT JUMPDEST POP JUMP JUMPDEST PUSH0 DUP2 CALLDATALOAD SWAP1 POP PUSH2 0x8B5 DUP2 PUSH2 0x891 JUMP JUMPDEST SWAP3 SWAP2 POP POP JUMP JUMPDEST PUSH0 PUSH1 0x20 DUP3 DUP5 SUB SLT ISZERO PUSH2 0x8D0 JUMPI PUSH2 0x8CF PUSH2 0x7E1 JUMP JUMPDEST JUMPDEST PUSH0 PUSH2 0x8DD DUP5 DUP3 DUP6 ADD PUSH2 0x8A7 JUMP JUMPDEST SWAP2 POP POP SWAP3 SWAP2 POP POP JUMP JUMPDEST PUSH2 0x8EF DUP2 PUSH2 0x804 JUMP JUMPDEST DUP3 MSTORE POP POP JUMP JUMPDEST PUSH0 PUSH1 0x40 DUP3 ADD SWAP1 POP PUSH2 0x908 PUSH0 DUP4 ADD DUP6 PUSH2 0x7B9 JUMP JUMPDEST PUSH2 0x915 PUSH1 0x20 DUP4 ADD DUP5 PUSH2 0x8E6 JUMP JUMPDEST SWAP4 SWAP3 POP POP POP JUMP JUMPDEST PUSH0 DUP2 SWAP1 POP SWAP2 SWAP1 POP JUMP JUMPDEST PUSH0 PUSH2 0x93F PUSH2 0x93A PUSH2 0x935 DUP5 PUSH2 0x7E5 JUMP JUMPDEST PUSH2 0x91C JUMP JUMPDEST PUSH2 0x7E5 JUMP JUMPDEST SWAP1 POP SWAP2 SWAP1 POP JUMP JUMPDEST PUSH0 PUSH2 0x950 DUP3 PUSH2 0x925 JUMP JUMPDEST SWAP1 POP SWAP2 SWAP1 POP JUMP JUMPDEST PUSH0 PUSH2 0x961 DUP3 PUSH2 0x946 JUMP JUMPDEST SWAP1 POP SWAP2 SWAP1 POP JUMP JUMPDEST PUSH2 0x971 DUP2 PUSH2 0x957 JUMP JUMPDEST DUP3 MSTORE POP POP JUMP JUMPDEST PUSH0 PUSH1 0x20 DUP3 ADD SWAP1 POP PUSH2 0x98A PUSH0 DUP4 ADD DUP5 PUSH2 0x968 JUMP JUMPDEST SWAP3 SWAP2 POP POP JUMP JUMPDEST PUSH32 0x4E487B7100000000000000000000000000000000000000000000000000000000 PUSH0 MSTORE PUSH1 0x11 PUSH1 0x4 MSTORE PUSH1 0x24 PUSH0 REVERT JUMPDEST PUSH0 PUSH2 0x9C7 DUP3 PUSH2 0x7B0 JUMP JUMPDEST SWAP2 POP PUSH2 0x9D2 DUP4 PUSH2 0x7B0 JUMP JUMPDEST SWAP3 POP DUP3 DUP3 ADD SWAP1 POP DUP1 DUP3 GT ISZERO PUSH2 0x9EA JUMPI PUSH2 0x9E9 PUSH2 0x990 JUMP JUMPDEST JUMPDEST SWAP3 SWAP2 POP POP JUMP JUMPDEST PUSH0 DUP3 DUP3 MSTORE PUSH1 0x20 DUP3 ADD SWAP1 POP SWAP3 SWAP2 POP POP JUMP JUMPDEST PUSH32 0x5374616B65206973207374696C6C206C6F636B65640000000000000000000000 PUSH0 DUP3 ADD MSTORE POP JUMP JUMPDEST PUSH0 PUSH2 0xA34 PUSH1 0x15 DUP4 PUSH2 0x9F0 JUMP JUMPDEST SWAP2 POP PUSH2 0xA3F DUP3 PUSH2 0xA00 JUMP JUMPDEST PUSH1 0x20 DUP3 ADD SWAP1 POP SWAP2 SWAP1 POP JUMP JUMPDEST PUSH0 PUSH1 0x20 DUP3 ADD SWAP1 POP DUP2 DUP2 SUB PUSH0 DUP4 ADD MSTORE PUSH2 0xA61 DUP2 PUSH2 0xA28 JUMP JUMPDEST SWAP1 POP SWAP2 SWAP1 POP JUMP JUMPDEST PUSH0 PUSH1 0x40 DUP3 ADD SWAP1 POP PUSH2 0xA7B PUSH0 DUP4 ADD DUP6 PUSH2 0x8E6 JUMP JUMPDEST PUSH2 0xA88 PUSH1 0x20 DUP4 ADD DUP5 PUSH2 0x7B9 JUMP JUMPDEST SWAP4 SWAP3 POP POP POP JUMP JUMPDEST PUSH0 DUP2 ISZERO ISZERO SWAP1 POP SWAP2 SWAP1 POP JUMP JUMPDEST PUSH2 0xAA3 DUP2 PUSH2 0xA8F JUMP JUMPDEST DUP2 EQ PUSH2 0xAAD JUMPI PUSH0 DUP1 REVERT JUMPDEST POP JUMP JUMPDEST PUSH0 DUP2 MLOAD SWAP1 POP PUSH2 0xABE DUP2 PUSH2 0xA9A JUMP JUMPDEST SWAP3 SWAP2 POP POP JUMP JUMPDEST PUSH0 PUSH1 0x20 DUP3 DUP5 SUB SLT ISZERO PUSH2 0xAD9 JUMPI PUSH2 0xAD8 PUSH2 0x7E1 JUMP JUMPDEST JUMPDEST PUSH0 PUSH2 0xAE6 DUP5 DUP3 DUP6 ADD PUSH2 0xAB0 JUMP JUMPDEST SWAP2 POP POP SWAP3 SWAP2 POP POP JUMP JUMPDEST PUSH32 0x416D6F756E74206D757374206265203E20313000000000000000000000000000 PUSH0 DUP3 ADD MSTORE POP JUMP JUMPDEST PUSH0 PUSH2 0xB23 PUSH1 0x13 DUP4 PUSH2 0x9F0 JUMP JUMPDEST SWAP2 POP PUSH2 0xB2E DUP3 PUSH2 0xAEF JUMP JUMPDEST PUSH1 0x20 DUP3 ADD SWAP1 POP SWAP2 SWAP1 POP JUMP JUMPDEST PUSH0 PUSH1 0x20 DUP3 ADD SWAP1 POP DUP2 DUP2 SUB PUSH0 DUP4 ADD MSTORE PUSH2 0xB50 DUP2 PUSH2 0xB17 JUMP JUMPDEST SWAP1 POP SWAP2 SWAP1 POP JUMP JUMPDEST PUSH32 0x416D6F756E74206D757374206265203C3D203130300000000000000000000000 PUSH0 DUP3 ADD MSTORE POP JUMP JUMPDEST PUSH0 PUSH2 0xB8B PUSH1 0x15 DUP4 PUSH2 0x9F0 JUMP JUMPDEST SWAP2 POP PUSH2 0xB96 DUP3 PUSH2 0xB57 JUMP JUMPDEST PUSH1 0x20 DUP3 ADD SWAP1 POP SWAP2 SWAP1 POP JUMP JUMPDEST PUSH0 PUSH1 0x20 DUP3 ADD SWAP1 POP DUP2 DUP2 SUB PUSH0 DUP4 ADD MSTORE PUSH2 0xBB8 DUP2 PUSH2 0xB7F JUMP JUMPDEST SWAP1 POP SWAP2 SWAP1 POP JUMP JUMPDEST PUSH32 0x416C7265616479207374616B6564000000000000000000000000000000000000 PUSH0 DUP3 ADD MSTORE POP JUMP JUMPDEST PUSH0 PUSH2 0xBF3 PUSH1 0xE DUP4 PUSH2 0x9F0 JUMP JUMPDEST SWAP2 POP PUSH2 0xBFE DUP3 PUSH2 0xBBF JUMP JUMPDEST PUSH1 0x20 DUP3 ADD SWAP1 POP SWAP2 SWAP1 POP JUMP JUMPDEST PUSH0 PUSH1 0x20 DUP3 ADD SWAP1 POP DUP2 DUP2 SUB PUSH0 DUP4 ADD MSTORE PUSH2 0xC20 DUP2 PUSH2 0xBE7 JUMP JUMPDEST SWAP1 POP SWAP2 SWAP1 POP JUMP JUMPDEST PUSH0 PUSH1 0x60 DUP3 ADD SWAP1 POP PUSH2 0xC3A PUSH0 DUP4 ADD DUP7 PUSH2 0x8E6 JUMP JUMPDEST PUSH2 0xC47 PUSH1 0x20 DUP4 ADD DUP6 PUSH2 0x8E6 JUMP JUMPDEST PUSH2 0xC54 PUSH1 0x40 DUP4 ADD DUP5 PUSH2 0x7B9 JUMP JUMPDEST SWAP5 SWAP4 POP POP POP POP JUMP INVALID LOG2 PUSH5 0x6970667358 0x22 SLT KECCAK256 0xCA CREATE CALLCODE BLOBBASEFEE 0xC3 SHL SWAP5 0xB1 0xDC BALANCE 0xD5 0xBB BLOBHASH SHR 0x23 SDIV 0xBF CODESIZE 0xCA KECCAK256 STATICCALL CALLVALUE 0xEF PUSH13 0x5C31C931F39F08D864736F6C63 NUMBER STOP ADDMOD BYTE STOP CALLER "
				},
				"gasEstimates": {
					"creation": {
						"codeDepositCost": "643600",
						"executionCost": "infinite",
						"totalCost": "infinite"
					},
					"external": {
						"lockTime()": "2426",
						"pool(uint256)": "infinite",
						"pools(address)": "infinite",
						"stake(uint256)": "infinite",
						"stakes(address)": "infinite",
						"token()": "infinite",
						"token1()": "infinite",
						"withdraw(uint256)": "infinite"
					}
				},
				"methodIdentifiers": {
					"lockTime()": "0d668087",
					"pool(uint256)": "fe313112",
					"pools(address)": "a4063dbc",
					"stake(uint256)": "a694fc3a",
					"stakes(address)": "16934fc4",
					"token()": "fc0c546a",
					"token1()": "d21220a7",
					"withdraw(uint256)": "2e1a7d4d"
				}
			},
			"storageLayout": {
				"storage": [
					{
						"astId": 25,
						"contract": "contracts/s1.sol:SimpleStaking",
						"label": "token",
						"offset": 0,
						"slot": "0",
						"type": "t_contract(IERC20)22"
					},
					{
						"astId": 28,
						"contract": "contracts/s1.sol:SimpleStaking",
						"label": "token1",
						"offset": 0,
						"slot": "1",
						"type": "t_contract(IERC20)22"
					},
					{
						"astId": 31,
						"contract": "contracts/s1.sol:SimpleStaking",
						"label": "lockTime",
						"offset": 0,
						"slot": "2",
						"type": "t_uint256"
					},
					{
						"astId": 46,
						"contract": "contracts/s1.sol:SimpleStaking",
						"label": "stakes",
						"offset": 0,
						"slot": "3",
						"type": "t_mapping(t_address,t_struct(StakeInfo)36_storage)"
					},
					{
						"astId": 174,
						"contract": "contracts/s1.sol:SimpleStaking",
						"label": "pools",
						"offset": 0,
						"slot": "4",
						"type": "t_mapping(t_address,t_struct(Pool)41_storage)"
					}
				],
				"types": {
					"t_address": {
						"encoding": "inplace",
						"label": "address",
						"numberOfBytes": "20"
					},
					"t_contract(IERC20)22": {
						"encoding": "inplace",
						"label": "contract IERC20",
						"numberOfBytes": "20"
					},
					"t_mapping(t_address,t_struct(Pool)41_storage)": {
						"encoding": "mapping",
						"key": "t_address",
						"label": "mapping(address => struct SimpleStaking.Pool)",
						"numberOfBytes": "32",
						"value": "t_struct(Pool)41_storage"
					},
					"t_mapping(t_address,t_struct(StakeInfo)36_storage)": {
						"encoding": "mapping",
						"key": "t_address",
						"label": "mapping(address => struct SimpleStaking.StakeInfo)",
						"numberOfBytes": "32",
						"value": "t_struct(StakeInfo)36_storage"
					},
					"t_struct(Pool)41_storage": {
						"encoding": "inplace",
						"label": "struct SimpleStaking.Pool",
						"members": [
							{
								"astId": 38,
								"contract": "contracts/s1.sol:SimpleStaking",
								"label": "_n",
								"offset": 0,
								"slot": "0",
								"type": "t_uint256"
							},
							{
								"astId": 40,
								"contract": "contracts/s1.sol:SimpleStaking",
								"label": "addr",
								"offset": 0,
								"slot": "1",
								"type": "t_address"
							}
						],
						"numberOfBytes": "64"
					},
					"t_struct(StakeInfo)36_storage": {
						"encoding": "inplace",
						"label": "struct SimpleStaking.StakeInfo",
						"members": [
							{
								"astId": 33,
								"contract": "contracts/s1.sol:SimpleStaking",
								"label": "amount",
								"offset": 0,
								"slot": "0",
								"type": "t_uint256"
							},
							{
								"astId": 35,
								"contract": "contracts/s1.sol:SimpleStaking",
								"label": "timestamp",
								"offset": 0,
								"slot": "1",
								"type": "t_uint256"
							}
						],
						"numberOfBytes": "64"
					},
					"t_uint256": {
						"encoding": "inplace",
						"label": "uint256",
						"numberOfBytes": "32"
					}
				}
			},
			"userdoc": {
				"kind": "user",
				"methods": {},
				"version": 1
			}
		}
	}
}